{
  "address": "0xdaEF1D28d6665b460c99cA67ba07DCd6dB7570B8",
  "abi": [
    {
      "anonymous": false,
      "inputs": [
        {
          "indexed": true,
          "internalType": "address",
          "name": "_creator",
          "type": "address"
        },
        {
          "indexed": true,
          "internalType": "uint256",
          "name": "_gameId",
          "type": "uint256"
        },
        {
          "components": [
            {
              "internalType": "uint256",
              "name": "id",
              "type": "uint256"
            },
            {
              "internalType": "address",
              "name": "player1",
              "type": "address"
            },
            {
              "internalType": "address",
              "name": "player2",
              "type": "address"
            },
            {
              "internalType": "uint256",
              "name": "bet",
              "type": "uint256"
            },
            {
              "internalType": "uint16",
              "name": "duration",
              "type": "uint16"
            },
            {
              "internalType": "uint256",
              "name": "timestamp",
              "type": "uint256"
            },
            {
              "internalType": "bytes32",
              "name": "encryptedMove",
              "type": "bytes32"
            },
            {
              "internalType": "enum IRockPaperScissors.Hand",
              "name": "decryptedMove",
              "type": "uint8"
            },
            {
              "internalType": "enum IRockPaperScissors.Hand",
              "name": "move",
              "type": "uint8"
            },
            {
              "internalType": "enum IRockPaperScissors.Status",
              "name": "status",
              "type": "uint8"
            }
          ],
          "indexed": false,
          "internalType": "struct IRockPaperScissors.Game",
          "name": "_game",
          "type": "tuple"
        }
      ],
      "name": "GameCreated",
      "type": "event"
    },
    {
      "anonymous": false,
      "inputs": [
        {
          "indexed": true,
          "internalType": "address",
          "name": "_deleter",
          "type": "address"
        },
        {
          "indexed": true,
          "internalType": "uint256",
          "name": "_gameId",
          "type": "uint256"
        },
        {
          "components": [
            {
              "internalType": "uint256",
              "name": "id",
              "type": "uint256"
            },
            {
              "internalType": "address",
              "name": "player1",
              "type": "address"
            },
            {
              "internalType": "address",
              "name": "player2",
              "type": "address"
            },
            {
              "internalType": "uint256",
              "name": "bet",
              "type": "uint256"
            },
            {
              "internalType": "uint16",
              "name": "duration",
              "type": "uint16"
            },
            {
              "internalType": "uint256",
              "name": "timestamp",
              "type": "uint256"
            },
            {
              "internalType": "bytes32",
              "name": "encryptedMove",
              "type": "bytes32"
            },
            {
              "internalType": "enum IRockPaperScissors.Hand",
              "name": "decryptedMove",
              "type": "uint8"
            },
            {
              "internalType": "enum IRockPaperScissors.Hand",
              "name": "move",
              "type": "uint8"
            },
            {
              "internalType": "enum IRockPaperScissors.Status",
              "name": "status",
              "type": "uint8"
            }
          ],
          "indexed": false,
          "internalType": "struct IRockPaperScissors.Game",
          "name": "_game",
          "type": "tuple"
        }
      ],
      "name": "GameDeleted",
      "type": "event"
    },
    {
      "anonymous": false,
      "inputs": [
        {
          "indexed": true,
          "internalType": "address",
          "name": "_ender",
          "type": "address"
        },
        {
          "indexed": true,
          "internalType": "uint256",
          "name": "_gameId",
          "type": "uint256"
        },
        {
          "components": [
            {
              "internalType": "uint256",
              "name": "id",
              "type": "uint256"
            },
            {
              "internalType": "address",
              "name": "player1",
              "type": "address"
            },
            {
              "internalType": "address",
              "name": "player2",
              "type": "address"
            },
            {
              "internalType": "uint256",
              "name": "bet",
              "type": "uint256"
            },
            {
              "internalType": "uint16",
              "name": "duration",
              "type": "uint16"
            },
            {
              "internalType": "uint256",
              "name": "timestamp",
              "type": "uint256"
            },
            {
              "internalType": "bytes32",
              "name": "encryptedMove",
              "type": "bytes32"
            },
            {
              "internalType": "enum IRockPaperScissors.Hand",
              "name": "decryptedMove",
              "type": "uint8"
            },
            {
              "internalType": "enum IRockPaperScissors.Hand",
              "name": "move",
              "type": "uint8"
            },
            {
              "internalType": "enum IRockPaperScissors.Status",
              "name": "status",
              "type": "uint8"
            }
          ],
          "indexed": false,
          "internalType": "struct IRockPaperScissors.Game",
          "name": "_game",
          "type": "tuple"
        }
      ],
      "name": "GameEnded",
      "type": "event"
    },
    {
      "anonymous": false,
      "inputs": [
        {
          "indexed": true,
          "internalType": "address",
          "name": "_starter",
          "type": "address"
        },
        {
          "indexed": true,
          "internalType": "uint256",
          "name": "_gameId",
          "type": "uint256"
        },
        {
          "components": [
            {
              "internalType": "uint256",
              "name": "id",
              "type": "uint256"
            },
            {
              "internalType": "address",
              "name": "player1",
              "type": "address"
            },
            {
              "internalType": "address",
              "name": "player2",
              "type": "address"
            },
            {
              "internalType": "uint256",
              "name": "bet",
              "type": "uint256"
            },
            {
              "internalType": "uint16",
              "name": "duration",
              "type": "uint16"
            },
            {
              "internalType": "uint256",
              "name": "timestamp",
              "type": "uint256"
            },
            {
              "internalType": "bytes32",
              "name": "encryptedMove",
              "type": "bytes32"
            },
            {
              "internalType": "enum IRockPaperScissors.Hand",
              "name": "decryptedMove",
              "type": "uint8"
            },
            {
              "internalType": "enum IRockPaperScissors.Hand",
              "name": "move",
              "type": "uint8"
            },
            {
              "internalType": "enum IRockPaperScissors.Status",
              "name": "status",
              "type": "uint8"
            }
          ],
          "indexed": false,
          "internalType": "struct IRockPaperScissors.Game",
          "name": "_game",
          "type": "tuple"
        }
      ],
      "name": "GameStarted",
      "type": "event"
    },
    {
      "anonymous": false,
      "inputs": [
        {
          "indexed": true,
          "internalType": "address",
          "name": "previousOwner",
          "type": "address"
        },
        {
          "indexed": true,
          "internalType": "address",
          "name": "newOwner",
          "type": "address"
        }
      ],
      "name": "OwnershipTransferred",
      "type": "event"
    },
    {
      "anonymous": false,
      "inputs": [
        {
          "indexed": true,
          "internalType": "address",
          "name": "_from",
          "type": "address"
        },
        {
          "indexed": false,
          "internalType": "uint256",
          "name": "_value",
          "type": "uint256"
        }
      ],
      "name": "Received",
      "type": "event"
    },
    {
      "stateMutability": "payable",
      "type": "fallback"
    },
    {
      "inputs": [
        {
          "internalType": "bytes32",
          "name": "_encryptedMove",
          "type": "bytes32"
        },
        {
          "internalType": "uint16",
          "name": "_duration",
          "type": "uint16"
        }
      ],
      "name": "createGame",
      "outputs": [],
      "stateMutability": "payable",
      "type": "function"
    },
    {
      "inputs": [
        {
          "internalType": "uint256",
          "name": "_gameId",
          "type": "uint256"
        },
        {
          "internalType": "bytes",
          "name": "_seed",
          "type": "bytes"
        }
      ],
      "name": "endGameAsPlayer1",
      "outputs": [],
      "stateMutability": "nonpayable",
      "type": "function"
    },
    {
      "inputs": [
        {
          "internalType": "uint256",
          "name": "_gameId",
          "type": "uint256"
        }
      ],
      "name": "endGameAsPlayer2",
      "outputs": [],
      "stateMutability": "nonpayable",
      "type": "function"
    },
    {
      "inputs": [
        {
          "internalType": "uint256",
          "name": "",
          "type": "uint256"
        }
      ],
      "name": "games",
      "outputs": [
        {
          "internalType": "uint256",
          "name": "id",
          "type": "uint256"
        },
        {
          "internalType": "address",
          "name": "player1",
          "type": "address"
        },
        {
          "internalType": "address",
          "name": "player2",
          "type": "address"
        },
        {
          "internalType": "uint256",
          "name": "bet",
          "type": "uint256"
        },
        {
          "internalType": "uint16",
          "name": "duration",
          "type": "uint16"
        },
        {
          "internalType": "uint256",
          "name": "timestamp",
          "type": "uint256"
        },
        {
          "internalType": "bytes32",
          "name": "encryptedMove",
          "type": "bytes32"
        },
        {
          "internalType": "enum IRockPaperScissors.Hand",
          "name": "decryptedMove",
          "type": "uint8"
        },
        {
          "internalType": "enum IRockPaperScissors.Hand",
          "name": "move",
          "type": "uint8"
        },
        {
          "internalType": "enum IRockPaperScissors.Status",
          "name": "status",
          "type": "uint8"
        }
      ],
      "stateMutability": "view",
      "type": "function"
    },
    {
      "inputs": [],
      "name": "gamesCreated",
      "outputs": [
        {
          "internalType": "uint256",
          "name": "",
          "type": "uint256"
        }
      ],
      "stateMutability": "view",
      "type": "function"
    },
    {
      "inputs": [],
      "name": "getActiveGames",
      "outputs": [
        {
          "components": [
            {
              "internalType": "uint256",
              "name": "id",
              "type": "uint256"
            },
            {
              "internalType": "address",
              "name": "player1",
              "type": "address"
            },
            {
              "internalType": "address",
              "name": "player2",
              "type": "address"
            },
            {
              "internalType": "uint256",
              "name": "bet",
              "type": "uint256"
            },
            {
              "internalType": "uint16",
              "name": "duration",
              "type": "uint16"
            },
            {
              "internalType": "uint256",
              "name": "timestamp",
              "type": "uint256"
            },
            {
              "internalType": "bytes32",
              "name": "encryptedMove",
              "type": "bytes32"
            },
            {
              "internalType": "enum IRockPaperScissors.Hand",
              "name": "decryptedMove",
              "type": "uint8"
            },
            {
              "internalType": "enum IRockPaperScissors.Hand",
              "name": "move",
              "type": "uint8"
            },
            {
              "internalType": "enum IRockPaperScissors.Status",
              "name": "status",
              "type": "uint8"
            }
          ],
          "internalType": "struct IRockPaperScissors.Game[]",
          "name": "",
          "type": "tuple[]"
        }
      ],
      "stateMutability": "view",
      "type": "function"
    },
    {
      "inputs": [
        {
          "internalType": "address",
          "name": "_player",
          "type": "address"
        }
      ],
      "name": "getActiveGamesByPlayer",
      "outputs": [
        {
          "components": [
            {
              "internalType": "uint256",
              "name": "id",
              "type": "uint256"
            },
            {
              "internalType": "address",
              "name": "player1",
              "type": "address"
            },
            {
              "internalType": "address",
              "name": "player2",
              "type": "address"
            },
            {
              "internalType": "uint256",
              "name": "bet",
              "type": "uint256"
            },
            {
              "internalType": "uint16",
              "name": "duration",
              "type": "uint16"
            },
            {
              "internalType": "uint256",
              "name": "timestamp",
              "type": "uint256"
            },
            {
              "internalType": "bytes32",
              "name": "encryptedMove",
              "type": "bytes32"
            },
            {
              "internalType": "enum IRockPaperScissors.Hand",
              "name": "decryptedMove",
              "type": "uint8"
            },
            {
              "internalType": "enum IRockPaperScissors.Hand",
              "name": "move",
              "type": "uint8"
            },
            {
              "internalType": "enum IRockPaperScissors.Status",
              "name": "status",
              "type": "uint8"
            }
          ],
          "internalType": "struct IRockPaperScissors.Game[]",
          "name": "",
          "type": "tuple[]"
        }
      ],
      "stateMutability": "view",
      "type": "function"
    },
    {
      "inputs": [],
      "name": "getActivePlayers",
      "outputs": [
        {
          "internalType": "address[]",
          "name": "",
          "type": "address[]"
        }
      ],
      "stateMutability": "view",
      "type": "function"
    },
    {
      "inputs": [],
      "name": "getAvailableGames",
      "outputs": [
        {
          "components": [
            {
              "internalType": "uint256",
              "name": "id",
              "type": "uint256"
            },
            {
              "internalType": "address",
              "name": "player1",
              "type": "address"
            },
            {
              "internalType": "address",
              "name": "player2",
              "type": "address"
            },
            {
              "internalType": "uint256",
              "name": "bet",
              "type": "uint256"
            },
            {
              "internalType": "uint16",
              "name": "duration",
              "type": "uint16"
            },
            {
              "internalType": "uint256",
              "name": "timestamp",
              "type": "uint256"
            },
            {
              "internalType": "bytes32",
              "name": "encryptedMove",
              "type": "bytes32"
            },
            {
              "internalType": "enum IRockPaperScissors.Hand",
              "name": "decryptedMove",
              "type": "uint8"
            },
            {
              "internalType": "enum IRockPaperScissors.Hand",
              "name": "move",
              "type": "uint8"
            },
            {
              "internalType": "enum IRockPaperScissors.Status",
              "name": "status",
              "type": "uint8"
            }
          ],
          "internalType": "struct IRockPaperScissors.Game[]",
          "name": "",
          "type": "tuple[]"
        }
      ],
      "stateMutability": "view",
      "type": "function"
    },
    {
      "inputs": [
        {
          "internalType": "address",
          "name": "_player",
          "type": "address"
        }
      ],
      "name": "getAvailableGamesByPlayer",
      "outputs": [
        {
          "components": [
            {
              "internalType": "uint256",
              "name": "id",
              "type": "uint256"
            },
            {
              "internalType": "address",
              "name": "player1",
              "type": "address"
            },
            {
              "internalType": "address",
              "name": "player2",
              "type": "address"
            },
            {
              "internalType": "uint256",
              "name": "bet",
              "type": "uint256"
            },
            {
              "internalType": "uint16",
              "name": "duration",
              "type": "uint16"
            },
            {
              "internalType": "uint256",
              "name": "timestamp",
              "type": "uint256"
            },
            {
              "internalType": "bytes32",
              "name": "encryptedMove",
              "type": "bytes32"
            },
            {
              "internalType": "enum IRockPaperScissors.Hand",
              "name": "decryptedMove",
              "type": "uint8"
            },
            {
              "internalType": "enum IRockPaperScissors.Hand",
              "name": "move",
              "type": "uint8"
            },
            {
              "internalType": "enum IRockPaperScissors.Status",
              "name": "status",
              "type": "uint8"
            }
          ],
          "internalType": "struct IRockPaperScissors.Game[]",
          "name": "",
          "type": "tuple[]"
        }
      ],
      "stateMutability": "view",
      "type": "function"
    },
    {
      "inputs": [],
      "name": "getAvailablePlayers",
      "outputs": [
        {
          "internalType": "address[]",
          "name": "",
          "type": "address[]"
        }
      ],
      "stateMutability": "view",
      "type": "function"
    },
    {
      "inputs": [],
      "name": "getEtherBalance",
      "outputs": [
        {
          "internalType": "uint256",
          "name": "",
          "type": "uint256"
        }
      ],
      "stateMutability": "view",
      "type": "function"
    },
    {
      "inputs": [],
      "name": "getGames",
      "outputs": [
        {
          "components": [
            {
              "internalType": "uint256",
              "name": "id",
              "type": "uint256"
            },
            {
              "internalType": "address",
              "name": "player1",
              "type": "address"
            },
            {
              "internalType": "address",
              "name": "player2",
              "type": "address"
            },
            {
              "internalType": "uint256",
              "name": "bet",
              "type": "uint256"
            },
            {
              "internalType": "uint16",
              "name": "duration",
              "type": "uint16"
            },
            {
              "internalType": "uint256",
              "name": "timestamp",
              "type": "uint256"
            },
            {
              "internalType": "bytes32",
              "name": "encryptedMove",
              "type": "bytes32"
            },
            {
              "internalType": "enum IRockPaperScissors.Hand",
              "name": "decryptedMove",
              "type": "uint8"
            },
            {
              "internalType": "enum IRockPaperScissors.Hand",
              "name": "move",
              "type": "uint8"
            },
            {
              "internalType": "enum IRockPaperScissors.Status",
              "name": "status",
              "type": "uint8"
            }
          ],
          "internalType": "struct IRockPaperScissors.Game[]",
          "name": "",
          "type": "tuple[]"
        }
      ],
      "stateMutability": "view",
      "type": "function"
    },
    {
      "inputs": [],
      "name": "owner",
      "outputs": [
        {
          "internalType": "address",
          "name": "",
          "type": "address"
        }
      ],
      "stateMutability": "view",
      "type": "function"
    },
    {
      "inputs": [
        {
          "internalType": "uint256",
          "name": "_gameId",
          "type": "uint256"
        },
        {
          "internalType": "enum IRockPaperScissors.Hand",
          "name": "_move",
          "type": "uint8"
        }
      ],
      "name": "playGame",
      "outputs": [],
      "stateMutability": "payable",
      "type": "function"
    },
    {
      "inputs": [
        {
          "internalType": "address",
          "name": "",
          "type": "address"
        }
      ],
      "name": "playerToId",
      "outputs": [
        {
          "internalType": "uint256",
          "name": "",
          "type": "uint256"
        }
      ],
      "stateMutability": "view",
      "type": "function"
    },
    {
      "inputs": [
        {
          "internalType": "uint256",
          "name": "_gameId",
          "type": "uint256"
        }
      ],
      "name": "quitGame",
      "outputs": [],
      "stateMutability": "nonpayable",
      "type": "function"
    },
    {
      "inputs": [],
      "name": "renounceOwnership",
      "outputs": [],
      "stateMutability": "nonpayable",
      "type": "function"
    },
    {
      "inputs": [],
      "name": "totalPlayerIds",
      "outputs": [
        {
          "internalType": "uint256",
          "name": "",
          "type": "uint256"
        }
      ],
      "stateMutability": "view",
      "type": "function"
    },
    {
      "inputs": [
        {
          "internalType": "address",
          "name": "newOwner",
          "type": "address"
        }
      ],
      "name": "transferOwnership",
      "outputs": [],
      "stateMutability": "nonpayable",
      "type": "function"
    },
    {
      "inputs": [
        {
          "internalType": "address",
          "name": "_tokenContractAddress",
          "type": "address"
        },
        {
          "internalType": "uint256",
          "name": "_amount",
          "type": "uint256"
        }
      ],
      "name": "withdrawERC20Token",
      "outputs": [],
      "stateMutability": "nonpayable",
      "type": "function"
    },
    {
      "inputs": [
        {
          "internalType": "uint256",
          "name": "_amount",
          "type": "uint256"
        }
      ],
      "name": "withdrawEtherBalance",
      "outputs": [],
      "stateMutability": "nonpayable",
      "type": "function"
    },
    {
      "stateMutability": "payable",
      "type": "receive"
    }
  ],
  "transactionHash": "0x3fe6f710b1be0a6d37221e484059b9c521d53ee57d5a86509512e9ca6d0e39de",
  "args": [],
  "solcInputHash": "b421496b273949be7052952765e0d098",
  "bytecode": "0x60806040523480156200001157600080fd5b506200001d3362000023565b62000073565b600080546001600160a01b038381166001600160a01b0319831681178455604051919092169283917f8be0079c531659141344cd1fd0a4f28419497f9722a3daafe3b4186f6b6457e09190a35050565b614f7d80620000836000396000f3fe6080604052600436106101395760003560e01c8063a3a8becd116100ab578063d52304eb1161006f578063d52304eb146103c3578063e46de65e146103d9578063e50e2c2d146103f9578063ea46193e1461040e578063f2fde38b14610421578063face17d8146104415761017c565b8063a3a8becd14610338578063a904cc5314610358578063b313363a14610378578063c04c59471461038e578063cde85e8d146103a35761017c565b806340a9eeff116100fd57806340a9eeff146102785780634894a0c61461028d578063715018a6146102a057806380122bcf146102b55780638da5cb5b146102f0578063928d81c1146103185761017c565b8063117a5b90146101c257806315431a6a1461020157806316f99211146102145780631b76929c146102345780633c4f5a66146102565761017c565b3661017c57341561017a5760405134815233907f88a5966d370b9919b20f3e2c13ff65706f196a4e32cc2c12bf57088f885258749060200160405180910390a25b005b60405162461bcd60e51b815260206004820152601660248201527515dc9bdb99c818d85b1b081d1bc818dbdb9d1c9858dd60521b60448201526064015b60405180910390fd5b3480156101ce57600080fd5b506101e26101dd36600461487d565b610461565b6040516101f89a99989796959493929190614d62565b60405180910390f35b61017a61020f366004614912565b6104de565b34801561022057600080fd5b5061017a61022f36600461487d565b610c33565b34801561024057600080fd5b50610249610fb3565b6040516101f89190614ab0565b34801561026257600080fd5b5061026b611253565b6040516101f89190614a63565b34801561028457600080fd5b50610249611c59565b61017a61029b366004614846565b611ef4565b3480156102ac57600080fd5b5061017a61221c565b3480156102c157600080fd5b506102e26102d03660046147d8565b60026020526000908152604090205481565b6040519081526020016101f8565b3480156102fc57600080fd5b506000546040516001600160a01b0390911681526020016101f8565b34801561032457600080fd5b5061017a6103333660046147fa565b612252565b34801561034457600080fd5b5061017a610353366004614896565b612304565b34801561036457600080fd5b5061017a61037336600461487d565b612bd8565b34801561038457600080fd5b506102e260055481565b34801561039a57600080fd5b50610249612ce5565b3480156103af57600080fd5b506102496103be3660046147d8565b612e43565b3480156103cf57600080fd5b506102e260045481565b3480156103e557600080fd5b506102496103f43660046147d8565b61316c565b34801561040557600080fd5b5061026b6135ab565b34801561041a57600080fd5b50476102e2565b34801561042d57600080fd5b5061017a61043c3660046147d8565b6139cd565b34801561044d57600080fd5b5061017a61045c36600461487d565b613a68565b6001818154811061047157600080fd5b6000918252602090912060089091020180546001820154600283015460038401546004850154600586015460068701546007909701549597506001600160a01b03948516969490931694919361ffff909116929160ff80821691610100810482169162010000909104168a565b60015482906000906105025760405162461bcd60e51b81526004016101b990614af3565b60008281526003602052604081205460018054909190811061052657610526614efb565b6000918252602091829020604080516101408101825260089093029091018054835260018101546001600160a01b03908116948401949094526002810154909316908201526003808301546060830152600483015461ffff166080830152600583015460a0830152600683015460c0830152600783015491929160e084019160ff909116908111156105ba576105ba614ecf565b60038111156105cb576105cb614ecf565b81526020016007820160019054906101000a900460ff1660038111156105f3576105f3614ecf565b600381111561060457610604614ecf565b81526020016007820160029054906101000a900460ff16600481111561062c5761062c614ecf565b600481111561063d5761063d614ecf565b81525050905060045483106106645760405162461bcd60e51b81526004016101b990614c56565b805183146106845760405162461bcd60e51b81526004016101b990614bbb565b816106c457600081610120015160048111156106a2576106a2614ecf565b146106bf5760405162461bcd60e51b81526004016101b990614b84565b610857565b81600114156107c057600181610120015160048111156106e6576106e6614ecf565b146107945760005b816101200151600481111561070557610705614ecf565b14156107535760405162461bcd60e51b815260206004820152601860248201527f47616d6520686173206e6f74207374617274656420796574000000000000000060448201526064016101b9565b60405162461bcd60e51b815260206004820152601660248201527511d85b59481a185cc8185b1c9958591e48195b99195960521b60448201526064016101b9565b60208101516001600160a01b031633146106bf5760405162461bcd60e51b81526004016101b990614b2a565b81600214156107f55760408101516001600160a01b031633146106bf5760405162461bcd60e51b81526004016101b990614b57565b6000816101200151600481111561080e5761080e614ecf565b1461082b5760405162461bcd60e51b81526004016101b990614b84565b60208101516001600160a01b031633146108575760405162461bcd60e51b81526004016101b990614b2a565b60008581526003602052604081205460018054909190811061087b5761087b614efb565b6000918252602091829020604080516101408101825260089093029091018054835260018101546001600160a01b03908116948401949094526002810154909316908201526003808301546060830152600483015461ffff166080830152600583015460a0830152600683015460c0830152600783015491929160e084019160ff9091169081111561090f5761090f614ecf565b600381111561092057610920614ecf565b81526020016007820160019054906101000a900460ff16600381111561094857610948614ecf565b600381111561095957610959614ecf565b81526020016007820160029054906101000a900460ff16600481111561098157610981614ecf565b600481111561099257610992614ecf565b815250509050348160600151146109de5760405162461bcd60e51b815260206004820152601060248201526f15dc9bdb99c8195d1a195c881cd95b9d60821b60448201526064016101b9565b60008560038111156109f2576109f2614ecf565b1415610a2f5760405162461bcd60e51b815260206004820152600c60248201526b496e76616c6964206d6f766560a01b60448201526064016101b9565b3360408201524260a08201526101008101856003811115610a5257610a52614ecf565b90816003811115610a6557610a65614ecf565b905250600161012082018190526000878152600360205260409020548154839291908110610a9557610a95614efb565b6000918252602091829020835160089092020190815590820151600180830180546001600160a01b039384166001600160a01b0319918216179091556040850151600285018054919094169116179091556060830151600380840191909155608084015160048401805461ffff90921661ffff1990921691909117905560a0840151600584015560c0840151600684015560e08401516007840180549193909260ff19909216918490811115610b4d57610b4d614ecf565b0217905550610100828101516007830180549192909161ff00191690836003811115610b7b57610b7b614ecf565b021790555061012082015160078201805462ff0000191662010000836004811115610ba857610ba8614ecf565b021790555090505085336001600160a01b03167fb81ccc3028607aea1921703d7e683d2ada18e8206360192395f810c94cbc006b83604051610bea9190614cba565b60405180910390a333600090815260026020526040902054610c2b57600560008154610c1590614e6e565b9182905550336000908152600260205260409020555b505050505050565b6001548190600390610c575760405162461bcd60e51b81526004016101b990614af3565b600082815260036020526040812054600180549091908110610c7b57610c7b614efb565b6000918252602091829020604080516101408101825260089093029091018054835260018101546001600160a01b03908116948401949094526002810154909316908201526003808301546060830152600483015461ffff166080830152600583015460a0830152600683015460c0830152600783015491929160e084019160ff90911690811115610d0f57610d0f614ecf565b6003811115610d2057610d20614ecf565b81526020016007820160019054906101000a900460ff166003811115610d4857610d48614ecf565b6003811115610d5957610d59614ecf565b81526020016007820160029054906101000a900460ff166004811115610d8157610d81614ecf565b6004811115610d9257610d92614ecf565b8152505090506004548310610db95760405162461bcd60e51b81526004016101b990614c56565b80518314610dd95760405162461bcd60e51b81526004016101b990614bbb565b81610e195760008161012001516004811115610df757610df7614ecf565b14610e145760405162461bcd60e51b81526004016101b990614b84565b610f0a565b8160011415610e735760018161012001516004811115610e3b57610e3b614ecf565b14610e475760006106ee565b60208101516001600160a01b03163314610e145760405162461bcd60e51b81526004016101b990614b2a565b8160021415610ea85760408101516001600160a01b03163314610e145760405162461bcd60e51b81526004016101b990614b57565b60008161012001516004811115610ec157610ec1614ecf565b14610ede5760405162461bcd60e51b81526004016101b990614b84565b60208101516001600160a01b03163314610f0a5760405162461bcd60e51b81526004016101b990614b2a565b600084815260036020526040812054600180549091908110610f2e57610f2e614efb565b9060005260206000209060080201600301549050610f4b85614126565b604051600090339083908381818185875af1925050503d8060008114610f8d576040519150601f19603f3d011682016040523d82523d6000602084013e610f92565b606091505b5050905080610c2b5760405162461bcd60e51b81526004016101b990614c83565b60606000805b60015481101561102d57600060018281548110610fd857610fd8614efb565b906000526020600020906008020160070160029054906101000a900460ff16600481111561100857611008614ecf565b1461101b578161101781614e6e565b9250505b8061102581614e6e565b915050610fb9565b5060008167ffffffffffffffff81111561104957611049614f11565b60405190808252806020026020018201604052801561108257816020015b61106f61476a565b8152602001906001900390816110675790505b5090506000915060005b60015481101561124c576000600182815481106110ab576110ab614efb565b906000526020600020906008020160070160029054906101000a900460ff1660048111156110db576110db614ecf565b1461123a57600181815481106110f3576110f3614efb565b6000918252602091829020604080516101408101825260089093029091018054835260018101546001600160a01b03908116948401949094526002810154909316908201526003808301546060830152600483015461ffff166080830152600583015460a0830152600683015460c0830152600783015491929160e084019160ff9091169081111561118757611187614ecf565b600381111561119857611198614ecf565b81526020016007820160019054906101000a900460ff1660038111156111c0576111c0614ecf565b60038111156111d1576111d1614ecf565b81526020016007820160029054906101000a900460ff1660048111156111f9576111f9614ecf565b600481111561120a5761120a614ecf565b8152505082848151811061122057611220614efb565b6020026020010181905250828061123690614e6e565b9350505b8061124481614e6e565b91505061108c565b5092915050565b60606000805b60015481101561132957600180828154811061127757611277614efb565b906000526020600020906008020160070160029054906101000a900460ff1660048111156112a7576112a7614ecf565b14156112bf576112b8600283614dd8565b9150611317565b6000600182815481106112d4576112d4614efb565b906000526020600020906008020160070160029054906101000a900460ff16600481111561130457611304614ecf565b14611317578161131381614e6e565b9250505b8061132181614e6e565b915050611259565b5060008167ffffffffffffffff81111561134557611345614f11565b60405190808252806020026020018201604052801561136e578160200160208202803683370190505b509050600091506000806000805b6001548110156117c257600180828154811061139a5761139a614efb565b906000526020600020906008020160070160029054906101000a900460ff1660048111156113ca576113ca614ecf565b1480156114395750600181815481106113e5576113e5614efb565b6000918252602090912060026008909202010154600180546001600160a01b03909216918390811061141957611419614efb565b60009182526020909120600160089092020101546001600160a01b031614155b15611651576001818154811061145157611451614efb565b906000526020600020906008020160010160009054906101000a90046001600160a01b031685878151811061148857611488614efb565b6001600160a01b0390921660209283029190910190910152856114aa81614e6e565b965050600181815481106114c0576114c0614efb565b906000526020600020906008020160020160009054906101000a90046001600160a01b03168587815181106114f7576114f7614efb565b6001600160a01b03909216602092830291909101909101528561151981614e6e565b96505060005b86811015611615576001828154811061153a5761153a614efb565b600091825260209091206001600890920201015486516001600160a01b039091169087908390811061156e5761156e614efb565b60200260200101516001600160a01b03161415611597578361158f81614e6e565b945050611603565b600182815481106115aa576115aa614efb565b600091825260209091206002600890920201015486516001600160a01b03909116908790839081106115de576115de614efb565b60200260200101516001600160a01b0316141561160357826115ff81614e6e565b9350505b8061160d81614e6e565b91505061151f565b50826001141561162d578361162981614e6e565b9450505b8160011415611644578361164081614e6e565b9450505b60009250600091506117b0565b60006001828154811061166657611666614efb565b906000526020600020906008020160070160029054906101000a900460ff16600481111561169657611696614ecf565b146117b057600181815481106116ae576116ae614efb565b906000526020600020906008020160020160009054906101000a90046001600160a01b03168587815181106116e5576116e5614efb565b6001600160a01b03909216602092830291909101909101528561170781614e6e565b96505060005b86811015611793576001828154811061172857611728614efb565b600091825260209091206002600890920201015486516001600160a01b039091169087908390811061175c5761175c614efb565b60200260200101516001600160a01b03161415611781578261177d81614e6e565b9350505b8061178b81614e6e565b91505061170d565b5081600114156117ab57836117a781614e6e565b9450505b600091505b806117ba81614e6e565b91505061137c565b5060008367ffffffffffffffff8111156117de576117de614f11565b604051908082528060200260200182016040528015611807578160200160208202803683370190505b509050600095506000935060005b600154811015611c4e57600180828154811061183357611833614efb565b906000526020600020906008020160070160029054906101000a900460ff16600481111561186357611863614ecf565b1480156118d257506001818154811061187e5761187e614efb565b6000918252602090912060026008909202010154600180546001600160a01b0390921691839081106118b2576118b2614efb565b60009182526020909120600160089092020101546001600160a01b031614155b15611add576118e2600288614dd8565b965060005b878110156119dd576001828154811061190257611902614efb565b600091825260209091206001600890920201015487516001600160a01b039091169088908390811061193657611936614efb565b60200260200101516001600160a01b0316141561195f578461195781614e6e565b9550506119cb565b6001828154811061197257611972614efb565b600091825260209091206002600890920201015487516001600160a01b03909116908890839081106119a6576119a6614efb565b60200260200101516001600160a01b031614156119cb57836119c781614e6e565b9450505b806119d581614e6e565b9150506118e7565b508360011415611a5757600181815481106119fa576119fa614efb565b906000526020600020906008020160010160009054906101000a90046001600160a01b0316828681518110611a3157611a31614efb565b6001600160a01b039092166020928302919091019091015284611a5381614e6e565b9550505b8260011415611ad05760018181548110611a7357611a73614efb565b906000526020600020906008020160020160009054906101000a90046001600160a01b0316828681518110611aaa57611aaa614efb565b6001600160a01b039092166020928302919091019091015284611acc81614e6e565b9550505b6000935060009250611c3c565b600060018281548110611af257611af2614efb565b906000526020600020906008020160070160029054906101000a900460ff166004811115611b2257611b22614ecf565b14611c3c5786611b3181614e6e565b97505060005b87811015611bbd5760018281548110611b5257611b52614efb565b600091825260209091206002600890920201015487516001600160a01b0390911690889083908110611b8657611b86614efb565b60200260200101516001600160a01b03161415611bab5783611ba781614e6e565b9450505b80611bb581614e6e565b915050611b37565b508260011415611c375760018181548110611bda57611bda614efb565b906000526020600020906008020160020160009054906101000a90046001600160a01b0316828681518110611c1157611c11614efb565b6001600160a01b039092166020928302919091019091015284611c3381614e6e565b9550505b600092505b80611c4681614e6e565b915050611815565b509695505050505050565b60606000805b600154811015611cd457600060018281548110611c7e57611c7e614efb565b906000526020600020906008020160070160029054906101000a900460ff166004811115611cae57611cae614ecf565b1415611cc25781611cbe81614e6e565b9250505b80611ccc81614e6e565b915050611c5f565b5060008167ffffffffffffffff811115611cf057611cf0614f11565b604051908082528060200260200182016040528015611d2957816020015b611d1661476a565b815260200190600190039081611d0e5790505b5090506000915060005b60015481101561124c57600060018281548110611d5257611d52614efb565b906000526020600020906008020160070160029054906101000a900460ff166004811115611d8257611d82614ecf565b1415611ee25760018181548110611d9b57611d9b614efb565b6000918252602091829020604080516101408101825260089093029091018054835260018101546001600160a01b03908116948401949094526002810154909316908201526003808301546060830152600483015461ffff166080830152600583015460a0830152600683015460c0830152600783015491929160e084019160ff90911690811115611e2f57611e2f614ecf565b6003811115611e4057611e40614ecf565b81526020016007820160019054906101000a900460ff166003811115611e6857611e68614ecf565b6003811115611e7957611e79614ecf565b81526020016007820160029054906101000a900460ff166004811115611ea157611ea1614ecf565b6004811115611eb257611eb2614ecf565b81525050828481518110611ec857611ec8614efb565b60200260200101819052508280611ede90614e6e565b9350505b80611eec81614e6e565b915050611d33565b6001600160ff1b03341115611f405760405162461bcd60e51b81526020600482015260126024820152715468652062657420697320746f6f2062696760701b60448201526064016101b9565b611f4861476a565b60048054906000611f5883614e6e565b90915550808252336020808401918252346060850190815261ffff8681166080870190815260c087018981526001805460009889526003968790526040808a2082905581830183559882905289517fb10e2d527612073b26eecdfd717e6a320cf44b4afac2b0732d9fcbe2b7fa0cf6600890920291820190815597517fb10e2d527612073b26eecdfd717e6a320cf44b4afac2b0732d9fcbe2b7fa0cf7820180546001600160a01b03199081166001600160a01b0393841617909155998b01517fb10e2d527612073b26eecdfd717e6a320cf44b4afac2b0732d9fcbe2b7fa0cf883018054909b1691161790985593517fb10e2d527612073b26eecdfd717e6a320cf44b4afac2b0732d9fcbe2b7fa0cf988015590517fb10e2d527612073b26eecdfd717e6a320cf44b4afac2b0732d9fcbe2b7fa0cfa8701805461ffff1916919093161790915560a08601517fb10e2d527612073b26eecdfd717e6a320cf44b4afac2b0732d9fcbe2b7fa0cfb860155517fb10e2d527612073b26eecdfd717e6a320cf44b4afac2b0732d9fcbe2b7fa0cfc85015560e08501517fb10e2d527612073b26eecdfd717e6a320cf44b4afac2b0732d9fcbe2b7fa0cfd9094018054869593919260ff1990911691849081111561213657612136614ecf565b0217905550610100828101516007830180549192909161ff0019169083600381111561216457612164614ecf565b021790555061012082015160078201805462ff000019166201000083600481111561219157612191614ecf565b021790555050508060000151336001600160a01b03167ff3d4e32e9e2cf3e4d2a4a7b0a24cd138ede4ff48011d38d9e01d603e566dd5bf836040516121d69190614cba565b60405180910390a3336000908152600260205260409020546122175760056000815461220190614e6e565b9182905550336000908152600260205260409020555b505050565b6000546001600160a01b031633146122465760405162461bcd60e51b81526004016101b990614c21565b6122506000614405565b565b6000546001600160a01b0316331461227c5760405162461bcd60e51b81526004016101b990614c21565b60405163a9059cbb60e01b81523360048201526024810182905282906001600160a01b0382169063a9059cbb90604401602060405180830381600087803b1580156122c657600080fd5b505af11580156122da573d6000803e3d6000fd5b505050506040513d601f19601f820116820180604052508101906122fe9190614824565b50505050565b600180548491906123275760405162461bcd60e51b81526004016101b990614af3565b60008281526003602052604081205460018054909190811061234b5761234b614efb565b6000918252602091829020604080516101408101825260089093029091018054835260018101546001600160a01b03908116948401949094526002810154909316908201526003808301546060830152600483015461ffff166080830152600583015460a0830152600683015460c0830152600783015491929160e084019160ff909116908111156123df576123df614ecf565b60038111156123f0576123f0614ecf565b81526020016007820160019054906101000a900460ff16600381111561241857612418614ecf565b600381111561242957612429614ecf565b81526020016007820160029054906101000a900460ff16600481111561245157612451614ecf565b600481111561246257612462614ecf565b81525050905060045483106124895760405162461bcd60e51b81526004016101b990614c56565b805183146124a95760405162461bcd60e51b81526004016101b990614bbb565b816124e957600081610120015160048111156124c7576124c7614ecf565b146124e45760405162461bcd60e51b81526004016101b990614b84565b6125da565b8160011415612543576001816101200151600481111561250b5761250b614ecf565b146125175760006106ee565b60208101516001600160a01b031633146124e45760405162461bcd60e51b81526004016101b990614b2a565b81600214156125785760408101516001600160a01b031633146124e45760405162461bcd60e51b81526004016101b990614b57565b6000816101200151600481111561259157612591614ecf565b146125ae5760405162461bcd60e51b81526004016101b990614b84565b60208101516001600160a01b031633146125da5760405162461bcd60e51b81526004016101b990614b2a565b60006125e7878787614455565b9050806101000151600381111561260057612600614ecf565b8160e00151600381111561261657612616614ecf565b141561280457600461012082015260008781526003602052604090205460018054839290811061264857612648614efb565b6000918252602091829020835160089092020190815590820151600180830180546001600160a01b039384166001600160a01b0319918216179091556040850151600285018054919094169116179091556060830151600380840191909155608084015160048401805461ffff90921661ffff1990921691909117905560a0840151600584015560c0840151600684015560e08401516007840180549193909260ff1990921691849081111561270057612700614ecf565b0217905550610100828101516007830180549192909161ff0019169083600381111561272e5761272e614ecf565b021790555061012082015160078201805462ff000019166201000083600481111561275b5761275b614ecf565b021790555090505086336001600160a01b0316600080516020614f288339815191528360405161278b9190614cba565b60405180910390a3606081015160405160009133918381818185875af1925050503d80600081146127d8576040519150601f19603f3d011682016040523d82523d6000602084013e6127dd565b606091505b50509050806127fe5760405162461bcd60e51b81526004016101b990614c83565b50612bcf565b6003816101000151600381111561281d5761281d614ecf565b8260e00151600381111561283357612833614ecf565b61283e906003614df0565b6128489190614e4b565b6128529190614e89565b60ff1660011415612a5457600261012082015260008781526003602052604090205460018054839290811061288957612889614efb565b6000918252602091829020835160089092020190815590820151600180830180546001600160a01b039384166001600160a01b0319918216179091556040850151600285018054919094169116179091556060830151600380840191909155608084015160048401805461ffff90921661ffff1990921691909117905560a0840151600584015560c0840151600684015560e08401516007840180549193909260ff1990921691849081111561294157612941614ecf565b0217905550610100828101516007830180549192909161ff0019169083600381111561296f5761296f614ecf565b021790555061012082015160078201805462ff000019166201000083600481111561299c5761299c614ecf565b021790555090505086336001600160a01b0316600080516020614f28833981519152836040516129cc9190614cba565b60405180910390a36129dd87614126565b606081015160009033906129f2906002614e15565b604051600081818185875af1925050503d8060008114612a2e576040519150601f19603f3d011682016040523d82523d6000602084013e612a33565b606091505b50509050806127fe5760405162461bcd60e51b81526004016101b990614bea565b6003610120820181905250600087815260036020526040902054600180548392908110612a8357612a83614efb565b6000918252602091829020835160089092020190815590820151600180830180546001600160a01b039384166001600160a01b0319918216179091556040850151600285018054919094169116179091556060830151600380840191909155608084015160048401805461ffff90921661ffff1990921691909117905560a0840151600584015560c0840151600684015560e08401516007840180549193909260ff19909216918490811115612b3b57612b3b614ecf565b0217905550610100828101516007830180549192909161ff00191690836003811115612b6957612b69614ecf565b021790555061012082015160078201805462ff0000191662010000836004811115612b9657612b96614ecf565b021790555090505086336001600160a01b0316600080516020614f2883398151915283604051612bc69190614cba565b60405180910390a35b50505050505050565b6000546001600160a01b03163314612c025760405162461bcd60e51b81526004016101b990614c21565b80471015612c525760405162461bcd60e51b815260206004820152601d60248201527f496e73756666696369656e7420657468657220696e2062616c616e636500000060448201526064016101b9565b604051600090339083908381818185875af1925050503d8060008114612c94576040519150601f19603f3d011682016040523d82523d6000602084013e612c99565b606091505b5050905080612ce15760405162461bcd60e51b81526020600482015260146024820152732330b4b632b2103a379039b2b7321032ba3432b960611b60448201526064016101b9565b5050565b60606001805480602002602001604051908101604052809291908181526020016000905b82821015612e3a5760008481526020908190206040805161014081018252600886029092018054835260018101546001600160a01b03908116948401949094526002810154909316908201526003808301546060830152600483015461ffff166080830152600583015460a0830152600683015460c0830152600783015491929160e084019160ff90911690811115612da457612da4614ecf565b6003811115612db557612db5614ecf565b81526020016007820160019054906101000a900460ff166003811115612ddd57612ddd614ecf565b6003811115612dee57612dee614ecf565b81526020016007820160029054906101000a900460ff166004811115612e1657612e16614ecf565b6004811115612e2757612e27614ecf565b8152505081526020019060010190612d09565b50505050905090565b60606000805b600154811015612f0157600060018281548110612e6857612e68614efb565b906000526020600020906008020160070160029054906101000a900460ff166004811115612e9857612e98614ecf565b148015612edc5750836001600160a01b031660018281548110612ebd57612ebd614efb565b60009182526020909120600160089092020101546001600160a01b0316145b15612eef5781612eeb81614e6e565b9250505b80612ef981614e6e565b915050612e49565b5060008167ffffffffffffffff811115612f1d57612f1d614f11565b604051908082528060200260200182016040528015612f5657816020015b612f4361476a565b815260200190600190039081612f3b5790505b5090506000915060005b60015481101561316457600060018281548110612f7f57612f7f614efb565b906000526020600020906008020160070160029054906101000a900460ff166004811115612faf57612faf614ecf565b148015612ff35750846001600160a01b031660018281548110612fd457612fd4614efb565b60009182526020909120600160089092020101546001600160a01b0316145b15613152576001818154811061300b5761300b614efb565b6000918252602091829020604080516101408101825260089093029091018054835260018101546001600160a01b03908116948401949094526002810154909316908201526003808301546060830152600483015461ffff166080830152600583015460a0830152600683015460c0830152600783015491929160e084019160ff9091169081111561309f5761309f614ecf565b60038111156130b0576130b0614ecf565b81526020016007820160019054906101000a900460ff1660038111156130d8576130d8614ecf565b60038111156130e9576130e9614ecf565b81526020016007820160029054906101000a900460ff16600481111561311157613111614ecf565b600481111561312257613122614ecf565b8152505082848151811061313857613138614efb565b6020026020010181905250828061314e90614e6e565b9350505b8061315c81614e6e565b915050612f60565b509392505050565b60606000805b6001548110156132b957600180828154811061319057613190614efb565b906000526020600020906008020160070160029054906101000a900460ff1660048111156131c0576131c0614ecf565b1480156132045750836001600160a01b0316600182815481106131e5576131e5614efb565b60009182526020909120600160089092020101546001600160a01b0316145b80613294575060006001828154811061321f5761321f614efb565b906000526020600020906008020160070160029054906101000a900460ff16600481111561324f5761324f614ecf565b141580156132945750836001600160a01b03166001828154811061327557613275614efb565b60009182526020909120600260089092020101546001600160a01b0316145b156132a757816132a381614e6e565b9250505b806132b181614e6e565b915050613172565b5060008167ffffffffffffffff8111156132d5576132d5614f11565b60405190808252806020026020018201604052801561330e57816020015b6132fb61476a565b8152602001906001900390816132f35790505b5090506000915060005b60015481101561316457600180828154811061333657613336614efb565b906000526020600020906008020160070160029054906101000a900460ff16600481111561336657613366614ecf565b1480156133aa5750846001600160a01b03166001828154811061338b5761338b614efb565b60009182526020909120600160089092020101546001600160a01b0316145b8061343a57506000600182815481106133c5576133c5614efb565b906000526020600020906008020160070160029054906101000a900460ff1660048111156133f5576133f5614ecf565b1415801561343a5750846001600160a01b03166001828154811061341b5761341b614efb565b60009182526020909120600260089092020101546001600160a01b0316145b15613599576001818154811061345257613452614efb565b6000918252602091829020604080516101408101825260089093029091018054835260018101546001600160a01b03908116948401949094526002810154909316908201526003808301546060830152600483015461ffff166080830152600583015460a0830152600683015460c0830152600783015491929160e084019160ff909116908111156134e6576134e6614ecf565b60038111156134f7576134f7614ecf565b81526020016007820160019054906101000a900460ff16600381111561351f5761351f614ecf565b600381111561353057613530614ecf565b81526020016007820160029054906101000a900460ff16600481111561355857613558614ecf565b600481111561356957613569614ecf565b8152505082848151811061357f5761357f614efb565b6020026020010181905250828061359590614e6e565b9350505b806135a381614e6e565b915050613318565b60606000805b600154811015613626576000600182815481106135d0576135d0614efb565b906000526020600020906008020160070160029054906101000a900460ff16600481111561360057613600614ecf565b1415613614578161361081614e6e565b9250505b8061361e81614e6e565b9150506135b1565b5060008167ffffffffffffffff81111561364257613642614f11565b60405190808252806020026020018201604052801561366b578160200160208202803683370190505b5090506000915060008060005b6001548110156137f45760006001828154811061369757613697614efb565b906000526020600020906008020160070160029054906101000a900460ff1660048111156136c7576136c7614ecf565b14156137e257600181815481106136e0576136e0614efb565b906000526020600020906008020160010160009054906101000a90046001600160a01b031684868151811061371757613717614efb565b6001600160a01b03909216602092830291909101909101528461373981614e6e565b95505060005b858110156137c5576001828154811061375a5761375a614efb565b600091825260209091206001600890920201015485516001600160a01b039091169086908390811061378e5761378e614efb565b60200260200101516001600160a01b031614156137b357826137af81614e6e565b9350505b806137bd81614e6e565b91505061373f565b5081600114156137dd57826137d981614e6e565b9350505b600091505b806137ec81614e6e565b915050613678565b5060008267ffffffffffffffff81111561381057613810614f11565b604051908082528060200260200182016040528015613839578160200160208202803683370190505b509050600094506000925060005b6001548110156139c35760006001828154811061386657613866614efb565b906000526020600020906008020160070160029054906101000a900460ff16600481111561389657613896614ecf565b14156139b157856138a681614e6e565b96505060005b8681101561393257600182815481106138c7576138c7614efb565b600091825260209091206001600890920201015486516001600160a01b03909116908790839081106138fb576138fb614efb565b60200260200101516001600160a01b03161415613920578361391c81614e6e565b9450505b8061392a81614e6e565b9150506138ac565b5082600114156139ac576001818154811061394f5761394f614efb565b906000526020600020906008020160010160009054906101000a90046001600160a01b031682858151811061398657613986614efb565b6001600160a01b0390921660209283029190910190910152836139a881614e6e565b9450505b600092505b806139bb81614e6e565b915050613847565b5095945050505050565b6000546001600160a01b031633146139f75760405162461bcd60e51b81526004016101b990614c21565b6001600160a01b038116613a5c5760405162461bcd60e51b815260206004820152602660248201527f4f776e61626c653a206e6577206f776e657220697320746865207a65726f206160448201526564647265737360d01b60648201526084016101b9565b613a6581614405565b50565b6001548190600290613a8c5760405162461bcd60e51b81526004016101b990614af3565b600082815260036020526040812054600180549091908110613ab057613ab0614efb565b6000918252602091829020604080516101408101825260089093029091018054835260018101546001600160a01b03908116948401949094526002810154909316908201526003808301546060830152600483015461ffff166080830152600583015460a0830152600683015460c0830152600783015491929160e084019160ff90911690811115613b4457613b44614ecf565b6003811115613b5557613b55614ecf565b81526020016007820160019054906101000a900460ff166003811115613b7d57613b7d614ecf565b6003811115613b8e57613b8e614ecf565b81526020016007820160029054906101000a900460ff166004811115613bb657613bb6614ecf565b6004811115613bc757613bc7614ecf565b8152505090506004548310613bee5760405162461bcd60e51b81526004016101b990614c56565b80518314613c0e5760405162461bcd60e51b81526004016101b990614bbb565b81613c4e5760008161012001516004811115613c2c57613c2c614ecf565b14613c495760405162461bcd60e51b81526004016101b990614b84565b613d3f565b8160011415613ca85760018161012001516004811115613c7057613c70614ecf565b14613c7c5760006106ee565b60208101516001600160a01b03163314613c495760405162461bcd60e51b81526004016101b990614b2a565b8160021415613cdd5760408101516001600160a01b03163314613c495760405162461bcd60e51b81526004016101b990614b57565b60008161012001516004811115613cf657613cf6614ecf565b14613d135760405162461bcd60e51b81526004016101b990614b84565b60208101516001600160a01b03163314613d3f5760405162461bcd60e51b81526004016101b990614b2a565b600084815260036020526040812054600180549091908110613d6357613d63614efb565b9060005260206000209060080201905060006001600360008881526020019081526020016000205481548110613d9b57613d9b614efb565b6000918252602091829020604080516101408101825260089093029091018054835260018101546001600160a01b03908116948401949094526002810154909316908201526003808301546060830152600483015461ffff166080830152600583015460a0830152600683015460c0830152600783015491929160e084019160ff90911690811115613e2f57613e2f614ecf565b6003811115613e4057613e40614ecf565b81526020016007820160019054906101000a900460ff166003811115613e6857613e68614ecf565b6003811115613e7957613e79614ecf565b81526020016007820160029054906101000a900460ff166004811115613ea157613ea1614ecf565b6004811115613eb257613eb2614ecf565b905250905060048161012001516004811115613ed057613ed0614ecf565b1415613f5057613edf86614126565b606081015160405160009133918381818185875af1925050503d8060008114613f24576040519150601f19603f3d011682016040523d82523d6000602084013e613f29565b606091505b5050905080613f4a5760405162461bcd60e51b81526004016101b990614c83565b50610c2b565b60018161012001516004811115613f6957613f69614ecf565b14156140a657806080015161ffff168160a00151613f879190614dd8565b421015613fe95760405162461bcd60e51b815260206004820152602a60248201527f506c617965722031207374696c6c206861732074696d6520746f2072657665616044820152696c20686973206d6f766560b01b60648201526084016101b9565b60078201805462ff000019166203000017905560405186903390600080516020614f288339815191529061401e908690614ccf565b60405180910390a361402f86614126565b60608101516000903390614044906002614e15565b604051600081818185875af1925050503d8060008114614080576040519150601f19603f3d011682016040523d82523d6000602084013e614085565b606091505b5050905080613f4a5760405162461bcd60e51b81526004016101b990614bea565b6140af86614126565b606081015160009033906140c4906002614e15565b604051600081818185875af1925050503d8060008114614100576040519150601f19603f3d011682016040523d82523d6000602084013e614105565b606091505b5050905080612bcf5760405162461bcd60e51b81526004016101b990614bea565b60008181526003602052604081205460018054909190811061414a5761414a614efb565b9060005260206000209060080201905081336001600160a01b03167f81cf2674e2557b44d18f70b50c2b4d34408780e31ec724ee6ed65b749273167b836040516141949190614ccf565b60405180910390a3600180546141ab908290614e34565b815481106141bb576141bb614efb565b906000526020600020906008020160016003600085815260200190815260200160002054815481106141ef576141ef614efb565b60009182526020909120825460089092020190815560018083015481830180546001600160a01b03199081166001600160a01b03938416179091556002808601549085018054909216921691909117905560038084015481840155600480850154908401805461ffff191661ffff9092169190911790556005808501549084015560068085015490840155600780850154908401805460ff90921693909260ff199092169184908111156142a5576142a5614ecf565b0217905550600782810154908201805460ff61010093849004169261ff0019909116908360038111156142da576142da614ecf565b0217905550600782810154908201805460ff6201000093849004169262ff0000199091169083600481111561431157614311614ecf565b0217905550505060008281526003602081905260408220546001805491939161433b908290614e34565b8154811061434b5761434b614efb565b9060005260206000209060080201600001548152602001908152602001600020819055506003600083815260200190815260200160002060009055600180548061439757614397614ee5565b6000828152602081206008600019909301928302018181556001810180546001600160a01b031990811690915560028201805490911690556003810182905560048101805461ffff19169055600581018290556006810191909155600701805462ffffff1916905590555050565b600080546001600160a01b038381166001600160a01b0319831681178455604051919092169283917f8be0079c531659141344cd1fd0a4f28419497f9722a3daafe3b4186f6b6457e09190a35050565b61445d61476a565b60008481526003602052604081205460018054909190811061448157614481614efb565b6000918252602091829020604080516101408101825260089093029091018054835260018101546001600160a01b03908116948401949094526002810154909316908201526003808301546060830152600483015461ffff166080830152600583015460a0830152600683015460c0830152600783015491929160e084019160ff9091169081111561451557614515614ecf565b600381111561452657614526614ecf565b81526020016007820160019054906101000a900460ff16600381111561454e5761454e614ecf565b600381111561455f5761455f614ecf565b81526020016007820160029054906101000a900460ff16600481111561458757614587614ecf565b600481111561459857614598614ecf565b8152505090508060c00151600185856040516020016145b993929190614a42565b60405160208183030381529060405280519060200120148061460957508060c00151848460016040516020016145f193929190614a1f565b60405160208183030381529060405280519060200120145b156146305760e0810160015b9081600381111561462857614628614ecf565b905250614762565b8060c001516002858560405160200161464b93929190614a42565b60405160208183030381529060405280519060200120148061469b57508060c001518484600260405160200161468393929190614a1f565b60405160208183030381529060405280519060200120145b156146ab5760e081016002614615565b8060c00151600385856040516020016146c693929190614a42565b60405160208183030381529060405280519060200120148061471657508060c00151848460036040516020016146fe93929190614a1f565b60405160208183030381529060405280519060200120145b156147265760e081016003614615565b60405162461bcd60e51b8152602060048201526011602482015270111958dc9e5c1d1a5bdb8819985a5b1959607a1b60448201526064016101b9565b949350505050565b6040805161014081018252600080825260208201819052918101829052606081018290526080810182905260a0810182905260c081018290529060e08201908152602001600081526020016000905290565b80356001600160a01b03811681146147d357600080fd5b919050565b6000602082840312156147ea57600080fd5b6147f3826147bc565b9392505050565b6000806040838503121561480d57600080fd5b614816836147bc565b946020939093013593505050565b60006020828403121561483657600080fd5b815180151581146147f357600080fd5b6000806040838503121561485957600080fd5b82359150602083013561ffff8116811461487257600080fd5b809150509250929050565b60006020828403121561488f57600080fd5b5035919050565b6000806000604084860312156148ab57600080fd5b83359250602084013567ffffffffffffffff808211156148ca57600080fd5b818601915086601f8301126148de57600080fd5b8135818111156148ed57600080fd5b8760208285010111156148ff57600080fd5b6020830194508093505050509250925092565b6000806040838503121561492557600080fd5b8235915060208301356004811061487257600080fd5b6004811061494b5761494b614ecf565b9052565b6004811061495f5761495f614ecf565b60f81b9052565b6005811061494b5761494b614ecf565b80518252602081015161499460208401826001600160a01b03169052565b5060408101516149af60408401826001600160a01b03169052565b506060810151606083015260808101516149cf608084018261ffff169052565b5060a081015160a083015260c081015160c083015260e08101516149f660e084018261493b565b5061010080820151614a0a8285018261493b565b5050610120808201516122fe82850182614966565b82848237600083820160008152614a36818561494f565b60010195945050505050565b614a4c818561494f565b818360018301376000910160010190815292915050565b6020808252825182820181905260009190848201906040850190845b81811015614aa45783516001600160a01b031683529284019291840191600101614a7f565b50909695505050505050565b6020808252825182820181905260009190848201906040850190845b81811015614aa457614adf838551614976565b928401926101409290920191600101614acc565b60208082526017908201527f5468652067616d6573206c69737420697320656d707479000000000000000000604082015260600190565b602080825260139082015272506c617965722031206973206e6f7420796f7560681b604082015260600190565b602080825260139082015272506c617965722032206973206e6f7420796f7560681b604082015260600190565b60208082526018908201527f47616d652068617320616c726561647920737461727465640000000000000000604082015260600190565b60208082526015908201527411d85b59481a185cc81899595b8819195b195d1959605a1b604082015260600190565b60208082526019908201527f4661696c656420746f2073656e64207468652072657761726400000000000000604082015260600190565b6020808252818101527f4f776e61626c653a2063616c6c6572206973206e6f7420746865206f776e6572604082015260600190565b60208082526013908201527211d85b5948191bd95cc81b9bdd08195e1a5cdd606a1b604082015260600190565b6020808252601b908201527f4661696c656420746f2073656e642074686520626574206261636b0000000000604082015260600190565b6101408101614cc98284614976565b92915050565b8154815260018201546001600160a01b039081166020830152600283015416604082015260038201546060820152600482015461ffff166080820152600582015460a0820152600682015460c08201526007820154610140820190614d3a60e0840160ff831661493b565b614d4e610100840160ff8360081c1661493b565b61124c610120840160ff8360101c16614966565b8a81526001600160a01b038a81166020830152891660408201526060810188905261ffff8716608082015260a0810186905260c081018590526101408101614dad60e083018661493b565b614dbb61010083018561493b565b614dc9610120830184614966565b9b9a5050505050505050505050565b60008219821115614deb57614deb614eb9565b500190565b600060ff821660ff84168060ff03821115614e0d57614e0d614eb9565b019392505050565b6000816000190483118215151615614e2f57614e2f614eb9565b500290565b600082821015614e4657614e46614eb9565b500390565b600060ff821660ff841680821015614e6557614e65614eb9565b90039392505050565b6000600019821415614e8257614e82614eb9565b5060010190565b600060ff831680614eaa57634e487b7160e01b600052601260045260246000fd5b8060ff84160691505092915050565b634e487b7160e01b600052601160045260246000fd5b634e487b7160e01b600052602160045260246000fd5b634e487b7160e01b600052603160045260246000fd5b634e487b7160e01b600052603260045260246000fd5b634e487b7160e01b600052604160045260246000fdfe0c8a0eb83f1fa942580c696fa670ec638246f1a368385c788c33d678017e737ba2646970667358221220ca2c67f1a4eb41f6e103a2cd9eb34e0db9be9927a045e2c7c9380f5ca9e2c76e64736f6c63430008070033",
  "devdoc": {
    "kind": "dev",
    "methods": {
      "owner()": {
        "details": "Returns the address of the current owner."
      },
      "renounceOwnership()": {
        "details": "Leaves the contract without owner. It will not be possible to call `onlyOwner` functions anymore. Can only be called by the current owner. NOTE: Renouncing ownership will leave the contract without an owner, thereby removing any functionality that is only available to the owner."
      },
      "transferOwnership(address)": {
        "details": "Transfers ownership of the contract to a new account (`newOwner`). Can only be called by the current owner."
      }
    },
    "version": 1
  },
  "userdoc": {
    "kind": "user",
    "methods": {},
    "version": 1
  },
  "storageLayout": {
    "storage": [
      {
        "astId": 7,
        "contract": "contracts/RockPaperScissors.sol:RockPaperScissors",
        "label": "_owner",
        "offset": 0,
        "slot": "0",
        "type": "t_address"
      },
      {
        "astId": 337,
        "contract": "contracts/RockPaperScissors.sol:RockPaperScissors",
        "label": "games",
        "offset": 0,
        "slot": "1",
        "type": "t_array(t_struct(Game)240_storage)dyn_storage"
      },
      {
        "astId": 341,
        "contract": "contracts/RockPaperScissors.sol:RockPaperScissors",
        "label": "playerToId",
        "offset": 0,
        "slot": "2",
        "type": "t_mapping(t_address,t_uint256)"
      },
      {
        "astId": 345,
        "contract": "contracts/RockPaperScissors.sol:RockPaperScissors",
        "label": "_gameIdToIndex",
        "offset": 0,
        "slot": "3",
        "type": "t_mapping(t_uint256,t_uint256)"
      },
      {
        "astId": 347,
        "contract": "contracts/RockPaperScissors.sol:RockPaperScissors",
        "label": "gamesCreated",
        "offset": 0,
        "slot": "4",
        "type": "t_uint256"
      },
      {
        "astId": 349,
        "contract": "contracts/RockPaperScissors.sol:RockPaperScissors",
        "label": "totalPlayerIds",
        "offset": 0,
        "slot": "5",
        "type": "t_uint256"
      }
    ],
    "types": {
      "t_address": {
        "encoding": "inplace",
        "label": "address",
        "numberOfBytes": "20"
      },
      "t_array(t_struct(Game)240_storage)dyn_storage": {
        "base": "t_struct(Game)240_storage",
        "encoding": "dynamic_array",
        "label": "struct IRockPaperScissors.Game[]",
        "numberOfBytes": "32"
      },
      "t_bytes32": {
        "encoding": "inplace",
        "label": "bytes32",
        "numberOfBytes": "32"
      },
      "t_enum(Hand)210": {
        "encoding": "inplace",
        "label": "enum IRockPaperScissors.Hand",
        "numberOfBytes": "1"
      },
      "t_enum(Status)216": {
        "encoding": "inplace",
        "label": "enum IRockPaperScissors.Status",
        "numberOfBytes": "1"
      },
      "t_mapping(t_address,t_uint256)": {
        "encoding": "mapping",
        "key": "t_address",
        "label": "mapping(address => uint256)",
        "numberOfBytes": "32",
        "value": "t_uint256"
      },
      "t_mapping(t_uint256,t_uint256)": {
        "encoding": "mapping",
        "key": "t_uint256",
        "label": "mapping(uint256 => uint256)",
        "numberOfBytes": "32",
        "value": "t_uint256"
      },
      "t_struct(Game)240_storage": {
        "encoding": "inplace",
        "label": "struct IRockPaperScissors.Game",
        "members": [
          {
            "astId": 218,
            "contract": "contracts/RockPaperScissors.sol:RockPaperScissors",
            "label": "id",
            "offset": 0,
            "slot": "0",
            "type": "t_uint256"
          },
          {
            "astId": 220,
            "contract": "contracts/RockPaperScissors.sol:RockPaperScissors",
            "label": "player1",
            "offset": 0,
            "slot": "1",
            "type": "t_address"
          },
          {
            "astId": 222,
            "contract": "contracts/RockPaperScissors.sol:RockPaperScissors",
            "label": "player2",
            "offset": 0,
            "slot": "2",
            "type": "t_address"
          },
          {
            "astId": 224,
            "contract": "contracts/RockPaperScissors.sol:RockPaperScissors",
            "label": "bet",
            "offset": 0,
            "slot": "3",
            "type": "t_uint256"
          },
          {
            "astId": 226,
            "contract": "contracts/RockPaperScissors.sol:RockPaperScissors",
            "label": "duration",
            "offset": 0,
            "slot": "4",
            "type": "t_uint16"
          },
          {
            "astId": 228,
            "contract": "contracts/RockPaperScissors.sol:RockPaperScissors",
            "label": "timestamp",
            "offset": 0,
            "slot": "5",
            "type": "t_uint256"
          },
          {
            "astId": 230,
            "contract": "contracts/RockPaperScissors.sol:RockPaperScissors",
            "label": "encryptedMove",
            "offset": 0,
            "slot": "6",
            "type": "t_bytes32"
          },
          {
            "astId": 233,
            "contract": "contracts/RockPaperScissors.sol:RockPaperScissors",
            "label": "decryptedMove",
            "offset": 0,
            "slot": "7",
            "type": "t_enum(Hand)210"
          },
          {
            "astId": 236,
            "contract": "contracts/RockPaperScissors.sol:RockPaperScissors",
            "label": "move",
            "offset": 1,
            "slot": "7",
            "type": "t_enum(Hand)210"
          },
          {
            "astId": 239,
            "contract": "contracts/RockPaperScissors.sol:RockPaperScissors",
            "label": "status",
            "offset": 2,
            "slot": "7",
            "type": "t_enum(Status)216"
          }
        ],
        "numberOfBytes": "256"
      },
      "t_uint16": {
        "encoding": "inplace",
        "label": "uint16",
        "numberOfBytes": "2"
      },
      "t_uint256": {
        "encoding": "inplace",
        "label": "uint256",
        "numberOfBytes": "32"
      }
    }
  }
}