{
  "address": "0x9c23859e89b897c65Cc316C9Ac63885656B59b4B",
  "abi": [
    {
      "inputs": [
        {
          "internalType": "address",
          "name": "_rpsContractAddress",
          "type": "address"
        }
      ],
      "stateMutability": "nonpayable",
      "type": "constructor"
    },
    {
      "anonymous": false,
      "inputs": [
        {
          "indexed": true,
          "internalType": "address",
          "name": "_sender",
          "type": "address"
        },
        {
          "indexed": false,
          "internalType": "uint256",
          "name": "_value",
          "type": "uint256"
        }
      ],
      "name": "EtherReceived",
      "type": "event"
    },
    {
      "anonymous": false,
      "inputs": [
        {
          "indexed": true,
          "internalType": "address",
          "name": "_withdrawer",
          "type": "address"
        },
        {
          "indexed": false,
          "internalType": "uint256",
          "name": "_value",
          "type": "uint256"
        }
      ],
      "name": "EtherWithdrawn",
      "type": "event"
    },
    {
      "anonymous": false,
      "inputs": [
        {
          "indexed": true,
          "internalType": "address",
          "name": "_creator",
          "type": "address"
        },
        {
          "indexed": true,
          "internalType": "uint256",
          "name": "_gameId",
          "type": "uint256"
        },
        {
          "components": [
            {
              "internalType": "uint256",
              "name": "id",
              "type": "uint256"
            },
            {
              "internalType": "address",
              "name": "player1",
              "type": "address"
            },
            {
              "internalType": "address",
              "name": "player2",
              "type": "address"
            },
            {
              "internalType": "uint256",
              "name": "bet",
              "type": "uint256"
            },
            {
              "internalType": "uint16",
              "name": "duration",
              "type": "uint16"
            },
            {
              "internalType": "uint256",
              "name": "timestamp",
              "type": "uint256"
            },
            {
              "internalType": "bytes32",
              "name": "encryptedMove",
              "type": "bytes32"
            },
            {
              "internalType": "enum IRockPaperScissors.Hand",
              "name": "decryptedMove",
              "type": "uint8"
            },
            {
              "internalType": "enum IRockPaperScissors.Hand",
              "name": "move",
              "type": "uint8"
            },
            {
              "internalType": "enum IRockPaperScissors.Status",
              "name": "status",
              "type": "uint8"
            }
          ],
          "indexed": false,
          "internalType": "struct IRockPaperScissors.Game",
          "name": "_game",
          "type": "tuple"
        }
      ],
      "name": "GameCreated",
      "type": "event"
    },
    {
      "anonymous": false,
      "inputs": [
        {
          "indexed": true,
          "internalType": "address",
          "name": "_deleter",
          "type": "address"
        },
        {
          "indexed": true,
          "internalType": "uint256",
          "name": "_gameId",
          "type": "uint256"
        },
        {
          "components": [
            {
              "internalType": "uint256",
              "name": "id",
              "type": "uint256"
            },
            {
              "internalType": "address",
              "name": "player1",
              "type": "address"
            },
            {
              "internalType": "address",
              "name": "player2",
              "type": "address"
            },
            {
              "internalType": "uint256",
              "name": "bet",
              "type": "uint256"
            },
            {
              "internalType": "uint16",
              "name": "duration",
              "type": "uint16"
            },
            {
              "internalType": "uint256",
              "name": "timestamp",
              "type": "uint256"
            },
            {
              "internalType": "bytes32",
              "name": "encryptedMove",
              "type": "bytes32"
            },
            {
              "internalType": "enum IRockPaperScissors.Hand",
              "name": "decryptedMove",
              "type": "uint8"
            },
            {
              "internalType": "enum IRockPaperScissors.Hand",
              "name": "move",
              "type": "uint8"
            },
            {
              "internalType": "enum IRockPaperScissors.Status",
              "name": "status",
              "type": "uint8"
            }
          ],
          "indexed": false,
          "internalType": "struct IRockPaperScissors.Game",
          "name": "_game",
          "type": "tuple"
        }
      ],
      "name": "GameDeleted",
      "type": "event"
    },
    {
      "anonymous": false,
      "inputs": [
        {
          "indexed": true,
          "internalType": "address",
          "name": "_ender",
          "type": "address"
        },
        {
          "indexed": true,
          "internalType": "uint256",
          "name": "_gameId",
          "type": "uint256"
        },
        {
          "components": [
            {
              "internalType": "uint256",
              "name": "id",
              "type": "uint256"
            },
            {
              "internalType": "address",
              "name": "player1",
              "type": "address"
            },
            {
              "internalType": "address",
              "name": "player2",
              "type": "address"
            },
            {
              "internalType": "uint256",
              "name": "bet",
              "type": "uint256"
            },
            {
              "internalType": "uint16",
              "name": "duration",
              "type": "uint16"
            },
            {
              "internalType": "uint256",
              "name": "timestamp",
              "type": "uint256"
            },
            {
              "internalType": "bytes32",
              "name": "encryptedMove",
              "type": "bytes32"
            },
            {
              "internalType": "enum IRockPaperScissors.Hand",
              "name": "decryptedMove",
              "type": "uint8"
            },
            {
              "internalType": "enum IRockPaperScissors.Hand",
              "name": "move",
              "type": "uint8"
            },
            {
              "internalType": "enum IRockPaperScissors.Status",
              "name": "status",
              "type": "uint8"
            }
          ],
          "indexed": false,
          "internalType": "struct IRockPaperScissors.Game",
          "name": "_game",
          "type": "tuple"
        }
      ],
      "name": "GameEnded",
      "type": "event"
    },
    {
      "anonymous": false,
      "inputs": [
        {
          "indexed": true,
          "internalType": "address",
          "name": "_starter",
          "type": "address"
        },
        {
          "indexed": true,
          "internalType": "uint256",
          "name": "_gameId",
          "type": "uint256"
        },
        {
          "components": [
            {
              "internalType": "uint256",
              "name": "id",
              "type": "uint256"
            },
            {
              "internalType": "address",
              "name": "player1",
              "type": "address"
            },
            {
              "internalType": "address",
              "name": "player2",
              "type": "address"
            },
            {
              "internalType": "uint256",
              "name": "bet",
              "type": "uint256"
            },
            {
              "internalType": "uint16",
              "name": "duration",
              "type": "uint16"
            },
            {
              "internalType": "uint256",
              "name": "timestamp",
              "type": "uint256"
            },
            {
              "internalType": "bytes32",
              "name": "encryptedMove",
              "type": "bytes32"
            },
            {
              "internalType": "enum IRockPaperScissors.Hand",
              "name": "decryptedMove",
              "type": "uint8"
            },
            {
              "internalType": "enum IRockPaperScissors.Hand",
              "name": "move",
              "type": "uint8"
            },
            {
              "internalType": "enum IRockPaperScissors.Status",
              "name": "status",
              "type": "uint8"
            }
          ],
          "indexed": false,
          "internalType": "struct IRockPaperScissors.Game",
          "name": "_game",
          "type": "tuple"
        }
      ],
      "name": "GameStarted",
      "type": "event"
    },
    {
      "anonymous": false,
      "inputs": [
        {
          "indexed": true,
          "internalType": "address",
          "name": "previousOwner",
          "type": "address"
        },
        {
          "indexed": true,
          "internalType": "address",
          "name": "newOwner",
          "type": "address"
        }
      ],
      "name": "OwnershipTransferred",
      "type": "event"
    },
    {
      "anonymous": false,
      "inputs": [
        {
          "indexed": true,
          "internalType": "address",
          "name": "_minter",
          "type": "address"
        },
        {
          "indexed": false,
          "internalType": "uint256",
          "name": "_amount",
          "type": "uint256"
        }
      ],
      "name": "RPSBought",
      "type": "event"
    },
    {
      "anonymous": false,
      "inputs": [
        {
          "indexed": false,
          "internalType": "uint256",
          "name": "_oldRPSFee",
          "type": "uint256"
        },
        {
          "indexed": false,
          "internalType": "uint256",
          "name": "_newRPSFee",
          "type": "uint256"
        }
      ],
      "name": "RPSFeeChanged",
      "type": "event"
    },
    {
      "anonymous": false,
      "inputs": [
        {
          "indexed": false,
          "internalType": "uint256",
          "name": "_oldRPSPrice",
          "type": "uint256"
        },
        {
          "indexed": false,
          "internalType": "uint256",
          "name": "_newRPSPrice",
          "type": "uint256"
        }
      ],
      "name": "RPSPriceChanged",
      "type": "event"
    },
    {
      "anonymous": false,
      "inputs": [
        {
          "indexed": true,
          "internalType": "address",
          "name": "_burner",
          "type": "address"
        },
        {
          "indexed": false,
          "internalType": "uint256",
          "name": "_amount",
          "type": "uint256"
        }
      ],
      "name": "RPSSold",
      "type": "event"
    },
    {
      "stateMutability": "payable",
      "type": "fallback"
    },
    {
      "inputs": [],
      "name": "buyRPS",
      "outputs": [],
      "stateMutability": "payable",
      "type": "function"
    },
    {
      "inputs": [
        {
          "internalType": "bytes32",
          "name": "_encryptedMove",
          "type": "bytes32"
        },
        {
          "internalType": "uint256",
          "name": "_bet",
          "type": "uint256"
        },
        {
          "internalType": "uint16",
          "name": "_duration",
          "type": "uint16"
        }
      ],
      "name": "createGame",
      "outputs": [],
      "stateMutability": "nonpayable",
      "type": "function"
    },
    {
      "inputs": [
        {
          "internalType": "uint256",
          "name": "_gameId",
          "type": "uint256"
        },
        {
          "internalType": "bytes",
          "name": "_seed",
          "type": "bytes"
        }
      ],
      "name": "endGameAsPlayer1",
      "outputs": [],
      "stateMutability": "nonpayable",
      "type": "function"
    },
    {
      "inputs": [
        {
          "internalType": "uint256",
          "name": "_gameId",
          "type": "uint256"
        }
      ],
      "name": "endGameAsPlayer2",
      "outputs": [],
      "stateMutability": "nonpayable",
      "type": "function"
    },
    {
      "inputs": [
        {
          "internalType": "uint256",
          "name": "",
          "type": "uint256"
        }
      ],
      "name": "games",
      "outputs": [
        {
          "internalType": "uint256",
          "name": "id",
          "type": "uint256"
        },
        {
          "internalType": "address",
          "name": "player1",
          "type": "address"
        },
        {
          "internalType": "address",
          "name": "player2",
          "type": "address"
        },
        {
          "internalType": "uint256",
          "name": "bet",
          "type": "uint256"
        },
        {
          "internalType": "uint16",
          "name": "duration",
          "type": "uint16"
        },
        {
          "internalType": "uint256",
          "name": "timestamp",
          "type": "uint256"
        },
        {
          "internalType": "bytes32",
          "name": "encryptedMove",
          "type": "bytes32"
        },
        {
          "internalType": "enum IRockPaperScissors.Hand",
          "name": "decryptedMove",
          "type": "uint8"
        },
        {
          "internalType": "enum IRockPaperScissors.Hand",
          "name": "move",
          "type": "uint8"
        },
        {
          "internalType": "enum IRockPaperScissors.Status",
          "name": "status",
          "type": "uint8"
        }
      ],
      "stateMutability": "view",
      "type": "function"
    },
    {
      "inputs": [],
      "name": "gamesCreated",
      "outputs": [
        {
          "internalType": "uint256",
          "name": "",
          "type": "uint256"
        }
      ],
      "stateMutability": "view",
      "type": "function"
    },
    {
      "inputs": [],
      "name": "getActiveGames",
      "outputs": [
        {
          "components": [
            {
              "internalType": "uint256",
              "name": "id",
              "type": "uint256"
            },
            {
              "internalType": "address",
              "name": "player1",
              "type": "address"
            },
            {
              "internalType": "address",
              "name": "player2",
              "type": "address"
            },
            {
              "internalType": "uint256",
              "name": "bet",
              "type": "uint256"
            },
            {
              "internalType": "uint16",
              "name": "duration",
              "type": "uint16"
            },
            {
              "internalType": "uint256",
              "name": "timestamp",
              "type": "uint256"
            },
            {
              "internalType": "bytes32",
              "name": "encryptedMove",
              "type": "bytes32"
            },
            {
              "internalType": "enum IRockPaperScissors.Hand",
              "name": "decryptedMove",
              "type": "uint8"
            },
            {
              "internalType": "enum IRockPaperScissors.Hand",
              "name": "move",
              "type": "uint8"
            },
            {
              "internalType": "enum IRockPaperScissors.Status",
              "name": "status",
              "type": "uint8"
            }
          ],
          "internalType": "struct IRockPaperScissors.Game[]",
          "name": "",
          "type": "tuple[]"
        }
      ],
      "stateMutability": "view",
      "type": "function"
    },
    {
      "inputs": [
        {
          "internalType": "address",
          "name": "_player",
          "type": "address"
        }
      ],
      "name": "getActiveGamesByPlayer",
      "outputs": [
        {
          "components": [
            {
              "internalType": "uint256",
              "name": "id",
              "type": "uint256"
            },
            {
              "internalType": "address",
              "name": "player1",
              "type": "address"
            },
            {
              "internalType": "address",
              "name": "player2",
              "type": "address"
            },
            {
              "internalType": "uint256",
              "name": "bet",
              "type": "uint256"
            },
            {
              "internalType": "uint16",
              "name": "duration",
              "type": "uint16"
            },
            {
              "internalType": "uint256",
              "name": "timestamp",
              "type": "uint256"
            },
            {
              "internalType": "bytes32",
              "name": "encryptedMove",
              "type": "bytes32"
            },
            {
              "internalType": "enum IRockPaperScissors.Hand",
              "name": "decryptedMove",
              "type": "uint8"
            },
            {
              "internalType": "enum IRockPaperScissors.Hand",
              "name": "move",
              "type": "uint8"
            },
            {
              "internalType": "enum IRockPaperScissors.Status",
              "name": "status",
              "type": "uint8"
            }
          ],
          "internalType": "struct IRockPaperScissors.Game[]",
          "name": "",
          "type": "tuple[]"
        }
      ],
      "stateMutability": "view",
      "type": "function"
    },
    {
      "inputs": [],
      "name": "getActivePlayers",
      "outputs": [
        {
          "internalType": "address[]",
          "name": "",
          "type": "address[]"
        }
      ],
      "stateMutability": "view",
      "type": "function"
    },
    {
      "inputs": [],
      "name": "getAvailableGames",
      "outputs": [
        {
          "components": [
            {
              "internalType": "uint256",
              "name": "id",
              "type": "uint256"
            },
            {
              "internalType": "address",
              "name": "player1",
              "type": "address"
            },
            {
              "internalType": "address",
              "name": "player2",
              "type": "address"
            },
            {
              "internalType": "uint256",
              "name": "bet",
              "type": "uint256"
            },
            {
              "internalType": "uint16",
              "name": "duration",
              "type": "uint16"
            },
            {
              "internalType": "uint256",
              "name": "timestamp",
              "type": "uint256"
            },
            {
              "internalType": "bytes32",
              "name": "encryptedMove",
              "type": "bytes32"
            },
            {
              "internalType": "enum IRockPaperScissors.Hand",
              "name": "decryptedMove",
              "type": "uint8"
            },
            {
              "internalType": "enum IRockPaperScissors.Hand",
              "name": "move",
              "type": "uint8"
            },
            {
              "internalType": "enum IRockPaperScissors.Status",
              "name": "status",
              "type": "uint8"
            }
          ],
          "internalType": "struct IRockPaperScissors.Game[]",
          "name": "",
          "type": "tuple[]"
        }
      ],
      "stateMutability": "view",
      "type": "function"
    },
    {
      "inputs": [
        {
          "internalType": "address",
          "name": "_player",
          "type": "address"
        }
      ],
      "name": "getAvailableGamesByPlayer",
      "outputs": [
        {
          "components": [
            {
              "internalType": "uint256",
              "name": "id",
              "type": "uint256"
            },
            {
              "internalType": "address",
              "name": "player1",
              "type": "address"
            },
            {
              "internalType": "address",
              "name": "player2",
              "type": "address"
            },
            {
              "internalType": "uint256",
              "name": "bet",
              "type": "uint256"
            },
            {
              "internalType": "uint16",
              "name": "duration",
              "type": "uint16"
            },
            {
              "internalType": "uint256",
              "name": "timestamp",
              "type": "uint256"
            },
            {
              "internalType": "bytes32",
              "name": "encryptedMove",
              "type": "bytes32"
            },
            {
              "internalType": "enum IRockPaperScissors.Hand",
              "name": "decryptedMove",
              "type": "uint8"
            },
            {
              "internalType": "enum IRockPaperScissors.Hand",
              "name": "move",
              "type": "uint8"
            },
            {
              "internalType": "enum IRockPaperScissors.Status",
              "name": "status",
              "type": "uint8"
            }
          ],
          "internalType": "struct IRockPaperScissors.Game[]",
          "name": "",
          "type": "tuple[]"
        }
      ],
      "stateMutability": "view",
      "type": "function"
    },
    {
      "inputs": [],
      "name": "getAvailablePlayers",
      "outputs": [
        {
          "internalType": "address[]",
          "name": "",
          "type": "address[]"
        }
      ],
      "stateMutability": "view",
      "type": "function"
    },
    {
      "inputs": [],
      "name": "getEtherBalance",
      "outputs": [
        {
          "internalType": "uint256",
          "name": "",
          "type": "uint256"
        }
      ],
      "stateMutability": "view",
      "type": "function"
    },
    {
      "inputs": [],
      "name": "getGames",
      "outputs": [
        {
          "components": [
            {
              "internalType": "uint256",
              "name": "id",
              "type": "uint256"
            },
            {
              "internalType": "address",
              "name": "player1",
              "type": "address"
            },
            {
              "internalType": "address",
              "name": "player2",
              "type": "address"
            },
            {
              "internalType": "uint256",
              "name": "bet",
              "type": "uint256"
            },
            {
              "internalType": "uint16",
              "name": "duration",
              "type": "uint16"
            },
            {
              "internalType": "uint256",
              "name": "timestamp",
              "type": "uint256"
            },
            {
              "internalType": "bytes32",
              "name": "encryptedMove",
              "type": "bytes32"
            },
            {
              "internalType": "enum IRockPaperScissors.Hand",
              "name": "decryptedMove",
              "type": "uint8"
            },
            {
              "internalType": "enum IRockPaperScissors.Hand",
              "name": "move",
              "type": "uint8"
            },
            {
              "internalType": "enum IRockPaperScissors.Status",
              "name": "status",
              "type": "uint8"
            }
          ],
          "internalType": "struct IRockPaperScissors.Game[]",
          "name": "",
          "type": "tuple[]"
        }
      ],
      "stateMutability": "view",
      "type": "function"
    },
    {
      "inputs": [],
      "name": "owner",
      "outputs": [
        {
          "internalType": "address",
          "name": "",
          "type": "address"
        }
      ],
      "stateMutability": "view",
      "type": "function"
    },
    {
      "inputs": [
        {
          "internalType": "uint256",
          "name": "_gameId",
          "type": "uint256"
        },
        {
          "internalType": "enum IRockPaperScissors.Hand",
          "name": "_move",
          "type": "uint8"
        }
      ],
      "name": "playGame",
      "outputs": [],
      "stateMutability": "nonpayable",
      "type": "function"
    },
    {
      "inputs": [
        {
          "internalType": "address",
          "name": "",
          "type": "address"
        }
      ],
      "name": "playerToId",
      "outputs": [
        {
          "internalType": "uint256",
          "name": "",
          "type": "uint256"
        }
      ],
      "stateMutability": "view",
      "type": "function"
    },
    {
      "inputs": [
        {
          "internalType": "uint256",
          "name": "_gameId",
          "type": "uint256"
        }
      ],
      "name": "quitGame",
      "outputs": [],
      "stateMutability": "nonpayable",
      "type": "function"
    },
    {
      "inputs": [],
      "name": "renounceOwnership",
      "outputs": [],
      "stateMutability": "nonpayable",
      "type": "function"
    },
    {
      "inputs": [],
      "name": "rps",
      "outputs": [
        {
          "internalType": "contract IRPS",
          "name": "",
          "type": "address"
        }
      ],
      "stateMutability": "view",
      "type": "function"
    },
    {
      "inputs": [],
      "name": "rpsFee",
      "outputs": [
        {
          "internalType": "uint256",
          "name": "",
          "type": "uint256"
        }
      ],
      "stateMutability": "view",
      "type": "function"
    },
    {
      "inputs": [],
      "name": "rpsPrice",
      "outputs": [
        {
          "internalType": "uint256",
          "name": "",
          "type": "uint256"
        }
      ],
      "stateMutability": "view",
      "type": "function"
    },
    {
      "inputs": [
        {
          "internalType": "uint256",
          "name": "_amount",
          "type": "uint256"
        }
      ],
      "name": "sellRPS",
      "outputs": [],
      "stateMutability": "nonpayable",
      "type": "function"
    },
    {
      "inputs": [
        {
          "internalType": "uint256",
          "name": "_rpsFee",
          "type": "uint256"
        }
      ],
      "name": "setRPSFee",
      "outputs": [],
      "stateMutability": "nonpayable",
      "type": "function"
    },
    {
      "inputs": [
        {
          "internalType": "uint256",
          "name": "_rpsPrice",
          "type": "uint256"
        }
      ],
      "name": "setRPSPrice",
      "outputs": [],
      "stateMutability": "nonpayable",
      "type": "function"
    },
    {
      "inputs": [],
      "name": "totalPlayerIds",
      "outputs": [
        {
          "internalType": "uint256",
          "name": "",
          "type": "uint256"
        }
      ],
      "stateMutability": "view",
      "type": "function"
    },
    {
      "inputs": [
        {
          "internalType": "address",
          "name": "newOwner",
          "type": "address"
        }
      ],
      "name": "transferOwnership",
      "outputs": [],
      "stateMutability": "nonpayable",
      "type": "function"
    },
    {
      "inputs": [
        {
          "internalType": "uint256",
          "name": "_value",
          "type": "uint256"
        }
      ],
      "name": "withdrawEtherBalance",
      "outputs": [],
      "stateMutability": "nonpayable",
      "type": "function"
    },
    {
      "stateMutability": "payable",
      "type": "receive"
    }
  ],
  "transactionHash": "0xf992238fa776ab0eec525afe46af97899965716686d76c81e76179493bd45ae6",
  "args": [
    "0xedE54650f718ede6b93800019dAA1AD7cD69EdC1"
  ],
  "solcInputHash": "f896d057736bbb42e66639e155e4ddf6",
  "bytecode": "0x60a0604052662386f26fc10000600655600a6007553480156200002157600080fd5b5060405162005638380380620056388339810160408190526200004491620000b5565b6200004f3362000065565b60601b6001600160601b031916608052620000e7565b600080546001600160a01b038381166001600160a01b0319831681178455604051919092169283917f8be0079c531659141344cd1fd0a4f28419497f9722a3daafe3b4186f6b6457e09190a35050565b600060208284031215620000c857600080fd5b81516001600160a01b0381168114620000e057600080fd5b9392505050565b60805160601c6154ec6200014c6000396000818161043c01528181610b53015281816110cc01528181611462015281816128b701528181612af201528181613b9f015281816140010152818161452c0152818161467901526146d701526154ec6000f3fe6080604052600436106101bb5760003560e01c806392b4bb50116100ec578063e46de65e1161008a578063ef91a30811610064578063ef91a30814610547578063f2fde38b14610567578063f75b66fe14610587578063face17d81461058f576101fe565b8063e46de65e146104ff578063e50e2c2d1461051f578063ea46193e14610534576101fe565b8063b313363a116100c6578063b313363a1461049e578063c04c5947146104b4578063cde85e8d146104c9578063d52304eb146104e9576101fe565b806392b4bb501461042a578063a3a8becd1461045e578063a904cc531461047e576101fe565b80633c4f5a6611610159578063715018a611610133578063715018a6146103965780638011fa85146103ab57806380122bcf146103cb5780638da5cb5b146103f8576101fe565b80633c4f5a661461034957806340a9eeff1461036b57806362e7c60814610380576101fe565b80631b76929c116101955780631b76929c146102c35780632d6089dc146102e55780633541189e146103095780633ab0db1a14610329576101fe565b8063117a5b901461024457806315431a6a1461028357806316f99211146102a3576101fe565b366101fe5734156101fc5760405134815233907f1e57e3bb474320be3d2c77138f75b7c3941292d647f5f9634e33a8e94e0e069b9060200160405180910390a25b005b60405162461bcd60e51b815260206004820152601660248201527515dc9bdb99c818d85b1b081d1bc818dbdb9d1c9858dd60521b60448201526064015b60405180910390fd5b34801561025057600080fd5b5061026461025f366004614e70565b6105af565b60405161027a9a9998979695949392919061530b565b60405180910390f35b34801561028f57600080fd5b506101fc61029e366004614f05565b61062c565b3480156102af57600080fd5b506101fc6102be366004614e70565b610dbf565b3480156102cf57600080fd5b506102d861115e565b60405161027a91906150c7565b3480156102f157600080fd5b506102fb60065481565b60405190815260200161027a565b34801561031557600080fd5b506101fc610324366004614e70565b6113fe565b34801561033557600080fd5b506101fc610344366004614e70565b6115c8565b34801561035557600080fd5b5061035e61167d565b60405161027a919061507a565b34801561037757600080fd5b506102d8612083565b34801561038c57600080fd5b506102fb60075481565b3480156103a257600080fd5b506101fc61231e565b3480156103b757600080fd5b506101fc6103c6366004614e70565b612354565b3480156103d757600080fd5b506102fb6103e6366004614e00565b60026020526000908152604090205481565b34801561040457600080fd5b506000546001600160a01b03165b6040516001600160a01b03909116815260200161027a565b34801561043657600080fd5b506104127f000000000000000000000000000000000000000000000000000000000000000081565b34801561046a57600080fd5b506101fc610479366004614e89565b61240c565b34801561048a57600080fd5b506101fc610499366004614e70565b612d12565b3480156104aa57600080fd5b506102fb60055481565b3480156104c057600080fd5b506102d8612e54565b3480156104d557600080fd5b506102d86104e4366004614e00565b612fb2565b3480156104f557600080fd5b506102fb60045481565b34801561050b57600080fd5b506102d861051a366004614e00565b6132db565b34801561052b57600080fd5b5061035e61371a565b34801561054057600080fd5b50476102fb565b34801561055357600080fd5b506101fc610562366004614e30565b613b3c565b34801561057357600080fd5b506101fc610582366004614e00565b613ee4565b6101fc613f7f565b34801561059b57600080fd5b506101fc6105aa366004614e70565b6140a2565b600181815481106105bf57600080fd5b6000918252602090912060089091020180546001820154600283015460038401546004850154600586015460068701546007909701549597506001600160a01b03948516969490931694919361ffff909116929160ff80821691610100810482169162010000909104168a565b60015482906000906106505760405162461bcd60e51b815260040161023b9061510a565b6000828152600360205260408120546001805490919081106106745761067461546a565b6000918252602091829020604080516101408101825260089093029091018054835260018101546001600160a01b03908116948401949094526002810154909316908201526003808301546060830152600483015461ffff166080830152600583015460a0830152600683015460c0830152600783015491929160e084019160ff909116908111156107085761070861543e565b60038111156107195761071961543e565b81526020016007820160019054906101000a900460ff1660038111156107415761074161543e565b60038111156107525761075261543e565b81526020016007820160029054906101000a900460ff16600481111561077a5761077a61543e565b600481111561078b5761078b61543e565b81525050905060045483106107b25760405162461bcd60e51b815260040161023b90615236565b805183146107d25760405162461bcd60e51b815260040161023b906151d2565b8161081257600081610120015160048111156107f0576107f061543e565b1461080d5760405162461bcd60e51b815260040161023b9061519b565b6109a5565b816001141561090e57600181610120015160048111156108345761083461543e565b146108e25760005b81610120015160048111156108535761085361543e565b14156108a15760405162461bcd60e51b815260206004820152601860248201527f47616d6520686173206e6f742073746172746564207965740000000000000000604482015260640161023b565b60405162461bcd60e51b815260206004820152601660248201527511d85b59481a185cc8185b1c9958591e48195b99195960521b604482015260640161023b565b60208101516001600160a01b0316331461080d5760405162461bcd60e51b815260040161023b90615141565b81600214156109435760408101516001600160a01b0316331461080d5760405162461bcd60e51b815260040161023b9061516e565b6000816101200151600481111561095c5761095c61543e565b146109795760405162461bcd60e51b815260040161023b9061519b565b60208101516001600160a01b031633146109a55760405162461bcd60e51b815260040161023b90615141565b60008460038111156109b9576109b961543e565b14156109f65760405162461bcd60e51b815260206004820152600c60248201526b496e76616c6964206d6f766560a01b604482015260640161023b565b600085815260036020526040812054600180549091908110610a1a57610a1a61546a565b6000918252602091829020604080516101408101825260089093029091018054835260018101546001600160a01b03908116948401949094526002810154909316908201526003808301546060830152600483015461ffff166080830152600583015460a0830152600683015460c0830152600783015491929160e084019160ff90911690811115610aae57610aae61543e565b6003811115610abf57610abf61543e565b81526020016007820160019054906101000a900460ff166003811115610ae757610ae761543e565b6003811115610af857610af861543e565b81526020016007820160029054906101000a900460ff166004811115610b2057610b2061543e565b6004811115610b3157610b3161543e565b9052506060810151604051632770a7eb60e21b81529192506001600160a01b037f00000000000000000000000000000000000000000000000000000000000000001691639dc29fac91610b8991339190600401615061565b600060405180830381600087803b158015610ba357600080fd5b505af1158015610bb7573d6000803e3d6000fd5b505033604084015250504260a08201526101008101856003811115610bde57610bde61543e565b90816003811115610bf157610bf161543e565b905250600161012082018190526000878152600360205260409020548154839291908110610c2157610c2161546a565b6000918252602091829020835160089092020190815590820151600180830180546001600160a01b039384166001600160a01b0319918216179091556040850151600285018054919094169116179091556060830151600380840191909155608084015160048401805461ffff90921661ffff1990921691909117905560a0840151600584015560c0840151600684015560e08401516007840180549193909260ff19909216918490811115610cd957610cd961543e565b0217905550610100828101516007830180549192909161ff00191690836003811115610d0757610d0761543e565b021790555061012082015160078201805462ff0000191662010000836004811115610d3457610d3461543e565b021790555090505085336001600160a01b03167fb81ccc3028607aea1921703d7e683d2ada18e8206360192395f810c94cbc006b83604051610d769190615263565b60405180910390a333600090815260026020526040902054610db757600560008154610da1906153e3565b9182905550336000908152600260205260409020555b505050505050565b6001548190600390610de35760405162461bcd60e51b815260040161023b9061510a565b600082815260036020526040812054600180549091908110610e0757610e0761546a565b6000918252602091829020604080516101408101825260089093029091018054835260018101546001600160a01b03908116948401949094526002810154909316908201526003808301546060830152600483015461ffff166080830152600583015460a0830152600683015460c0830152600783015491929160e084019160ff90911690811115610e9b57610e9b61543e565b6003811115610eac57610eac61543e565b81526020016007820160019054906101000a900460ff166003811115610ed457610ed461543e565b6003811115610ee557610ee561543e565b81526020016007820160029054906101000a900460ff166004811115610f0d57610f0d61543e565b6004811115610f1e57610f1e61543e565b8152505090506004548310610f455760405162461bcd60e51b815260040161023b90615236565b80518314610f655760405162461bcd60e51b815260040161023b906151d2565b81610fa55760008161012001516004811115610f8357610f8361543e565b14610fa05760405162461bcd60e51b815260040161023b9061519b565b611096565b8160011415610fff5760018161012001516004811115610fc757610fc761543e565b14610fd357600061083c565b60208101516001600160a01b03163314610fa05760405162461bcd60e51b815260040161023b90615141565b81600214156110345760408101516001600160a01b03163314610fa05760405162461bcd60e51b815260040161023b9061516e565b6000816101200151600481111561104d5761104d61543e565b1461106a5760405162461bcd60e51b815260040161023b9061519b565b60208101516001600160a01b031633146110965760405162461bcd60e51b815260040161023b90615141565b6000848152600360205260408120546001805490919081106110ba576110ba61546a565b906000526020600020906008020190507f00000000000000000000000000000000000000000000000000000000000000006001600160a01b03166340c10f193383600301546040518363ffffffff1660e01b815260040161111c929190615061565b600060405180830381600087803b15801561113657600080fd5b505af115801561114a573d6000803e3d6000fd5b505050506111578561476a565b5050505050565b60606000805b6001548110156111d8576000600182815481106111835761118361546a565b906000526020600020906008020160070160029054906101000a900460ff1660048111156111b3576111b361543e565b146111c657816111c2816153e3565b9250505b806111d0816153e3565b915050611164565b5060008167ffffffffffffffff8111156111f4576111f4615480565b60405190808252806020026020018201604052801561122d57816020015b61121a614dae565b8152602001906001900390816112125790505b5090506000915060005b6001548110156113f7576000600182815481106112565761125661546a565b906000526020600020906008020160070160029054906101000a900460ff1660048111156112865761128661543e565b146113e5576001818154811061129e5761129e61546a565b6000918252602091829020604080516101408101825260089093029091018054835260018101546001600160a01b03908116948401949094526002810154909316908201526003808301546060830152600483015461ffff166080830152600583015460a0830152600683015460c0830152600783015491929160e084019160ff909116908111156113325761133261543e565b60038111156113435761134361543e565b81526020016007820160019054906101000a900460ff16600381111561136b5761136b61543e565b600381111561137c5761137c61543e565b81526020016007820160029054906101000a900460ff1660048111156113a4576113a461543e565b60048111156113b5576113b561543e565b815250508284815181106113cb576113cb61546a565b602002602001018190525082806113e1906153e3565b9350505b806113ef816153e3565b915050611237565b5092915050565b8061144b5760405162461bcd60e51b815260206004820152601b60248201527f546f6b656e20616d6f756e742063616e6e6f74206265207a65726f0000000000604482015260640161023b565b604051632770a7eb60e21b81526001600160a01b037f00000000000000000000000000000000000000000000000000000000000000001690639dc29fac906114999033908590600401615061565b600060405180830381600087803b1580156114b357600080fd5b505af11580156114c7573d6000803e3d6000fd5b50506040518381523392507f98e735fdb3621639a888ed598b25df3a24cd9e9e93e0f558c369ce8f4b7385c9915060200160405180910390a26000606460075460065461151491906153ad565b61151e9190615399565b60065461152b91906153cc565b905060003361153a84846153ad565b604051600081818185875af1925050503d8060008114611576576040519150601f19603f3d011682016040523d82523d6000602084013e61157b565b606091505b50509050806115c35760405162461bcd60e51b81526020600482015260146024820152732330b4b632b2103a379039b2b7321032ba3432b960611b604482015260640161023b565b505050565b6000546001600160a01b031633146115f25760405162461bcd60e51b815260040161023b90615201565b606481111561163c5760405162461bcd60e51b8152602060048201526016602482015275496e76616c6964206665652070657263656e7461676560501b604482015260640161023b565b60075460408051918252602082018390527f2159d5fed2b6bc5d836738fa419fe98aec45cf367bf728e6f3a885566dbe7dfc910160405180910390a1600755565b60606000805b6001548110156117535760018082815481106116a1576116a161546a565b906000526020600020906008020160070160029054906101000a900460ff1660048111156116d1576116d161543e565b14156116e9576116e2600283615381565b9150611741565b6000600182815481106116fe576116fe61546a565b906000526020600020906008020160070160029054906101000a900460ff16600481111561172e5761172e61543e565b14611741578161173d816153e3565b9250505b8061174b816153e3565b915050611683565b5060008167ffffffffffffffff81111561176f5761176f615480565b604051908082528060200260200182016040528015611798578160200160208202803683370190505b509050600091506000806000805b600154811015611bec5760018082815481106117c4576117c461546a565b906000526020600020906008020160070160029054906101000a900460ff1660048111156117f4576117f461543e565b14801561186357506001818154811061180f5761180f61546a565b6000918252602090912060026008909202010154600180546001600160a01b0390921691839081106118435761184361546a565b60009182526020909120600160089092020101546001600160a01b031614155b15611a7b576001818154811061187b5761187b61546a565b906000526020600020906008020160010160009054906101000a90046001600160a01b03168587815181106118b2576118b261546a565b6001600160a01b0390921660209283029190910190910152856118d4816153e3565b965050600181815481106118ea576118ea61546a565b906000526020600020906008020160020160009054906101000a90046001600160a01b03168587815181106119215761192161546a565b6001600160a01b039092166020928302919091019091015285611943816153e3565b96505060005b86811015611a3f57600182815481106119645761196461546a565b600091825260209091206001600890920201015486516001600160a01b03909116908790839081106119985761199861546a565b60200260200101516001600160a01b031614156119c157836119b9816153e3565b945050611a2d565b600182815481106119d4576119d461546a565b600091825260209091206002600890920201015486516001600160a01b0390911690879083908110611a0857611a0861546a565b60200260200101516001600160a01b03161415611a2d5782611a29816153e3565b9350505b80611a37816153e3565b915050611949565b508260011415611a575783611a53816153e3565b9450505b8160011415611a6e5783611a6a816153e3565b9450505b6000925060009150611bda565b600060018281548110611a9057611a9061546a565b906000526020600020906008020160070160029054906101000a900460ff166004811115611ac057611ac061543e565b14611bda5760018181548110611ad857611ad861546a565b906000526020600020906008020160020160009054906101000a90046001600160a01b0316858781518110611b0f57611b0f61546a565b6001600160a01b039092166020928302919091019091015285611b31816153e3565b96505060005b86811015611bbd5760018281548110611b5257611b5261546a565b600091825260209091206002600890920201015486516001600160a01b0390911690879083908110611b8657611b8661546a565b60200260200101516001600160a01b03161415611bab5782611ba7816153e3565b9350505b80611bb5816153e3565b915050611b37565b508160011415611bd55783611bd1816153e3565b9450505b600091505b80611be4816153e3565b9150506117a6565b5060008367ffffffffffffffff811115611c0857611c08615480565b604051908082528060200260200182016040528015611c31578160200160208202803683370190505b509050600095506000935060005b600154811015612078576001808281548110611c5d57611c5d61546a565b906000526020600020906008020160070160029054906101000a900460ff166004811115611c8d57611c8d61543e565b148015611cfc575060018181548110611ca857611ca861546a565b6000918252602090912060026008909202010154600180546001600160a01b039092169183908110611cdc57611cdc61546a565b60009182526020909120600160089092020101546001600160a01b031614155b15611f0757611d0c600288615381565b965060005b87811015611e075760018281548110611d2c57611d2c61546a565b600091825260209091206001600890920201015487516001600160a01b0390911690889083908110611d6057611d6061546a565b60200260200101516001600160a01b03161415611d895784611d81816153e3565b955050611df5565b60018281548110611d9c57611d9c61546a565b600091825260209091206002600890920201015487516001600160a01b0390911690889083908110611dd057611dd061546a565b60200260200101516001600160a01b03161415611df55783611df1816153e3565b9450505b80611dff816153e3565b915050611d11565b508360011415611e815760018181548110611e2457611e2461546a565b906000526020600020906008020160010160009054906101000a90046001600160a01b0316828681518110611e5b57611e5b61546a565b6001600160a01b039092166020928302919091019091015284611e7d816153e3565b9550505b8260011415611efa5760018181548110611e9d57611e9d61546a565b906000526020600020906008020160020160009054906101000a90046001600160a01b0316828681518110611ed457611ed461546a565b6001600160a01b039092166020928302919091019091015284611ef6816153e3565b9550505b6000935060009250612066565b600060018281548110611f1c57611f1c61546a565b906000526020600020906008020160070160029054906101000a900460ff166004811115611f4c57611f4c61543e565b146120665786611f5b816153e3565b97505060005b87811015611fe75760018281548110611f7c57611f7c61546a565b600091825260209091206002600890920201015487516001600160a01b0390911690889083908110611fb057611fb061546a565b60200260200101516001600160a01b03161415611fd55783611fd1816153e3565b9450505b80611fdf816153e3565b915050611f61565b50826001141561206157600181815481106120045761200461546a565b906000526020600020906008020160020160009054906101000a90046001600160a01b031682868151811061203b5761203b61546a565b6001600160a01b03909216602092830291909101909101528461205d816153e3565b9550505b600092505b80612070816153e3565b915050611c3f565b509695505050505050565b60606000805b6001548110156120fe576000600182815481106120a8576120a861546a565b906000526020600020906008020160070160029054906101000a900460ff1660048111156120d8576120d861543e565b14156120ec57816120e8816153e3565b9250505b806120f6816153e3565b915050612089565b5060008167ffffffffffffffff81111561211a5761211a615480565b60405190808252806020026020018201604052801561215357816020015b612140614dae565b8152602001906001900390816121385790505b5090506000915060005b6001548110156113f75760006001828154811061217c5761217c61546a565b906000526020600020906008020160070160029054906101000a900460ff1660048111156121ac576121ac61543e565b141561230c57600181815481106121c5576121c561546a565b6000918252602091829020604080516101408101825260089093029091018054835260018101546001600160a01b03908116948401949094526002810154909316908201526003808301546060830152600483015461ffff166080830152600583015460a0830152600683015460c0830152600783015491929160e084019160ff909116908111156122595761225961543e565b600381111561226a5761226a61543e565b81526020016007820160019054906101000a900460ff1660038111156122925761229261543e565b60038111156122a3576122a361543e565b81526020016007820160029054906101000a900460ff1660048111156122cb576122cb61543e565b60048111156122dc576122dc61543e565b815250508284815181106122f2576122f261546a565b60200260200101819052508280612308906153e3565b9350505b80612316816153e3565b91505061215d565b6000546001600160a01b031633146123485760405162461bcd60e51b815260040161023b90615201565b6123526000614a49565b565b6000546001600160a01b0316331461237e5760405162461bcd60e51b815260040161023b90615201565b806123cb5760405162461bcd60e51b815260206004820152601a60248201527f546f6b656e2070726963652063616e6e6f74206265207a65726f000000000000604482015260640161023b565b60065460408051918252602082018390527fd42a07d86e18904f72ab3e7d89696ed28e00369efddd855ab2f9556861207c3b910160405180910390a1600655565b6001805484919061242f5760405162461bcd60e51b815260040161023b9061510a565b6000828152600360205260408120546001805490919081106124535761245361546a565b6000918252602091829020604080516101408101825260089093029091018054835260018101546001600160a01b03908116948401949094526002810154909316908201526003808301546060830152600483015461ffff166080830152600583015460a0830152600683015460c0830152600783015491929160e084019160ff909116908111156124e7576124e761543e565b60038111156124f8576124f861543e565b81526020016007820160019054906101000a900460ff1660038111156125205761252061543e565b60038111156125315761253161543e565b81526020016007820160029054906101000a900460ff1660048111156125595761255961543e565b600481111561256a5761256a61543e565b81525050905060045483106125915760405162461bcd60e51b815260040161023b90615236565b805183146125b15760405162461bcd60e51b815260040161023b906151d2565b816125f157600081610120015160048111156125cf576125cf61543e565b146125ec5760405162461bcd60e51b815260040161023b9061519b565b6126e2565b816001141561264b57600181610120015160048111156126135761261361543e565b1461261f57600061083c565b60208101516001600160a01b031633146125ec5760405162461bcd60e51b815260040161023b90615141565b81600214156126805760408101516001600160a01b031633146125ec5760405162461bcd60e51b815260040161023b9061516e565b600081610120015160048111156126995761269961543e565b146126b65760405162461bcd60e51b815260040161023b9061519b565b60208101516001600160a01b031633146126e25760405162461bcd60e51b815260040161023b90615141565b60006126ef878787614a99565b905080610100015160038111156127085761270861543e565b8160e00151600381111561271e5761271e61543e565b14156129235760046101208201526000878152600360205260409020546001805483929081106127505761275061546a565b6000918252602091829020835160089092020190815590820151600180830180546001600160a01b039384166001600160a01b0319918216179091556040850151600285018054919094169116179091556060830151600380840191909155608084015160048401805461ffff90921661ffff1990921691909117905560a0840151600584015560c0840151600684015560e08401516007840180549193909260ff199092169184908111156128085761280861543e565b0217905550610100828101516007830180549192909161ff001916908360038111156128365761283661543e565b021790555061012082015160078201805462ff00001916620100008360048111156128635761286361543e565b021790555090505086336001600160a01b0316600080516020615497833981519152836040516128939190615263565b60405180910390a360608101516040516340c10f1960e01b81526001600160a01b037f000000000000000000000000000000000000000000000000000000000000000016916340c10f19916128ec913391600401615061565b600060405180830381600087803b15801561290657600080fd5b505af115801561291a573d6000803e3d6000fd5b50505050612d09565b6003816101000151600381111561293c5761293c61543e565b8260e0015160038111156129525761295261543e565b61295d906003615381565b61296791906153cc565b61297191906153fe565b60011415612b8e5760026101208201526000878152600360205260409020546001805483929081106129a5576129a561546a565b6000918252602091829020835160089092020190815590820151600180830180546001600160a01b039384166001600160a01b0319918216179091556040850151600285018054919094169116179091556060830151600380840191909155608084015160048401805461ffff90921661ffff1990921691909117905560a0840151600584015560c0840151600684015560e08401516007840180549193909260ff19909216918490811115612a5d57612a5d61543e565b0217905550610100828101516007830180549192909161ff00191690836003811115612a8b57612a8b61543e565b021790555061012082015160078201805462ff0000191662010000836004811115612ab857612ab861543e565b021790555090505086336001600160a01b031660008051602061549783398151915283604051612ae89190615263565b60405180910390a37f00000000000000000000000000000000000000000000000000000000000000006001600160a01b03166340c10f193383606001516002612b3191906153ad565b6040518363ffffffff1660e01b8152600401612b4e929190615061565b600060405180830381600087803b158015612b6857600080fd5b505af1158015612b7c573d6000803e3d6000fd5b50505050612b898761476a565b612d09565b6003610120820181905250600087815260036020526040902054600180548392908110612bbd57612bbd61546a565b6000918252602091829020835160089092020190815590820151600180830180546001600160a01b039384166001600160a01b0319918216179091556040850151600285018054919094169116179091556060830151600380840191909155608084015160048401805461ffff90921661ffff1990921691909117905560a0840151600584015560c0840151600684015560e08401516007840180549193909260ff19909216918490811115612c7557612c7561543e565b0217905550610100828101516007830180549192909161ff00191690836003811115612ca357612ca361543e565b021790555061012082015160078201805462ff0000191662010000836004811115612cd057612cd061543e565b021790555090505086336001600160a01b031660008051602061549783398151915283604051612d009190615263565b60405180910390a35b50505050505050565b6000546001600160a01b03163314612d3c5760405162461bcd60e51b815260040161023b90615201565b80471015612d8c5760405162461bcd60e51b815260206004820152601d60248201527f496e73756666696369656e7420657468657220696e2062616c616e6365000000604482015260640161023b565b604051600090339083908381818185875af1925050503d8060008114612dce576040519150601f19603f3d011682016040523d82523d6000602084013e612dd3565b606091505b5050905080612e1b5760405162461bcd60e51b81526020600482015260146024820152732330b4b632b2103a379039b2b7321032ba3432b960611b604482015260640161023b565b60405182815233907f06097061aeda806b5e9cb4133d9899f332ff0913956567fc0f7ea15e3d19947c9060200160405180910390a25050565b60606001805480602002602001604051908101604052809291908181526020016000905b82821015612fa95760008481526020908190206040805161014081018252600886029092018054835260018101546001600160a01b03908116948401949094526002810154909316908201526003808301546060830152600483015461ffff166080830152600583015460a0830152600683015460c0830152600783015491929160e084019160ff90911690811115612f1357612f1361543e565b6003811115612f2457612f2461543e565b81526020016007820160019054906101000a900460ff166003811115612f4c57612f4c61543e565b6003811115612f5d57612f5d61543e565b81526020016007820160029054906101000a900460ff166004811115612f8557612f8561543e565b6004811115612f9657612f9661543e565b8152505081526020019060010190612e78565b50505050905090565b60606000805b60015481101561307057600060018281548110612fd757612fd761546a565b906000526020600020906008020160070160029054906101000a900460ff1660048111156130075761300761543e565b14801561304b5750836001600160a01b03166001828154811061302c5761302c61546a565b60009182526020909120600160089092020101546001600160a01b0316145b1561305e578161305a816153e3565b9250505b80613068816153e3565b915050612fb8565b5060008167ffffffffffffffff81111561308c5761308c615480565b6040519080825280602002602001820160405280156130c557816020015b6130b2614dae565b8152602001906001900390816130aa5790505b5090506000915060005b6001548110156132d3576000600182815481106130ee576130ee61546a565b906000526020600020906008020160070160029054906101000a900460ff16600481111561311e5761311e61543e565b1480156131625750846001600160a01b0316600182815481106131435761314361546a565b60009182526020909120600160089092020101546001600160a01b0316145b156132c1576001818154811061317a5761317a61546a565b6000918252602091829020604080516101408101825260089093029091018054835260018101546001600160a01b03908116948401949094526002810154909316908201526003808301546060830152600483015461ffff166080830152600583015460a0830152600683015460c0830152600783015491929160e084019160ff9091169081111561320e5761320e61543e565b600381111561321f5761321f61543e565b81526020016007820160019054906101000a900460ff1660038111156132475761324761543e565b60038111156132585761325861543e565b81526020016007820160029054906101000a900460ff1660048111156132805761328061543e565b60048111156132915761329161543e565b815250508284815181106132a7576132a761546a565b602002602001018190525082806132bd906153e3565b9350505b806132cb816153e3565b9150506130cf565b509392505050565b60606000805b6001548110156134285760018082815481106132ff576132ff61546a565b906000526020600020906008020160070160029054906101000a900460ff16600481111561332f5761332f61543e565b1480156133735750836001600160a01b0316600182815481106133545761335461546a565b60009182526020909120600160089092020101546001600160a01b0316145b80613403575060006001828154811061338e5761338e61546a565b906000526020600020906008020160070160029054906101000a900460ff1660048111156133be576133be61543e565b141580156134035750836001600160a01b0316600182815481106133e4576133e461546a565b60009182526020909120600260089092020101546001600160a01b0316145b156134165781613412816153e3565b9250505b80613420816153e3565b9150506132e1565b5060008167ffffffffffffffff81111561344457613444615480565b60405190808252806020026020018201604052801561347d57816020015b61346a614dae565b8152602001906001900390816134625790505b5090506000915060005b6001548110156132d35760018082815481106134a5576134a561546a565b906000526020600020906008020160070160029054906101000a900460ff1660048111156134d5576134d561543e565b1480156135195750846001600160a01b0316600182815481106134fa576134fa61546a565b60009182526020909120600160089092020101546001600160a01b0316145b806135a957506000600182815481106135345761353461546a565b906000526020600020906008020160070160029054906101000a900460ff1660048111156135645761356461543e565b141580156135a95750846001600160a01b03166001828154811061358a5761358a61546a565b60009182526020909120600260089092020101546001600160a01b0316145b1561370857600181815481106135c1576135c161546a565b6000918252602091829020604080516101408101825260089093029091018054835260018101546001600160a01b03908116948401949094526002810154909316908201526003808301546060830152600483015461ffff166080830152600583015460a0830152600683015460c0830152600783015491929160e084019160ff909116908111156136555761365561543e565b60038111156136665761366661543e565b81526020016007820160019054906101000a900460ff16600381111561368e5761368e61543e565b600381111561369f5761369f61543e565b81526020016007820160029054906101000a900460ff1660048111156136c7576136c761543e565b60048111156136d8576136d861543e565b815250508284815181106136ee576136ee61546a565b60200260200101819052508280613704906153e3565b9350505b80613712816153e3565b915050613487565b60606000805b6001548110156137955760006001828154811061373f5761373f61546a565b906000526020600020906008020160070160029054906101000a900460ff16600481111561376f5761376f61543e565b1415613783578161377f816153e3565b9250505b8061378d816153e3565b915050613720565b5060008167ffffffffffffffff8111156137b1576137b1615480565b6040519080825280602002602001820160405280156137da578160200160208202803683370190505b5090506000915060008060005b600154811015613963576000600182815481106138065761380661546a565b906000526020600020906008020160070160029054906101000a900460ff1660048111156138365761383661543e565b1415613951576001818154811061384f5761384f61546a565b906000526020600020906008020160010160009054906101000a90046001600160a01b03168486815181106138865761388661546a565b6001600160a01b0390921660209283029190910190910152846138a8816153e3565b95505060005b8581101561393457600182815481106138c9576138c961546a565b600091825260209091206001600890920201015485516001600160a01b03909116908690839081106138fd576138fd61546a565b60200260200101516001600160a01b03161415613922578261391e816153e3565b9350505b8061392c816153e3565b9150506138ae565b50816001141561394c5782613948816153e3565b9350505b600091505b8061395b816153e3565b9150506137e7565b5060008267ffffffffffffffff81111561397f5761397f615480565b6040519080825280602002602001820160405280156139a8578160200160208202803683370190505b509050600094506000925060005b600154811015613b32576000600182815481106139d5576139d561546a565b906000526020600020906008020160070160029054906101000a900460ff166004811115613a0557613a0561543e565b1415613b205785613a15816153e3565b96505060005b86811015613aa15760018281548110613a3657613a3661546a565b600091825260209091206001600890920201015486516001600160a01b0390911690879083908110613a6a57613a6a61546a565b60200260200101516001600160a01b03161415613a8f5783613a8b816153e3565b9450505b80613a99816153e3565b915050613a1b565b508260011415613b1b5760018181548110613abe57613abe61546a565b906000526020600020906008020160010160009054906101000a90046001600160a01b0316828581518110613af557613af561546a565b6001600160a01b039092166020928302919091019091015283613b17816153e3565b9450505b600092505b80613b2a816153e3565b9150506139b6565b5095945050505050565b6001600160ff1b03821115613b885760405162461bcd60e51b81526020600482015260126024820152715468652062657420697320746f6f2062696760701b604482015260640161023b565b604051632770a7eb60e21b81526001600160a01b037f00000000000000000000000000000000000000000000000000000000000000001690639dc29fac90613bd69033908690600401615061565b600060405180830381600087803b158015613bf057600080fd5b505af1158015613c04573d6000803e3d6000fd5b50505050613c10614dae565b60048054906000613c20836153e3565b909155508082523360208084019182526060840186815261ffff8681166080870190815260c087018a81526001805460009889526003968790526040808a2082905581830183559882905289517fb10e2d527612073b26eecdfd717e6a320cf44b4afac2b0732d9fcbe2b7fa0cf6600890920291820190815597517fb10e2d527612073b26eecdfd717e6a320cf44b4afac2b0732d9fcbe2b7fa0cf7820180546001600160a01b03199081166001600160a01b0393841617909155998b01517fb10e2d527612073b26eecdfd717e6a320cf44b4afac2b0732d9fcbe2b7fa0cf883018054909b1691161790985593517fb10e2d527612073b26eecdfd717e6a320cf44b4afac2b0732d9fcbe2b7fa0cf988015590517fb10e2d527612073b26eecdfd717e6a320cf44b4afac2b0732d9fcbe2b7fa0cfa8701805461ffff1916919093161790915560a08601517fb10e2d527612073b26eecdfd717e6a320cf44b4afac2b0732d9fcbe2b7fa0cfb860155517fb10e2d527612073b26eecdfd717e6a320cf44b4afac2b0732d9fcbe2b7fa0cfc85015560e08501517fb10e2d527612073b26eecdfd717e6a320cf44b4afac2b0732d9fcbe2b7fa0cfd9094018054869593919260ff19909116918490811115613dfd57613dfd61543e565b0217905550610100828101516007830180549192909161ff00191690836003811115613e2b57613e2b61543e565b021790555061012082015160078201805462ff0000191662010000836004811115613e5857613e5861543e565b021790555050508060000151336001600160a01b03167ff3d4e32e9e2cf3e4d2a4a7b0a24cd138ede4ff48011d38d9e01d603e566dd5bf83604051613e9d9190615263565b60405180910390a333600090815260026020526040902054613ede57600560008154613ec8906153e3565b9182905550336000908152600260205260409020555b50505050565b6000546001600160a01b03163314613f0e5760405162461bcd60e51b815260040161023b90615201565b6001600160a01b038116613f735760405162461bcd60e51b815260206004820152602660248201527f4f776e61626c653a206e6577206f776e657220697320746865207a65726f206160448201526564647265737360d01b606482015260840161023b565b613f7c81614a49565b50565b600654613f8c90346153fe565b158015613f9857503415155b613fd75760405162461bcd60e51b815260206004820152601060248201526f15dc9bdb99c8195d1a195c881cd95b9d60821b604482015260640161023b565b600060065434613fe79190615399565b6040516340c10f1960e01b81529091506001600160a01b037f000000000000000000000000000000000000000000000000000000000000000016906340c10f19906140389033908590600401615061565b600060405180830381600087803b15801561405257600080fd5b505af1158015614066573d6000803e3d6000fd5b50506040518381523392507fc94e54aafdeb99c16a564f22d4fe8df775d0f6d8aaea26774868a2909638dd69915060200160405180910390a250565b60015481906002906140c65760405162461bcd60e51b815260040161023b9061510a565b6000828152600360205260408120546001805490919081106140ea576140ea61546a565b6000918252602091829020604080516101408101825260089093029091018054835260018101546001600160a01b03908116948401949094526002810154909316908201526003808301546060830152600483015461ffff166080830152600583015460a0830152600683015460c0830152600783015491929160e084019160ff9091169081111561417e5761417e61543e565b600381111561418f5761418f61543e565b81526020016007820160019054906101000a900460ff1660038111156141b7576141b761543e565b60038111156141c8576141c861543e565b81526020016007820160029054906101000a900460ff1660048111156141f0576141f061543e565b60048111156142015761420161543e565b81525050905060045483106142285760405162461bcd60e51b815260040161023b90615236565b805183146142485760405162461bcd60e51b815260040161023b906151d2565b8161428857600081610120015160048111156142665761426661543e565b146142835760405162461bcd60e51b815260040161023b9061519b565b614379565b81600114156142e257600181610120015160048111156142aa576142aa61543e565b146142b657600061083c565b60208101516001600160a01b031633146142835760405162461bcd60e51b815260040161023b90615141565b81600214156143175760408101516001600160a01b031633146142835760405162461bcd60e51b815260040161023b9061516e565b600081610120015160048111156143305761433061543e565b1461434d5760405162461bcd60e51b815260040161023b9061519b565b60208101516001600160a01b031633146143795760405162461bcd60e51b815260040161023b90615141565b60008481526003602052604081205460018054909190811061439d5761439d61546a565b90600052602060002090600802019050600060016003600088815260200190815260200160002054815481106143d5576143d561546a565b6000918252602091829020604080516101408101825260089093029091018054835260018101546001600160a01b03908116948401949094526002810154909316908201526003808301546060830152600483015461ffff166080830152600583015460a0830152600683015460c0830152600783015491929160e084019160ff909116908111156144695761446961543e565b600381111561447a5761447a61543e565b81526020016007820160019054906101000a900460ff1660038111156144a2576144a261543e565b60038111156144b3576144b361543e565b81526020016007820160029054906101000a900460ff1660048111156144db576144db61543e565b60048111156144ec576144ec61543e565b90525090506004816101200151600481111561450a5761450a61543e565b14156145a15760608101516040516340c10f1960e01b81526001600160a01b037f000000000000000000000000000000000000000000000000000000000000000016916340c10f1991614561913391600401615061565b600060405180830381600087803b15801561457b57600080fd5b505af115801561458f573d6000803e3d6000fd5b5050505061459c8661476a565b610db7565b600181610120015160048111156145ba576145ba61543e565b14156146d557806080015161ffff168160a001516145d89190615381565b42101561463a5760405162461bcd60e51b815260206004820152602a60248201527f506c617965722031207374696c6c206861732074696d6520746f2072657665616044820152696c20686973206d6f766560b01b606482015260840161023b565b60078201805462ff0000191662030000179055604051869033906000805160206154978339815191529061466f908690615278565b60405180910390a37f00000000000000000000000000000000000000000000000000000000000000006001600160a01b03166340c10f1933836060015160026146b891906153ad565b6040518363ffffffff1660e01b8152600401614561929190615061565b7f00000000000000000000000000000000000000000000000000000000000000006001600160a01b03166340c10f19338360600151600261471691906153ad565b6040518363ffffffff1660e01b8152600401614733929190615061565b600060405180830381600087803b15801561474d57600080fd5b505af1158015614761573d6000803e3d6000fd5b50505050610db7865b60008181526003602052604081205460018054909190811061478e5761478e61546a565b9060005260206000209060080201905081336001600160a01b03167f81cf2674e2557b44d18f70b50c2b4d34408780e31ec724ee6ed65b749273167b836040516147d89190615278565b60405180910390a3600180546147ef9082906153cc565b815481106147ff576147ff61546a565b906000526020600020906008020160016003600085815260200190815260200160002054815481106148335761483361546a565b60009182526020909120825460089092020190815560018083015481830180546001600160a01b03199081166001600160a01b03938416179091556002808601549085018054909216921691909117905560038084015481840155600480850154908401805461ffff191661ffff9092169190911790556005808501549084015560068085015490840155600780850154908401805460ff90921693909260ff199092169184908111156148e9576148e961543e565b0217905550600782810154908201805460ff61010093849004169261ff00199091169083600381111561491e5761491e61543e565b0217905550600782810154908201805460ff6201000093849004169262ff000019909116908360048111156149555761495561543e565b0217905550505060008281526003602081905260408220546001805491939161497f9082906153cc565b8154811061498f5761498f61546a565b906000526020600020906008020160000154815260200190815260200160002081905550600360008381526020019081526020016000206000905560018054806149db576149db615454565b6000828152602081206008600019909301928302018181556001810180546001600160a01b031990811690915560028201805490911690556003810182905560048101805461ffff19169055600581018290556006810191909155600701805462ffffff1916905590555050565b600080546001600160a01b038381166001600160a01b0319831681178455604051919092169283917f8be0079c531659141344cd1fd0a4f28419497f9722a3daafe3b4186f6b6457e09190a35050565b614aa1614dae565b600084815260036020526040812054600180549091908110614ac557614ac561546a565b6000918252602091829020604080516101408101825260089093029091018054835260018101546001600160a01b03908116948401949094526002810154909316908201526003808301546060830152600483015461ffff166080830152600583015460a0830152600683015460c0830152600783015491929160e084019160ff90911690811115614b5957614b5961543e565b6003811115614b6a57614b6a61543e565b81526020016007820160019054906101000a900460ff166003811115614b9257614b9261543e565b6003811115614ba357614ba361543e565b81526020016007820160029054906101000a900460ff166004811115614bcb57614bcb61543e565b6004811115614bdc57614bdc61543e565b8152505090508060c0015160018585604051602001614bfd93929190615040565b604051602081830303815290604052805190602001201480614c4d57508060c0015184846001604051602001614c359392919061501d565b60405160208183030381529060405280519060200120145b15614c745760e0810160015b90816003811115614c6c57614c6c61543e565b905250614da6565b8060c0015160028585604051602001614c8f93929190615040565b604051602081830303815290604052805190602001201480614cdf57508060c0015184846002604051602001614cc79392919061501d565b60405160208183030381529060405280519060200120145b15614cef5760e081016002614c59565b8060c0015160038585604051602001614d0a93929190615040565b604051602081830303815290604052805190602001201480614d5a57508060c0015184846003604051602001614d429392919061501d565b60405160208183030381529060405280519060200120145b15614d6a5760e081016003614c59565b60405162461bcd60e51b8152602060048201526011602482015270111958dc9e5c1d1a5bdb8819985a5b1959607a1b604482015260640161023b565b949350505050565b6040805161014081018252600080825260208201819052918101829052606081018290526080810182905260a0810182905260c081018290529060e08201908152602001600081526020016000905290565b600060208284031215614e1257600080fd5b81356001600160a01b0381168114614e2957600080fd5b9392505050565b600080600060608486031215614e4557600080fd5b8335925060208401359150604084013561ffff81168114614e6557600080fd5b809150509250925092565b600060208284031215614e8257600080fd5b5035919050565b600080600060408486031215614e9e57600080fd5b83359250602084013567ffffffffffffffff80821115614ebd57600080fd5b818601915086601f830112614ed157600080fd5b813581811115614ee057600080fd5b876020828501011115614ef257600080fd5b6020830194508093505050509250925092565b60008060408385031215614f1857600080fd5b82359150602083013560048110614f2e57600080fd5b809150509250929050565b60048110614f4957614f4961543e565b9052565b60048110614f5d57614f5d61543e565b60f81b9052565b60058110614f4957614f4961543e565b805182526020810151614f9260208401826001600160a01b03169052565b506040810151614fad60408401826001600160a01b03169052565b50606081015160608301526080810151614fcd608084018261ffff169052565b5060a081015160a083015260c081015160c083015260e0810151614ff460e0840182614f39565b506101008082015161500882850182614f39565b505061012080820151613ede82850182614f64565b828482376000838201600081526150348185614f4d565b60010195945050505050565b61504a8185614f4d565b818360018301376000910160010190815292915050565b6001600160a01b03929092168252602082015260400190565b6020808252825182820181905260009190848201906040850190845b818110156150bb5783516001600160a01b031683529284019291840191600101615096565b50909695505050505050565b6020808252825182820181905260009190848201906040850190845b818110156150bb576150f6838551614f74565b9284019261014092909201916001016150e3565b60208082526017908201527f5468652067616d6573206c69737420697320656d707479000000000000000000604082015260600190565b602080825260139082015272506c617965722031206973206e6f7420796f7560681b604082015260600190565b602080825260139082015272506c617965722032206973206e6f7420796f7560681b604082015260600190565b60208082526018908201527f47616d652068617320616c726561647920737461727465640000000000000000604082015260600190565b60208082526015908201527411d85b59481a185cc81899595b8819195b195d1959605a1b604082015260600190565b6020808252818101527f4f776e61626c653a2063616c6c6572206973206e6f7420746865206f776e6572604082015260600190565b60208082526013908201527211d85b5948191bd95cc81b9bdd08195e1a5cdd606a1b604082015260600190565b61014081016152728284614f74565b92915050565b8154815260018201546001600160a01b039081166020830152600283015416604082015260038201546060820152600482015461ffff166080820152600582015460a0820152600682015460c082015260078201546101408201906152e360e0840160ff8316614f39565b6152f7610100840160ff8360081c16614f39565b6113f7610120840160ff8360101c16614f64565b8a81526001600160a01b038a81166020830152891660408201526060810188905261ffff8716608082015260a0810186905260c08101859052610140810161535660e0830186614f39565b615364610100830185614f39565b615372610120830184614f64565b9b9a5050505050505050505050565b6000821982111561539457615394615412565b500190565b6000826153a8576153a8615428565b500490565b60008160001904831182151516156153c7576153c7615412565b500290565b6000828210156153de576153de615412565b500390565b60006000198214156153f7576153f7615412565b5060010190565b60008261540d5761540d615428565b500690565b634e487b7160e01b600052601160045260246000fd5b634e487b7160e01b600052601260045260246000fd5b634e487b7160e01b600052602160045260246000fd5b634e487b7160e01b600052603160045260246000fd5b634e487b7160e01b600052603260045260246000fd5b634e487b7160e01b600052604160045260246000fdfe0c8a0eb83f1fa942580c696fa670ec638246f1a368385c788c33d678017e737ba2646970667358221220c0905c320cafb57575ff3cb3394ab8bca8c0175523ee9645f1c28707bb7e922d64736f6c63430008070033",
  "devdoc": {
    "kind": "dev",
    "methods": {
      "owner()": {
        "details": "Returns the address of the current owner."
      },
      "renounceOwnership()": {
        "details": "Leaves the contract without owner. It will not be possible to call `onlyOwner` functions anymore. Can only be called by the current owner. NOTE: Renouncing ownership will leave the contract without an owner, thereby removing any functionality that is only available to the owner."
      },
      "transferOwnership(address)": {
        "details": "Transfers ownership of the contract to a new account (`newOwner`). Can only be called by the current owner."
      }
    },
    "version": 1
  },
  "userdoc": {
    "kind": "user",
    "methods": {},
    "version": 1
  },
  "storageLayout": {
    "storage": [
      {
        "astId": 7,
        "contract": "contracts/RockPaperScissors.sol:RockPaperScissors",
        "label": "_owner",
        "offset": 0,
        "slot": "0",
        "type": "t_address"
      },
      {
        "astId": 1072,
        "contract": "contracts/RockPaperScissors.sol:RockPaperScissors",
        "label": "games",
        "offset": 0,
        "slot": "1",
        "type": "t_array(t_struct(Game)831_storage)dyn_storage"
      },
      {
        "astId": 1076,
        "contract": "contracts/RockPaperScissors.sol:RockPaperScissors",
        "label": "playerToId",
        "offset": 0,
        "slot": "2",
        "type": "t_mapping(t_address,t_uint256)"
      },
      {
        "astId": 1080,
        "contract": "contracts/RockPaperScissors.sol:RockPaperScissors",
        "label": "_gameIdToIndex",
        "offset": 0,
        "slot": "3",
        "type": "t_mapping(t_uint256,t_uint256)"
      },
      {
        "astId": 1082,
        "contract": "contracts/RockPaperScissors.sol:RockPaperScissors",
        "label": "gamesCreated",
        "offset": 0,
        "slot": "4",
        "type": "t_uint256"
      },
      {
        "astId": 1084,
        "contract": "contracts/RockPaperScissors.sol:RockPaperScissors",
        "label": "totalPlayerIds",
        "offset": 0,
        "slot": "5",
        "type": "t_uint256"
      },
      {
        "astId": 1087,
        "contract": "contracts/RockPaperScissors.sol:RockPaperScissors",
        "label": "rpsPrice",
        "offset": 0,
        "slot": "6",
        "type": "t_uint256"
      },
      {
        "astId": 1090,
        "contract": "contracts/RockPaperScissors.sol:RockPaperScissors",
        "label": "rpsFee",
        "offset": 0,
        "slot": "7",
        "type": "t_uint256"
      }
    ],
    "types": {
      "t_address": {
        "encoding": "inplace",
        "label": "address",
        "numberOfBytes": "20"
      },
      "t_array(t_struct(Game)831_storage)dyn_storage": {
        "base": "t_struct(Game)831_storage",
        "encoding": "dynamic_array",
        "label": "struct IRockPaperScissors.Game[]",
        "numberOfBytes": "32"
      },
      "t_bytes32": {
        "encoding": "inplace",
        "label": "bytes32",
        "numberOfBytes": "32"
      },
      "t_enum(Hand)801": {
        "encoding": "inplace",
        "label": "enum IRockPaperScissors.Hand",
        "numberOfBytes": "1"
      },
      "t_enum(Status)807": {
        "encoding": "inplace",
        "label": "enum IRockPaperScissors.Status",
        "numberOfBytes": "1"
      },
      "t_mapping(t_address,t_uint256)": {
        "encoding": "mapping",
        "key": "t_address",
        "label": "mapping(address => uint256)",
        "numberOfBytes": "32",
        "value": "t_uint256"
      },
      "t_mapping(t_uint256,t_uint256)": {
        "encoding": "mapping",
        "key": "t_uint256",
        "label": "mapping(uint256 => uint256)",
        "numberOfBytes": "32",
        "value": "t_uint256"
      },
      "t_struct(Game)831_storage": {
        "encoding": "inplace",
        "label": "struct IRockPaperScissors.Game",
        "members": [
          {
            "astId": 809,
            "contract": "contracts/RockPaperScissors.sol:RockPaperScissors",
            "label": "id",
            "offset": 0,
            "slot": "0",
            "type": "t_uint256"
          },
          {
            "astId": 811,
            "contract": "contracts/RockPaperScissors.sol:RockPaperScissors",
            "label": "player1",
            "offset": 0,
            "slot": "1",
            "type": "t_address"
          },
          {
            "astId": 813,
            "contract": "contracts/RockPaperScissors.sol:RockPaperScissors",
            "label": "player2",
            "offset": 0,
            "slot": "2",
            "type": "t_address"
          },
          {
            "astId": 815,
            "contract": "contracts/RockPaperScissors.sol:RockPaperScissors",
            "label": "bet",
            "offset": 0,
            "slot": "3",
            "type": "t_uint256"
          },
          {
            "astId": 817,
            "contract": "contracts/RockPaperScissors.sol:RockPaperScissors",
            "label": "duration",
            "offset": 0,
            "slot": "4",
            "type": "t_uint16"
          },
          {
            "astId": 819,
            "contract": "contracts/RockPaperScissors.sol:RockPaperScissors",
            "label": "timestamp",
            "offset": 0,
            "slot": "5",
            "type": "t_uint256"
          },
          {
            "astId": 821,
            "contract": "contracts/RockPaperScissors.sol:RockPaperScissors",
            "label": "encryptedMove",
            "offset": 0,
            "slot": "6",
            "type": "t_bytes32"
          },
          {
            "astId": 824,
            "contract": "contracts/RockPaperScissors.sol:RockPaperScissors",
            "label": "decryptedMove",
            "offset": 0,
            "slot": "7",
            "type": "t_enum(Hand)801"
          },
          {
            "astId": 827,
            "contract": "contracts/RockPaperScissors.sol:RockPaperScissors",
            "label": "move",
            "offset": 1,
            "slot": "7",
            "type": "t_enum(Hand)801"
          },
          {
            "astId": 830,
            "contract": "contracts/RockPaperScissors.sol:RockPaperScissors",
            "label": "status",
            "offset": 2,
            "slot": "7",
            "type": "t_enum(Status)807"
          }
        ],
        "numberOfBytes": "256"
      },
      "t_uint16": {
        "encoding": "inplace",
        "label": "uint16",
        "numberOfBytes": "2"
      },
      "t_uint256": {
        "encoding": "inplace",
        "label": "uint256",
        "numberOfBytes": "32"
      }
    }
  }
}