{
  "address": "0xe2763f6CF4E0Bd8Dc80eB12ad3A305f21541856f",
  "abi": [
    {
      "inputs": [
        {
          "internalType": "address",
          "name": "_rpsContractAddress",
          "type": "address"
        }
      ],
      "stateMutability": "nonpayable",
      "type": "constructor"
    },
    {
      "anonymous": false,
      "inputs": [
        {
          "indexed": true,
          "internalType": "address",
          "name": "_creator",
          "type": "address"
        },
        {
          "indexed": true,
          "internalType": "uint256",
          "name": "_gameId",
          "type": "uint256"
        },
        {
          "components": [
            {
              "internalType": "uint256",
              "name": "id",
              "type": "uint256"
            },
            {
              "internalType": "address",
              "name": "player1",
              "type": "address"
            },
            {
              "internalType": "address",
              "name": "player2",
              "type": "address"
            },
            {
              "internalType": "uint256",
              "name": "bet",
              "type": "uint256"
            },
            {
              "internalType": "uint16",
              "name": "duration",
              "type": "uint16"
            },
            {
              "internalType": "uint256",
              "name": "timestamp",
              "type": "uint256"
            },
            {
              "internalType": "bytes32",
              "name": "encryptedMove",
              "type": "bytes32"
            },
            {
              "internalType": "enum IRockPaperScissors.Hand",
              "name": "decryptedMove",
              "type": "uint8"
            },
            {
              "internalType": "enum IRockPaperScissors.Hand",
              "name": "move",
              "type": "uint8"
            },
            {
              "internalType": "enum IRockPaperScissors.Status",
              "name": "status",
              "type": "uint8"
            }
          ],
          "indexed": false,
          "internalType": "struct IRockPaperScissors.Game",
          "name": "_game",
          "type": "tuple"
        }
      ],
      "name": "GameCreated",
      "type": "event"
    },
    {
      "anonymous": false,
      "inputs": [
        {
          "indexed": true,
          "internalType": "address",
          "name": "_deleter",
          "type": "address"
        },
        {
          "indexed": true,
          "internalType": "uint256",
          "name": "_gameId",
          "type": "uint256"
        },
        {
          "components": [
            {
              "internalType": "uint256",
              "name": "id",
              "type": "uint256"
            },
            {
              "internalType": "address",
              "name": "player1",
              "type": "address"
            },
            {
              "internalType": "address",
              "name": "player2",
              "type": "address"
            },
            {
              "internalType": "uint256",
              "name": "bet",
              "type": "uint256"
            },
            {
              "internalType": "uint16",
              "name": "duration",
              "type": "uint16"
            },
            {
              "internalType": "uint256",
              "name": "timestamp",
              "type": "uint256"
            },
            {
              "internalType": "bytes32",
              "name": "encryptedMove",
              "type": "bytes32"
            },
            {
              "internalType": "enum IRockPaperScissors.Hand",
              "name": "decryptedMove",
              "type": "uint8"
            },
            {
              "internalType": "enum IRockPaperScissors.Hand",
              "name": "move",
              "type": "uint8"
            },
            {
              "internalType": "enum IRockPaperScissors.Status",
              "name": "status",
              "type": "uint8"
            }
          ],
          "indexed": false,
          "internalType": "struct IRockPaperScissors.Game",
          "name": "_game",
          "type": "tuple"
        }
      ],
      "name": "GameDeleted",
      "type": "event"
    },
    {
      "anonymous": false,
      "inputs": [
        {
          "indexed": true,
          "internalType": "address",
          "name": "_ender",
          "type": "address"
        },
        {
          "indexed": true,
          "internalType": "uint256",
          "name": "_gameId",
          "type": "uint256"
        },
        {
          "components": [
            {
              "internalType": "uint256",
              "name": "id",
              "type": "uint256"
            },
            {
              "internalType": "address",
              "name": "player1",
              "type": "address"
            },
            {
              "internalType": "address",
              "name": "player2",
              "type": "address"
            },
            {
              "internalType": "uint256",
              "name": "bet",
              "type": "uint256"
            },
            {
              "internalType": "uint16",
              "name": "duration",
              "type": "uint16"
            },
            {
              "internalType": "uint256",
              "name": "timestamp",
              "type": "uint256"
            },
            {
              "internalType": "bytes32",
              "name": "encryptedMove",
              "type": "bytes32"
            },
            {
              "internalType": "enum IRockPaperScissors.Hand",
              "name": "decryptedMove",
              "type": "uint8"
            },
            {
              "internalType": "enum IRockPaperScissors.Hand",
              "name": "move",
              "type": "uint8"
            },
            {
              "internalType": "enum IRockPaperScissors.Status",
              "name": "status",
              "type": "uint8"
            }
          ],
          "indexed": false,
          "internalType": "struct IRockPaperScissors.Game",
          "name": "_game",
          "type": "tuple"
        }
      ],
      "name": "GameEnded",
      "type": "event"
    },
    {
      "anonymous": false,
      "inputs": [
        {
          "indexed": true,
          "internalType": "address",
          "name": "_starter",
          "type": "address"
        },
        {
          "indexed": true,
          "internalType": "uint256",
          "name": "_gameId",
          "type": "uint256"
        },
        {
          "components": [
            {
              "internalType": "uint256",
              "name": "id",
              "type": "uint256"
            },
            {
              "internalType": "address",
              "name": "player1",
              "type": "address"
            },
            {
              "internalType": "address",
              "name": "player2",
              "type": "address"
            },
            {
              "internalType": "uint256",
              "name": "bet",
              "type": "uint256"
            },
            {
              "internalType": "uint16",
              "name": "duration",
              "type": "uint16"
            },
            {
              "internalType": "uint256",
              "name": "timestamp",
              "type": "uint256"
            },
            {
              "internalType": "bytes32",
              "name": "encryptedMove",
              "type": "bytes32"
            },
            {
              "internalType": "enum IRockPaperScissors.Hand",
              "name": "decryptedMove",
              "type": "uint8"
            },
            {
              "internalType": "enum IRockPaperScissors.Hand",
              "name": "move",
              "type": "uint8"
            },
            {
              "internalType": "enum IRockPaperScissors.Status",
              "name": "status",
              "type": "uint8"
            }
          ],
          "indexed": false,
          "internalType": "struct IRockPaperScissors.Game",
          "name": "_game",
          "type": "tuple"
        }
      ],
      "name": "GameStarted",
      "type": "event"
    },
    {
      "anonymous": false,
      "inputs": [
        {
          "indexed": true,
          "internalType": "address",
          "name": "previousOwner",
          "type": "address"
        },
        {
          "indexed": true,
          "internalType": "address",
          "name": "newOwner",
          "type": "address"
        }
      ],
      "name": "OwnershipTransferred",
      "type": "event"
    },
    {
      "anonymous": false,
      "inputs": [
        {
          "indexed": true,
          "internalType": "address",
          "name": "_minter",
          "type": "address"
        },
        {
          "indexed": false,
          "internalType": "uint256",
          "name": "_amount",
          "type": "uint256"
        }
      ],
      "name": "RPSBought",
      "type": "event"
    },
    {
      "anonymous": false,
      "inputs": [
        {
          "indexed": true,
          "internalType": "address",
          "name": "_burner",
          "type": "address"
        },
        {
          "indexed": false,
          "internalType": "uint256",
          "name": "_amount",
          "type": "uint256"
        }
      ],
      "name": "RPSSold",
      "type": "event"
    },
    {
      "anonymous": false,
      "inputs": [
        {
          "indexed": true,
          "internalType": "address",
          "name": "_from",
          "type": "address"
        },
        {
          "indexed": false,
          "internalType": "uint256",
          "name": "_value",
          "type": "uint256"
        }
      ],
      "name": "Received",
      "type": "event"
    },
    {
      "stateMutability": "payable",
      "type": "fallback"
    },
    {
      "inputs": [],
      "name": "buyRPS",
      "outputs": [],
      "stateMutability": "payable",
      "type": "function"
    },
    {
      "inputs": [
        {
          "internalType": "bytes32",
          "name": "_encryptedMove",
          "type": "bytes32"
        },
        {
          "internalType": "uint256",
          "name": "_bet",
          "type": "uint256"
        },
        {
          "internalType": "uint16",
          "name": "_duration",
          "type": "uint16"
        }
      ],
      "name": "createGame",
      "outputs": [],
      "stateMutability": "nonpayable",
      "type": "function"
    },
    {
      "inputs": [
        {
          "internalType": "uint256",
          "name": "_gameId",
          "type": "uint256"
        },
        {
          "internalType": "bytes",
          "name": "_seed",
          "type": "bytes"
        }
      ],
      "name": "endGameAsPlayer1",
      "outputs": [],
      "stateMutability": "nonpayable",
      "type": "function"
    },
    {
      "inputs": [
        {
          "internalType": "uint256",
          "name": "_gameId",
          "type": "uint256"
        }
      ],
      "name": "endGameAsPlayer2",
      "outputs": [],
      "stateMutability": "nonpayable",
      "type": "function"
    },
    {
      "inputs": [
        {
          "internalType": "uint256",
          "name": "",
          "type": "uint256"
        }
      ],
      "name": "games",
      "outputs": [
        {
          "internalType": "uint256",
          "name": "id",
          "type": "uint256"
        },
        {
          "internalType": "address",
          "name": "player1",
          "type": "address"
        },
        {
          "internalType": "address",
          "name": "player2",
          "type": "address"
        },
        {
          "internalType": "uint256",
          "name": "bet",
          "type": "uint256"
        },
        {
          "internalType": "uint16",
          "name": "duration",
          "type": "uint16"
        },
        {
          "internalType": "uint256",
          "name": "timestamp",
          "type": "uint256"
        },
        {
          "internalType": "bytes32",
          "name": "encryptedMove",
          "type": "bytes32"
        },
        {
          "internalType": "enum IRockPaperScissors.Hand",
          "name": "decryptedMove",
          "type": "uint8"
        },
        {
          "internalType": "enum IRockPaperScissors.Hand",
          "name": "move",
          "type": "uint8"
        },
        {
          "internalType": "enum IRockPaperScissors.Status",
          "name": "status",
          "type": "uint8"
        }
      ],
      "stateMutability": "view",
      "type": "function"
    },
    {
      "inputs": [],
      "name": "gamesCreated",
      "outputs": [
        {
          "internalType": "uint256",
          "name": "",
          "type": "uint256"
        }
      ],
      "stateMutability": "view",
      "type": "function"
    },
    {
      "inputs": [],
      "name": "getActiveGames",
      "outputs": [
        {
          "components": [
            {
              "internalType": "uint256",
              "name": "id",
              "type": "uint256"
            },
            {
              "internalType": "address",
              "name": "player1",
              "type": "address"
            },
            {
              "internalType": "address",
              "name": "player2",
              "type": "address"
            },
            {
              "internalType": "uint256",
              "name": "bet",
              "type": "uint256"
            },
            {
              "internalType": "uint16",
              "name": "duration",
              "type": "uint16"
            },
            {
              "internalType": "uint256",
              "name": "timestamp",
              "type": "uint256"
            },
            {
              "internalType": "bytes32",
              "name": "encryptedMove",
              "type": "bytes32"
            },
            {
              "internalType": "enum IRockPaperScissors.Hand",
              "name": "decryptedMove",
              "type": "uint8"
            },
            {
              "internalType": "enum IRockPaperScissors.Hand",
              "name": "move",
              "type": "uint8"
            },
            {
              "internalType": "enum IRockPaperScissors.Status",
              "name": "status",
              "type": "uint8"
            }
          ],
          "internalType": "struct IRockPaperScissors.Game[]",
          "name": "",
          "type": "tuple[]"
        }
      ],
      "stateMutability": "view",
      "type": "function"
    },
    {
      "inputs": [
        {
          "internalType": "address",
          "name": "_player",
          "type": "address"
        }
      ],
      "name": "getActiveGamesByPlayer",
      "outputs": [
        {
          "components": [
            {
              "internalType": "uint256",
              "name": "id",
              "type": "uint256"
            },
            {
              "internalType": "address",
              "name": "player1",
              "type": "address"
            },
            {
              "internalType": "address",
              "name": "player2",
              "type": "address"
            },
            {
              "internalType": "uint256",
              "name": "bet",
              "type": "uint256"
            },
            {
              "internalType": "uint16",
              "name": "duration",
              "type": "uint16"
            },
            {
              "internalType": "uint256",
              "name": "timestamp",
              "type": "uint256"
            },
            {
              "internalType": "bytes32",
              "name": "encryptedMove",
              "type": "bytes32"
            },
            {
              "internalType": "enum IRockPaperScissors.Hand",
              "name": "decryptedMove",
              "type": "uint8"
            },
            {
              "internalType": "enum IRockPaperScissors.Hand",
              "name": "move",
              "type": "uint8"
            },
            {
              "internalType": "enum IRockPaperScissors.Status",
              "name": "status",
              "type": "uint8"
            }
          ],
          "internalType": "struct IRockPaperScissors.Game[]",
          "name": "",
          "type": "tuple[]"
        }
      ],
      "stateMutability": "view",
      "type": "function"
    },
    {
      "inputs": [],
      "name": "getActivePlayers",
      "outputs": [
        {
          "internalType": "address[]",
          "name": "",
          "type": "address[]"
        }
      ],
      "stateMutability": "view",
      "type": "function"
    },
    {
      "inputs": [],
      "name": "getAvailableGames",
      "outputs": [
        {
          "components": [
            {
              "internalType": "uint256",
              "name": "id",
              "type": "uint256"
            },
            {
              "internalType": "address",
              "name": "player1",
              "type": "address"
            },
            {
              "internalType": "address",
              "name": "player2",
              "type": "address"
            },
            {
              "internalType": "uint256",
              "name": "bet",
              "type": "uint256"
            },
            {
              "internalType": "uint16",
              "name": "duration",
              "type": "uint16"
            },
            {
              "internalType": "uint256",
              "name": "timestamp",
              "type": "uint256"
            },
            {
              "internalType": "bytes32",
              "name": "encryptedMove",
              "type": "bytes32"
            },
            {
              "internalType": "enum IRockPaperScissors.Hand",
              "name": "decryptedMove",
              "type": "uint8"
            },
            {
              "internalType": "enum IRockPaperScissors.Hand",
              "name": "move",
              "type": "uint8"
            },
            {
              "internalType": "enum IRockPaperScissors.Status",
              "name": "status",
              "type": "uint8"
            }
          ],
          "internalType": "struct IRockPaperScissors.Game[]",
          "name": "",
          "type": "tuple[]"
        }
      ],
      "stateMutability": "view",
      "type": "function"
    },
    {
      "inputs": [
        {
          "internalType": "address",
          "name": "_player",
          "type": "address"
        }
      ],
      "name": "getAvailableGamesByPlayer",
      "outputs": [
        {
          "components": [
            {
              "internalType": "uint256",
              "name": "id",
              "type": "uint256"
            },
            {
              "internalType": "address",
              "name": "player1",
              "type": "address"
            },
            {
              "internalType": "address",
              "name": "player2",
              "type": "address"
            },
            {
              "internalType": "uint256",
              "name": "bet",
              "type": "uint256"
            },
            {
              "internalType": "uint16",
              "name": "duration",
              "type": "uint16"
            },
            {
              "internalType": "uint256",
              "name": "timestamp",
              "type": "uint256"
            },
            {
              "internalType": "bytes32",
              "name": "encryptedMove",
              "type": "bytes32"
            },
            {
              "internalType": "enum IRockPaperScissors.Hand",
              "name": "decryptedMove",
              "type": "uint8"
            },
            {
              "internalType": "enum IRockPaperScissors.Hand",
              "name": "move",
              "type": "uint8"
            },
            {
              "internalType": "enum IRockPaperScissors.Status",
              "name": "status",
              "type": "uint8"
            }
          ],
          "internalType": "struct IRockPaperScissors.Game[]",
          "name": "",
          "type": "tuple[]"
        }
      ],
      "stateMutability": "view",
      "type": "function"
    },
    {
      "inputs": [],
      "name": "getAvailablePlayers",
      "outputs": [
        {
          "internalType": "address[]",
          "name": "",
          "type": "address[]"
        }
      ],
      "stateMutability": "view",
      "type": "function"
    },
    {
      "inputs": [],
      "name": "getEtherBalance",
      "outputs": [
        {
          "internalType": "uint256",
          "name": "",
          "type": "uint256"
        }
      ],
      "stateMutability": "view",
      "type": "function"
    },
    {
      "inputs": [],
      "name": "getGames",
      "outputs": [
        {
          "components": [
            {
              "internalType": "uint256",
              "name": "id",
              "type": "uint256"
            },
            {
              "internalType": "address",
              "name": "player1",
              "type": "address"
            },
            {
              "internalType": "address",
              "name": "player2",
              "type": "address"
            },
            {
              "internalType": "uint256",
              "name": "bet",
              "type": "uint256"
            },
            {
              "internalType": "uint16",
              "name": "duration",
              "type": "uint16"
            },
            {
              "internalType": "uint256",
              "name": "timestamp",
              "type": "uint256"
            },
            {
              "internalType": "bytes32",
              "name": "encryptedMove",
              "type": "bytes32"
            },
            {
              "internalType": "enum IRockPaperScissors.Hand",
              "name": "decryptedMove",
              "type": "uint8"
            },
            {
              "internalType": "enum IRockPaperScissors.Hand",
              "name": "move",
              "type": "uint8"
            },
            {
              "internalType": "enum IRockPaperScissors.Status",
              "name": "status",
              "type": "uint8"
            }
          ],
          "internalType": "struct IRockPaperScissors.Game[]",
          "name": "",
          "type": "tuple[]"
        }
      ],
      "stateMutability": "view",
      "type": "function"
    },
    {
      "inputs": [],
      "name": "owner",
      "outputs": [
        {
          "internalType": "address",
          "name": "",
          "type": "address"
        }
      ],
      "stateMutability": "view",
      "type": "function"
    },
    {
      "inputs": [
        {
          "internalType": "uint256",
          "name": "_gameId",
          "type": "uint256"
        },
        {
          "internalType": "enum IRockPaperScissors.Hand",
          "name": "_move",
          "type": "uint8"
        }
      ],
      "name": "playGame",
      "outputs": [],
      "stateMutability": "nonpayable",
      "type": "function"
    },
    {
      "inputs": [
        {
          "internalType": "address",
          "name": "",
          "type": "address"
        }
      ],
      "name": "playerToId",
      "outputs": [
        {
          "internalType": "uint256",
          "name": "",
          "type": "uint256"
        }
      ],
      "stateMutability": "view",
      "type": "function"
    },
    {
      "inputs": [
        {
          "internalType": "uint256",
          "name": "_gameId",
          "type": "uint256"
        }
      ],
      "name": "quitGame",
      "outputs": [],
      "stateMutability": "nonpayable",
      "type": "function"
    },
    {
      "inputs": [],
      "name": "renounceOwnership",
      "outputs": [],
      "stateMutability": "nonpayable",
      "type": "function"
    },
    {
      "inputs": [],
      "name": "rps",
      "outputs": [
        {
          "internalType": "contract IRPS",
          "name": "",
          "type": "address"
        }
      ],
      "stateMutability": "view",
      "type": "function"
    },
    {
      "inputs": [],
      "name": "rpsFee",
      "outputs": [
        {
          "internalType": "uint8",
          "name": "",
          "type": "uint8"
        }
      ],
      "stateMutability": "view",
      "type": "function"
    },
    {
      "inputs": [],
      "name": "rpsPrice",
      "outputs": [
        {
          "internalType": "uint256",
          "name": "",
          "type": "uint256"
        }
      ],
      "stateMutability": "view",
      "type": "function"
    },
    {
      "inputs": [
        {
          "internalType": "uint256",
          "name": "_amount",
          "type": "uint256"
        }
      ],
      "name": "sellRPS",
      "outputs": [],
      "stateMutability": "nonpayable",
      "type": "function"
    },
    {
      "inputs": [
        {
          "internalType": "uint8",
          "name": "_rpsFee",
          "type": "uint8"
        }
      ],
      "name": "setRPSFee",
      "outputs": [],
      "stateMutability": "nonpayable",
      "type": "function"
    },
    {
      "inputs": [
        {
          "internalType": "uint256",
          "name": "_rpsPrice",
          "type": "uint256"
        }
      ],
      "name": "setRPSPrice",
      "outputs": [],
      "stateMutability": "nonpayable",
      "type": "function"
    },
    {
      "inputs": [],
      "name": "totalPlayerIds",
      "outputs": [
        {
          "internalType": "uint256",
          "name": "",
          "type": "uint256"
        }
      ],
      "stateMutability": "view",
      "type": "function"
    },
    {
      "inputs": [
        {
          "internalType": "address",
          "name": "newOwner",
          "type": "address"
        }
      ],
      "name": "transferOwnership",
      "outputs": [],
      "stateMutability": "nonpayable",
      "type": "function"
    },
    {
      "inputs": [
        {
          "internalType": "address",
          "name": "_tokenContractAddress",
          "type": "address"
        },
        {
          "internalType": "uint256",
          "name": "_amount",
          "type": "uint256"
        }
      ],
      "name": "withdrawERC20Token",
      "outputs": [],
      "stateMutability": "nonpayable",
      "type": "function"
    },
    {
      "inputs": [
        {
          "internalType": "uint256",
          "name": "_amount",
          "type": "uint256"
        }
      ],
      "name": "withdrawEtherBalance",
      "outputs": [],
      "stateMutability": "nonpayable",
      "type": "function"
    },
    {
      "stateMutability": "payable",
      "type": "receive"
    }
  ],
  "transactionHash": "0xedf02da4ad12aaf2a9f02538f0cfab8e561f386971f0ee65f7c5dfb4ef29a150",
  "args": [
    "0xF64d6e89c6c521405e19f384F95f16e77B2110fE"
  ],
  "solcInputHash": "3ee148255b2d5714913e84c20e0fe8f2",
  "bytecode": "0x60a0604052662386f26fc100006006556007805460ff1916600a1790553480156200002957600080fd5b5060405162005718380380620057188339810160408190526200004c91620000bd565b62000057336200006d565b60601b6001600160601b031916608052620000ef565b600080546001600160a01b038381166001600160a01b0319831681178455604051919092169283917f8be0079c531659141344cd1fd0a4f28419497f9722a3daafe3b4186f6b6457e09190a35050565b600060208284031215620000d057600080fd5b81516001600160a01b0381168114620000e857600080fd5b9392505050565b60805160601c6155c4620001546000396000818161045d01528181610b940152818161110d015281816114a3015281816128cc01528181612b0a01528181613b9101528181613ff20152818161451d0152818161466a01526146c801526155c46000f3fe6080604052600436106101c65760003560e01c806392b4bb50116100f7578063d52304eb11610095578063ef91a30811610064578063ef91a30814610588578063f2fde38b146105a8578063f75b66fe146105c8578063face17d8146105d057610209565b8063d52304eb1461052a578063e46de65e14610540578063e50e2c2d14610560578063ea46193e1461057557610209565b8063b313363a116100d1578063b313363a146104bf578063c04c5947146104d5578063c64253e9146104ea578063cde85e8d1461050a57610209565b806392b4bb501461044b578063a3a8becd1461047f578063a904cc531461049f57610209565b806340a9eeff116101645780638011fa851161013e5780638011fa85146103ac57806380122bcf146103cc5780638da5cb5b146103f9578063928d81c11461042b57610209565b806340a9eeff1461035657806362e7c6081461036b578063715018a61461039757610209565b80631b76929c116101a05780631b76929c146102ce5780632d6089dc146102f05780633541189e146103145780633c4f5a661461033457610209565b8063117a5b901461024f57806315431a6a1461028e57806316f99211146102ae57610209565b366102095734156102075760405134815233907f88a5966d370b9919b20f3e2c13ff65706f196a4e32cc2c12bf57088f885258749060200160405180910390a25b005b60405162461bcd60e51b815260206004820152601660248201527515dc9bdb99c818d85b1b081d1bc818dbdb9d1c9858dd60521b60448201526064015b60405180910390fd5b34801561025b57600080fd5b5061026f61026a366004614ebb565b6105f0565b6040516102859a99989796959493929190615379565b60405180910390f35b34801561029a57600080fd5b506102076102a9366004614f50565b61066d565b3480156102ba57600080fd5b506102076102c9366004614ebb565b610e00565b3480156102da57600080fd5b506102e361119f565b6040516102859190615135565b3480156102fc57600080fd5b5061030660065481565b604051908152602001610285565b34801561032057600080fd5b5061020761032f366004614ebb565b61143f565b34801561034057600080fd5b5061034961161c565b60405161028591906150e8565b34801561036257600080fd5b506102e3612022565b34801561037757600080fd5b506007546103859060ff1681565b60405160ff9091168152602001610285565b3480156103a357600080fd5b506102076122bd565b3480156103b857600080fd5b506102076103c7366004614ebb565b6122f3565b3480156103d857600080fd5b506103066103e7366004614e0d565b60026020526000908152604090205481565b34801561040557600080fd5b506000546001600160a01b03165b6040516001600160a01b039091168152602001610285565b34801561043757600080fd5b50610207610446366004614e2f565b61236f565b34801561045757600080fd5b506104137f000000000000000000000000000000000000000000000000000000000000000081565b34801561048b57600080fd5b5061020761049a366004614ed4565b612421565b3480156104ab57600080fd5b506102076104ba366004614ebb565b612d2a565b3480156104cb57600080fd5b5061030660055481565b3480156104e157600080fd5b506102e3612db9565b3480156104f657600080fd5b50610207610505366004614f84565b612f17565b34801561051657600080fd5b506102e3610525366004614e0d565b612fa4565b34801561053657600080fd5b5061030660045481565b34801561054c57600080fd5b506102e361055b366004614e0d565b6132cd565b34801561056c57600080fd5b5061034961370c565b34801561058157600080fd5b5047610306565b34801561059457600080fd5b506102076105a3366004614e7b565b613b2e565b3480156105b457600080fd5b506102076105c3366004614e0d565b613ed5565b610207613f70565b3480156105dc57600080fd5b506102076105eb366004614ebb565b614093565b6001818154811061060057600080fd5b6000918252602090912060089091020180546001820154600283015460038401546004850154600586015460068701546007909701549597506001600160a01b03948516969490931694919361ffff909116929160ff80821691610100810482169162010000909104168a565b60015482906000906106915760405162461bcd60e51b815260040161024690615178565b6000828152600360205260408120546001805490919081106106b5576106b5615542565b6000918252602091829020604080516101408101825260089093029091018054835260018101546001600160a01b03908116948401949094526002810154909316908201526003808301546060830152600483015461ffff166080830152600583015460a0830152600683015460c0830152600783015491929160e084019160ff9091169081111561074957610749615516565b600381111561075a5761075a615516565b81526020016007820160019054906101000a900460ff16600381111561078257610782615516565b600381111561079357610793615516565b81526020016007820160029054906101000a900460ff1660048111156107bb576107bb615516565b60048111156107cc576107cc615516565b81525050905060045483106107f35760405162461bcd60e51b8152600401610246906152a4565b805183146108135760405162461bcd60e51b815260040161024690615240565b81610853576000816101200151600481111561083157610831615516565b1461084e5760405162461bcd60e51b815260040161024690615209565b6109e6565b816001141561094f576001816101200151600481111561087557610875615516565b146109235760005b816101200151600481111561089457610894615516565b14156108e25760405162461bcd60e51b815260206004820152601860248201527f47616d6520686173206e6f7420737461727465642079657400000000000000006044820152606401610246565b60405162461bcd60e51b815260206004820152601660248201527511d85b59481a185cc8185b1c9958591e48195b99195960521b6044820152606401610246565b60208101516001600160a01b0316331461084e5760405162461bcd60e51b8152600401610246906151af565b81600214156109845760408101516001600160a01b0316331461084e5760405162461bcd60e51b8152600401610246906151dc565b6000816101200151600481111561099d5761099d615516565b146109ba5760405162461bcd60e51b815260040161024690615209565b60208101516001600160a01b031633146109e65760405162461bcd60e51b8152600401610246906151af565b60008460038111156109fa576109fa615516565b1415610a375760405162461bcd60e51b815260206004820152600c60248201526b496e76616c6964206d6f766560a01b6044820152606401610246565b600085815260036020526040812054600180549091908110610a5b57610a5b615542565b6000918252602091829020604080516101408101825260089093029091018054835260018101546001600160a01b03908116948401949094526002810154909316908201526003808301546060830152600483015461ffff166080830152600583015460a0830152600683015460c0830152600783015491929160e084019160ff90911690811115610aef57610aef615516565b6003811115610b0057610b00615516565b81526020016007820160019054906101000a900460ff166003811115610b2857610b28615516565b6003811115610b3957610b39615516565b81526020016007820160029054906101000a900460ff166004811115610b6157610b61615516565b6004811115610b7257610b72615516565b9052506060810151604051632770a7eb60e21b81529192506001600160a01b037f00000000000000000000000000000000000000000000000000000000000000001691639dc29fac91610bca913391906004016150cf565b600060405180830381600087803b158015610be457600080fd5b505af1158015610bf8573d6000803e3d6000fd5b505033604084015250504260a08201526101008101856003811115610c1f57610c1f615516565b90816003811115610c3257610c32615516565b905250600161012082018190526000878152600360205260409020548154839291908110610c6257610c62615542565b6000918252602091829020835160089092020190815590820151600180830180546001600160a01b039384166001600160a01b0319918216179091556040850151600285018054919094169116179091556060830151600380840191909155608084015160048401805461ffff90921661ffff1990921691909117905560a0840151600584015560c0840151600684015560e08401516007840180549193909260ff19909216918490811115610d1a57610d1a615516565b0217905550610100828101516007830180549192909161ff00191690836003811115610d4857610d48615516565b021790555061012082015160078201805462ff0000191662010000836004811115610d7557610d75615516565b021790555090505085336001600160a01b03167fb81ccc3028607aea1921703d7e683d2ada18e8206360192395f810c94cbc006b83604051610db791906152d1565b60405180910390a333600090815260026020526040902054610df857600560008154610de290615499565b9182905550336000908152600260205260409020555b505050505050565b6001548190600390610e245760405162461bcd60e51b815260040161024690615178565b600082815260036020526040812054600180549091908110610e4857610e48615542565b6000918252602091829020604080516101408101825260089093029091018054835260018101546001600160a01b03908116948401949094526002810154909316908201526003808301546060830152600483015461ffff166080830152600583015460a0830152600683015460c0830152600783015491929160e084019160ff90911690811115610edc57610edc615516565b6003811115610eed57610eed615516565b81526020016007820160019054906101000a900460ff166003811115610f1557610f15615516565b6003811115610f2657610f26615516565b81526020016007820160029054906101000a900460ff166004811115610f4e57610f4e615516565b6004811115610f5f57610f5f615516565b8152505090506004548310610f865760405162461bcd60e51b8152600401610246906152a4565b80518314610fa65760405162461bcd60e51b815260040161024690615240565b81610fe65760008161012001516004811115610fc457610fc4615516565b14610fe15760405162461bcd60e51b815260040161024690615209565b6110d7565b8160011415611040576001816101200151600481111561100857611008615516565b1461101457600061087d565b60208101516001600160a01b03163314610fe15760405162461bcd60e51b8152600401610246906151af565b81600214156110755760408101516001600160a01b03163314610fe15760405162461bcd60e51b8152600401610246906151dc565b6000816101200151600481111561108e5761108e615516565b146110ab5760405162461bcd60e51b815260040161024690615209565b60208101516001600160a01b031633146110d75760405162461bcd60e51b8152600401610246906151af565b6000848152600360205260408120546001805490919081106110fb576110fb615542565b906000526020600020906008020190507f00000000000000000000000000000000000000000000000000000000000000006001600160a01b03166340c10f193383600301546040518363ffffffff1660e01b815260040161115d9291906150cf565b600060405180830381600087803b15801561117757600080fd5b505af115801561118b573d6000803e3d6000fd5b505050506111988561475b565b5050505050565b60606000805b600154811015611219576000600182815481106111c4576111c4615542565b906000526020600020906008020160070160029054906101000a900460ff1660048111156111f4576111f4615516565b14611207578161120381615499565b9250505b8061121181615499565b9150506111a5565b5060008167ffffffffffffffff81111561123557611235615558565b60405190808252806020026020018201604052801561126e57816020015b61125b614d9f565b8152602001906001900390816112535790505b5090506000915060005b6001548110156114385760006001828154811061129757611297615542565b906000526020600020906008020160070160029054906101000a900460ff1660048111156112c7576112c7615516565b1461142657600181815481106112df576112df615542565b6000918252602091829020604080516101408101825260089093029091018054835260018101546001600160a01b03908116948401949094526002810154909316908201526003808301546060830152600483015461ffff166080830152600583015460a0830152600683015460c0830152600783015491929160e084019160ff9091169081111561137357611373615516565b600381111561138457611384615516565b81526020016007820160019054906101000a900460ff1660038111156113ac576113ac615516565b60038111156113bd576113bd615516565b81526020016007820160029054906101000a900460ff1660048111156113e5576113e5615516565b60048111156113f6576113f6615516565b8152505082848151811061140c5761140c615542565b6020026020010181905250828061142290615499565b9350505b8061143081615499565b915050611278565b5092915050565b8061148c5760405162461bcd60e51b815260206004820152601b60248201527f546f6b656e20616d6f756e742063616e6e6f74206265207a65726f00000000006044820152606401610246565b604051632770a7eb60e21b81526001600160a01b037f00000000000000000000000000000000000000000000000000000000000000001690639dc29fac906114da90339085906004016150cf565b600060405180830381600087803b1580156114f457600080fd5b505af1158015611508573d6000803e3d6000fd5b50506040518381523392507f98e735fdb3621639a888ed598b25df3a24cd9e9e93e0f558c369ce8f4b7385c9915060200160405180910390a2600754600654600091339160649160ff169061155e908690615440565b6115689190615440565b611572919061542c565b836006546115809190615440565b61158a919061545f565b6040515b60006040518083038185875af1925050503d80600081146115cb576040519150601f19603f3d011682016040523d82523d6000602084013e6115d0565b606091505b50509050806116185760405162461bcd60e51b81526020600482015260146024820152732330b4b632b2103a379039b2b7321032ba3432b960611b6044820152606401610246565b5050565b60606000805b6001548110156116f257600180828154811061164057611640615542565b906000526020600020906008020160070160029054906101000a900460ff16600481111561167057611670615516565b1415611688576116816002836153ef565b91506116e0565b60006001828154811061169d5761169d615542565b906000526020600020906008020160070160029054906101000a900460ff1660048111156116cd576116cd615516565b146116e057816116dc81615499565b9250505b806116ea81615499565b915050611622565b5060008167ffffffffffffffff81111561170e5761170e615558565b604051908082528060200260200182016040528015611737578160200160208202803683370190505b509050600091506000806000805b600154811015611b8b57600180828154811061176357611763615542565b906000526020600020906008020160070160029054906101000a900460ff16600481111561179357611793615516565b1480156118025750600181815481106117ae576117ae615542565b6000918252602090912060026008909202010154600180546001600160a01b0390921691839081106117e2576117e2615542565b60009182526020909120600160089092020101546001600160a01b031614155b15611a1a576001818154811061181a5761181a615542565b906000526020600020906008020160010160009054906101000a90046001600160a01b031685878151811061185157611851615542565b6001600160a01b03909216602092830291909101909101528561187381615499565b9650506001818154811061188957611889615542565b906000526020600020906008020160020160009054906101000a90046001600160a01b03168587815181106118c0576118c0615542565b6001600160a01b0390921660209283029190910190910152856118e281615499565b96505060005b868110156119de576001828154811061190357611903615542565b600091825260209091206001600890920201015486516001600160a01b039091169087908390811061193757611937615542565b60200260200101516001600160a01b03161415611960578361195881615499565b9450506119cc565b6001828154811061197357611973615542565b600091825260209091206002600890920201015486516001600160a01b03909116908790839081106119a7576119a7615542565b60200260200101516001600160a01b031614156119cc57826119c881615499565b9350505b806119d681615499565b9150506118e8565b5082600114156119f657836119f281615499565b9450505b8160011415611a0d5783611a0981615499565b9450505b6000925060009150611b79565b600060018281548110611a2f57611a2f615542565b906000526020600020906008020160070160029054906101000a900460ff166004811115611a5f57611a5f615516565b14611b795760018181548110611a7757611a77615542565b906000526020600020906008020160020160009054906101000a90046001600160a01b0316858781518110611aae57611aae615542565b6001600160a01b039092166020928302919091019091015285611ad081615499565b96505060005b86811015611b5c5760018281548110611af157611af1615542565b600091825260209091206002600890920201015486516001600160a01b0390911690879083908110611b2557611b25615542565b60200260200101516001600160a01b03161415611b4a5782611b4681615499565b9350505b80611b5481615499565b915050611ad6565b508160011415611b745783611b7081615499565b9450505b600091505b80611b8381615499565b915050611745565b5060008367ffffffffffffffff811115611ba757611ba7615558565b604051908082528060200260200182016040528015611bd0578160200160208202803683370190505b509050600095506000935060005b600154811015612017576001808281548110611bfc57611bfc615542565b906000526020600020906008020160070160029054906101000a900460ff166004811115611c2c57611c2c615516565b148015611c9b575060018181548110611c4757611c47615542565b6000918252602090912060026008909202010154600180546001600160a01b039092169183908110611c7b57611c7b615542565b60009182526020909120600160089092020101546001600160a01b031614155b15611ea657611cab6002886153ef565b965060005b87811015611da65760018281548110611ccb57611ccb615542565b600091825260209091206001600890920201015487516001600160a01b0390911690889083908110611cff57611cff615542565b60200260200101516001600160a01b03161415611d285784611d2081615499565b955050611d94565b60018281548110611d3b57611d3b615542565b600091825260209091206002600890920201015487516001600160a01b0390911690889083908110611d6f57611d6f615542565b60200260200101516001600160a01b03161415611d945783611d9081615499565b9450505b80611d9e81615499565b915050611cb0565b508360011415611e205760018181548110611dc357611dc3615542565b906000526020600020906008020160010160009054906101000a90046001600160a01b0316828681518110611dfa57611dfa615542565b6001600160a01b039092166020928302919091019091015284611e1c81615499565b9550505b8260011415611e995760018181548110611e3c57611e3c615542565b906000526020600020906008020160020160009054906101000a90046001600160a01b0316828681518110611e7357611e73615542565b6001600160a01b039092166020928302919091019091015284611e9581615499565b9550505b6000935060009250612005565b600060018281548110611ebb57611ebb615542565b906000526020600020906008020160070160029054906101000a900460ff166004811115611eeb57611eeb615516565b146120055786611efa81615499565b97505060005b87811015611f865760018281548110611f1b57611f1b615542565b600091825260209091206002600890920201015487516001600160a01b0390911690889083908110611f4f57611f4f615542565b60200260200101516001600160a01b03161415611f745783611f7081615499565b9450505b80611f7e81615499565b915050611f00565b5082600114156120005760018181548110611fa357611fa3615542565b906000526020600020906008020160020160009054906101000a90046001600160a01b0316828681518110611fda57611fda615542565b6001600160a01b039092166020928302919091019091015284611ffc81615499565b9550505b600092505b8061200f81615499565b915050611bde565b509695505050505050565b60606000805b60015481101561209d5760006001828154811061204757612047615542565b906000526020600020906008020160070160029054906101000a900460ff16600481111561207757612077615516565b141561208b578161208781615499565b9250505b8061209581615499565b915050612028565b5060008167ffffffffffffffff8111156120b9576120b9615558565b6040519080825280602002602001820160405280156120f257816020015b6120df614d9f565b8152602001906001900390816120d75790505b5090506000915060005b6001548110156114385760006001828154811061211b5761211b615542565b906000526020600020906008020160070160029054906101000a900460ff16600481111561214b5761214b615516565b14156122ab576001818154811061216457612164615542565b6000918252602091829020604080516101408101825260089093029091018054835260018101546001600160a01b03908116948401949094526002810154909316908201526003808301546060830152600483015461ffff166080830152600583015460a0830152600683015460c0830152600783015491929160e084019160ff909116908111156121f8576121f8615516565b600381111561220957612209615516565b81526020016007820160019054906101000a900460ff16600381111561223157612231615516565b600381111561224257612242615516565b81526020016007820160029054906101000a900460ff16600481111561226a5761226a615516565b600481111561227b5761227b615516565b8152505082848151811061229157612291615542565b602002602001018190525082806122a790615499565b9350505b806122b581615499565b9150506120fc565b6000546001600160a01b031633146122e75760405162461bcd60e51b81526004016102469061526f565b6122f16000614a3a565b565b6000546001600160a01b0316331461231d5760405162461bcd60e51b81526004016102469061526f565b8061236a5760405162461bcd60e51b815260206004820152601a60248201527f546f6b656e2070726963652063616e6e6f74206265207a65726f0000000000006044820152606401610246565b600655565b6000546001600160a01b031633146123995760405162461bcd60e51b81526004016102469061526f565b60405163a9059cbb60e01b815282906001600160a01b0382169063a9059cbb906123c990339086906004016150cf565b602060405180830381600087803b1580156123e357600080fd5b505af11580156123f7573d6000803e3d6000fd5b505050506040513d601f19601f8201168201806040525081019061241b9190614e59565b50505050565b600180548491906124445760405162461bcd60e51b815260040161024690615178565b60008281526003602052604081205460018054909190811061246857612468615542565b6000918252602091829020604080516101408101825260089093029091018054835260018101546001600160a01b03908116948401949094526002810154909316908201526003808301546060830152600483015461ffff166080830152600583015460a0830152600683015460c0830152600783015491929160e084019160ff909116908111156124fc576124fc615516565b600381111561250d5761250d615516565b81526020016007820160019054906101000a900460ff16600381111561253557612535615516565b600381111561254657612546615516565b81526020016007820160029054906101000a900460ff16600481111561256e5761256e615516565b600481111561257f5761257f615516565b81525050905060045483106125a65760405162461bcd60e51b8152600401610246906152a4565b805183146125c65760405162461bcd60e51b815260040161024690615240565b8161260657600081610120015160048111156125e4576125e4615516565b146126015760405162461bcd60e51b815260040161024690615209565b6126f7565b8160011415612660576001816101200151600481111561262857612628615516565b1461263457600061087d565b60208101516001600160a01b031633146126015760405162461bcd60e51b8152600401610246906151af565b81600214156126955760408101516001600160a01b031633146126015760405162461bcd60e51b8152600401610246906151dc565b600081610120015160048111156126ae576126ae615516565b146126cb5760405162461bcd60e51b815260040161024690615209565b60208101516001600160a01b031633146126f75760405162461bcd60e51b8152600401610246906151af565b6000612704878787614a8a565b9050806101000151600381111561271d5761271d615516565b8160e00151600381111561273357612733615516565b141561293857600461012082015260008781526003602052604090205460018054839290811061276557612765615542565b6000918252602091829020835160089092020190815590820151600180830180546001600160a01b039384166001600160a01b0319918216179091556040850151600285018054919094169116179091556060830151600380840191909155608084015160048401805461ffff90921661ffff1990921691909117905560a0840151600584015560c0840151600684015560e08401516007840180549193909260ff1990921691849081111561281d5761281d615516565b0217905550610100828101516007830180549192909161ff0019169083600381111561284b5761284b615516565b021790555061012082015160078201805462ff000019166201000083600481111561287857612878615516565b021790555090505086336001600160a01b031660008051602061556f833981519152836040516128a891906152d1565b60405180910390a360608101516040516340c10f1960e01b81526001600160a01b037f000000000000000000000000000000000000000000000000000000000000000016916340c10f19916129019133916004016150cf565b600060405180830381600087803b15801561291b57600080fd5b505af115801561292f573d6000803e3d6000fd5b50505050612d21565b6003816101000151600381111561295157612951615516565b8260e00151600381111561296757612967615516565b612972906003615407565b61297c9190615476565b61298691906154c8565b60ff1660011415612ba65760026101208201526000878152600360205260409020546001805483929081106129bd576129bd615542565b6000918252602091829020835160089092020190815590820151600180830180546001600160a01b039384166001600160a01b0319918216179091556040850151600285018054919094169116179091556060830151600380840191909155608084015160048401805461ffff90921661ffff1990921691909117905560a0840151600584015560c0840151600684015560e08401516007840180549193909260ff19909216918490811115612a7557612a75615516565b0217905550610100828101516007830180549192909161ff00191690836003811115612aa357612aa3615516565b021790555061012082015160078201805462ff0000191662010000836004811115612ad057612ad0615516565b021790555090505086336001600160a01b031660008051602061556f83398151915283604051612b0091906152d1565b60405180910390a37f00000000000000000000000000000000000000000000000000000000000000006001600160a01b03166340c10f193383606001516002612b499190615440565b6040518363ffffffff1660e01b8152600401612b669291906150cf565b600060405180830381600087803b158015612b8057600080fd5b505af1158015612b94573d6000803e3d6000fd5b50505050612ba18761475b565b612d21565b6003610120820181905250600087815260036020526040902054600180548392908110612bd557612bd5615542565b6000918252602091829020835160089092020190815590820151600180830180546001600160a01b039384166001600160a01b0319918216179091556040850151600285018054919094169116179091556060830151600380840191909155608084015160048401805461ffff90921661ffff1990921691909117905560a0840151600584015560c0840151600684015560e08401516007840180549193909260ff19909216918490811115612c8d57612c8d615516565b0217905550610100828101516007830180549192909161ff00191690836003811115612cbb57612cbb615516565b021790555061012082015160078201805462ff0000191662010000836004811115612ce857612ce8615516565b021790555090505086336001600160a01b031660008051602061556f83398151915283604051612d1891906152d1565b60405180910390a35b50505050505050565b6000546001600160a01b03163314612d545760405162461bcd60e51b81526004016102469061526f565b80471015612da45760405162461bcd60e51b815260206004820152601d60248201527f496e73756666696369656e7420657468657220696e2062616c616e63650000006044820152606401610246565b6000336001600160a01b03168260405161158e565b60606001805480602002602001604051908101604052809291908181526020016000905b82821015612f0e5760008481526020908190206040805161014081018252600886029092018054835260018101546001600160a01b03908116948401949094526002810154909316908201526003808301546060830152600483015461ffff166080830152600583015460a0830152600683015460c0830152600783015491929160e084019160ff90911690811115612e7857612e78615516565b6003811115612e8957612e89615516565b81526020016007820160019054906101000a900460ff166003811115612eb157612eb1615516565b6003811115612ec257612ec2615516565b81526020016007820160029054906101000a900460ff166004811115612eea57612eea615516565b6004811115612efb57612efb615516565b8152505081526020019060010190612ddd565b50505050905090565b6000546001600160a01b03163314612f415760405162461bcd60e51b81526004016102469061526f565b60648160ff161115612f8e5760405162461bcd60e51b8152602060048201526016602482015275496e76616c6964206665652070657263656e7461676560501b6044820152606401610246565b6007805460ff191660ff92909216919091179055565b60606000805b60015481101561306257600060018281548110612fc957612fc9615542565b906000526020600020906008020160070160029054906101000a900460ff166004811115612ff957612ff9615516565b14801561303d5750836001600160a01b03166001828154811061301e5761301e615542565b60009182526020909120600160089092020101546001600160a01b0316145b15613050578161304c81615499565b9250505b8061305a81615499565b915050612faa565b5060008167ffffffffffffffff81111561307e5761307e615558565b6040519080825280602002602001820160405280156130b757816020015b6130a4614d9f565b81526020019060019003908161309c5790505b5090506000915060005b6001548110156132c5576000600182815481106130e0576130e0615542565b906000526020600020906008020160070160029054906101000a900460ff16600481111561311057613110615516565b1480156131545750846001600160a01b03166001828154811061313557613135615542565b60009182526020909120600160089092020101546001600160a01b0316145b156132b3576001818154811061316c5761316c615542565b6000918252602091829020604080516101408101825260089093029091018054835260018101546001600160a01b03908116948401949094526002810154909316908201526003808301546060830152600483015461ffff166080830152600583015460a0830152600683015460c0830152600783015491929160e084019160ff9091169081111561320057613200615516565b600381111561321157613211615516565b81526020016007820160019054906101000a900460ff16600381111561323957613239615516565b600381111561324a5761324a615516565b81526020016007820160029054906101000a900460ff16600481111561327257613272615516565b600481111561328357613283615516565b8152505082848151811061329957613299615542565b602002602001018190525082806132af90615499565b9350505b806132bd81615499565b9150506130c1565b509392505050565b60606000805b60015481101561341a5760018082815481106132f1576132f1615542565b906000526020600020906008020160070160029054906101000a900460ff16600481111561332157613321615516565b1480156133655750836001600160a01b03166001828154811061334657613346615542565b60009182526020909120600160089092020101546001600160a01b0316145b806133f5575060006001828154811061338057613380615542565b906000526020600020906008020160070160029054906101000a900460ff1660048111156133b0576133b0615516565b141580156133f55750836001600160a01b0316600182815481106133d6576133d6615542565b60009182526020909120600260089092020101546001600160a01b0316145b15613408578161340481615499565b9250505b8061341281615499565b9150506132d3565b5060008167ffffffffffffffff81111561343657613436615558565b60405190808252806020026020018201604052801561346f57816020015b61345c614d9f565b8152602001906001900390816134545790505b5090506000915060005b6001548110156132c557600180828154811061349757613497615542565b906000526020600020906008020160070160029054906101000a900460ff1660048111156134c7576134c7615516565b14801561350b5750846001600160a01b0316600182815481106134ec576134ec615542565b60009182526020909120600160089092020101546001600160a01b0316145b8061359b575060006001828154811061352657613526615542565b906000526020600020906008020160070160029054906101000a900460ff16600481111561355657613556615516565b1415801561359b5750846001600160a01b03166001828154811061357c5761357c615542565b60009182526020909120600260089092020101546001600160a01b0316145b156136fa57600181815481106135b3576135b3615542565b6000918252602091829020604080516101408101825260089093029091018054835260018101546001600160a01b03908116948401949094526002810154909316908201526003808301546060830152600483015461ffff166080830152600583015460a0830152600683015460c0830152600783015491929160e084019160ff9091169081111561364757613647615516565b600381111561365857613658615516565b81526020016007820160019054906101000a900460ff16600381111561368057613680615516565b600381111561369157613691615516565b81526020016007820160029054906101000a900460ff1660048111156136b9576136b9615516565b60048111156136ca576136ca615516565b815250508284815181106136e0576136e0615542565b602002602001018190525082806136f690615499565b9350505b8061370481615499565b915050613479565b60606000805b6001548110156137875760006001828154811061373157613731615542565b906000526020600020906008020160070160029054906101000a900460ff16600481111561376157613761615516565b1415613775578161377181615499565b9250505b8061377f81615499565b915050613712565b5060008167ffffffffffffffff8111156137a3576137a3615558565b6040519080825280602002602001820160405280156137cc578160200160208202803683370190505b5090506000915060008060005b600154811015613955576000600182815481106137f8576137f8615542565b906000526020600020906008020160070160029054906101000a900460ff16600481111561382857613828615516565b1415613943576001818154811061384157613841615542565b906000526020600020906008020160010160009054906101000a90046001600160a01b031684868151811061387857613878615542565b6001600160a01b03909216602092830291909101909101528461389a81615499565b95505060005b8581101561392657600182815481106138bb576138bb615542565b600091825260209091206001600890920201015485516001600160a01b03909116908690839081106138ef576138ef615542565b60200260200101516001600160a01b03161415613914578261391081615499565b9350505b8061391e81615499565b9150506138a0565b50816001141561393e578261393a81615499565b9350505b600091505b8061394d81615499565b9150506137d9565b5060008267ffffffffffffffff81111561397157613971615558565b60405190808252806020026020018201604052801561399a578160200160208202803683370190505b509050600094506000925060005b600154811015613b24576000600182815481106139c7576139c7615542565b906000526020600020906008020160070160029054906101000a900460ff1660048111156139f7576139f7615516565b1415613b125785613a0781615499565b96505060005b86811015613a935760018281548110613a2857613a28615542565b600091825260209091206001600890920201015486516001600160a01b0390911690879083908110613a5c57613a5c615542565b60200260200101516001600160a01b03161415613a815783613a7d81615499565b9450505b80613a8b81615499565b915050613a0d565b508260011415613b0d5760018181548110613ab057613ab0615542565b906000526020600020906008020160010160009054906101000a90046001600160a01b0316828581518110613ae757613ae7615542565b6001600160a01b039092166020928302919091019091015283613b0981615499565b9450505b600092505b80613b1c81615499565b9150506139a8565b5095945050505050565b6001600160ff1b03821115613b7a5760405162461bcd60e51b81526020600482015260126024820152715468652062657420697320746f6f2062696760701b6044820152606401610246565b604051632770a7eb60e21b81526001600160a01b037f00000000000000000000000000000000000000000000000000000000000000001690639dc29fac90613bc890339086906004016150cf565b600060405180830381600087803b158015613be257600080fd5b505af1158015613bf6573d6000803e3d6000fd5b50505050613c02614d9f565b60048054906000613c1283615499565b909155508082523360208084019182526060840186815261ffff8681166080870190815260c087018a81526001805460009889526003968790526040808a2082905581830183559882905289517fb10e2d527612073b26eecdfd717e6a320cf44b4afac2b0732d9fcbe2b7fa0cf6600890920291820190815597517fb10e2d527612073b26eecdfd717e6a320cf44b4afac2b0732d9fcbe2b7fa0cf7820180546001600160a01b03199081166001600160a01b0393841617909155998b01517fb10e2d527612073b26eecdfd717e6a320cf44b4afac2b0732d9fcbe2b7fa0cf883018054909b1691161790985593517fb10e2d527612073b26eecdfd717e6a320cf44b4afac2b0732d9fcbe2b7fa0cf988015590517fb10e2d527612073b26eecdfd717e6a320cf44b4afac2b0732d9fcbe2b7fa0cfa8701805461ffff1916919093161790915560a08601517fb10e2d527612073b26eecdfd717e6a320cf44b4afac2b0732d9fcbe2b7fa0cfb860155517fb10e2d527612073b26eecdfd717e6a320cf44b4afac2b0732d9fcbe2b7fa0cfc85015560e08501517fb10e2d527612073b26eecdfd717e6a320cf44b4afac2b0732d9fcbe2b7fa0cfd9094018054869593919260ff19909116918490811115613def57613def615516565b0217905550610100828101516007830180549192909161ff00191690836003811115613e1d57613e1d615516565b021790555061012082015160078201805462ff0000191662010000836004811115613e4a57613e4a615516565b021790555050508060000151336001600160a01b03167ff3d4e32e9e2cf3e4d2a4a7b0a24cd138ede4ff48011d38d9e01d603e566dd5bf83604051613e8f91906152d1565b60405180910390a33360009081526002602052604090205461241b57600560008154613eba90615499565b91829055503360009081526002602052604090205550505050565b6000546001600160a01b03163314613eff5760405162461bcd60e51b81526004016102469061526f565b6001600160a01b038116613f645760405162461bcd60e51b815260206004820152602660248201527f4f776e61626c653a206e6577206f776e657220697320746865207a65726f206160448201526564647265737360d01b6064820152608401610246565b613f6d81614a3a565b50565b600654613f7d90346154b4565b158015613f8957503415155b613fc85760405162461bcd60e51b815260206004820152601060248201526f15dc9bdb99c8195d1a195c881cd95b9d60821b6044820152606401610246565b600060065434613fd8919061542c565b6040516340c10f1960e01b81529091506001600160a01b037f000000000000000000000000000000000000000000000000000000000000000016906340c10f199061402990339085906004016150cf565b600060405180830381600087803b15801561404357600080fd5b505af1158015614057573d6000803e3d6000fd5b50506040518381523392507fc94e54aafdeb99c16a564f22d4fe8df775d0f6d8aaea26774868a2909638dd69915060200160405180910390a250565b60015481906002906140b75760405162461bcd60e51b815260040161024690615178565b6000828152600360205260408120546001805490919081106140db576140db615542565b6000918252602091829020604080516101408101825260089093029091018054835260018101546001600160a01b03908116948401949094526002810154909316908201526003808301546060830152600483015461ffff166080830152600583015460a0830152600683015460c0830152600783015491929160e084019160ff9091169081111561416f5761416f615516565b600381111561418057614180615516565b81526020016007820160019054906101000a900460ff1660038111156141a8576141a8615516565b60038111156141b9576141b9615516565b81526020016007820160029054906101000a900460ff1660048111156141e1576141e1615516565b60048111156141f2576141f2615516565b81525050905060045483106142195760405162461bcd60e51b8152600401610246906152a4565b805183146142395760405162461bcd60e51b815260040161024690615240565b81614279576000816101200151600481111561425757614257615516565b146142745760405162461bcd60e51b815260040161024690615209565b61436a565b81600114156142d3576001816101200151600481111561429b5761429b615516565b146142a757600061087d565b60208101516001600160a01b031633146142745760405162461bcd60e51b8152600401610246906151af565b81600214156143085760408101516001600160a01b031633146142745760405162461bcd60e51b8152600401610246906151dc565b6000816101200151600481111561432157614321615516565b1461433e5760405162461bcd60e51b815260040161024690615209565b60208101516001600160a01b0316331461436a5760405162461bcd60e51b8152600401610246906151af565b60008481526003602052604081205460018054909190811061438e5761438e615542565b90600052602060002090600802019050600060016003600088815260200190815260200160002054815481106143c6576143c6615542565b6000918252602091829020604080516101408101825260089093029091018054835260018101546001600160a01b03908116948401949094526002810154909316908201526003808301546060830152600483015461ffff166080830152600583015460a0830152600683015460c0830152600783015491929160e084019160ff9091169081111561445a5761445a615516565b600381111561446b5761446b615516565b81526020016007820160019054906101000a900460ff16600381111561449357614493615516565b60038111156144a4576144a4615516565b81526020016007820160029054906101000a900460ff1660048111156144cc576144cc615516565b60048111156144dd576144dd615516565b9052509050600481610120015160048111156144fb576144fb615516565b14156145925760608101516040516340c10f1960e01b81526001600160a01b037f000000000000000000000000000000000000000000000000000000000000000016916340c10f19916145529133916004016150cf565b600060405180830381600087803b15801561456c57600080fd5b505af1158015614580573d6000803e3d6000fd5b5050505061458d8661475b565b610df8565b600181610120015160048111156145ab576145ab615516565b14156146c657806080015161ffff168160a001516145c991906153ef565b42101561462b5760405162461bcd60e51b815260206004820152602a60248201527f506c617965722031207374696c6c206861732074696d6520746f2072657665616044820152696c20686973206d6f766560b01b6064820152608401610246565b60078201805462ff00001916620300001790556040518690339060008051602061556f833981519152906146609086906152e6565b60405180910390a37f00000000000000000000000000000000000000000000000000000000000000006001600160a01b03166340c10f1933836060015160026146a99190615440565b6040518363ffffffff1660e01b81526004016145529291906150cf565b7f00000000000000000000000000000000000000000000000000000000000000006001600160a01b03166340c10f1933836060015160026147079190615440565b6040518363ffffffff1660e01b81526004016147249291906150cf565b600060405180830381600087803b15801561473e57600080fd5b505af1158015614752573d6000803e3d6000fd5b50505050610df8865b60008181526003602052604081205460018054909190811061477f5761477f615542565b9060005260206000209060080201905081336001600160a01b03167f81cf2674e2557b44d18f70b50c2b4d34408780e31ec724ee6ed65b749273167b836040516147c991906152e6565b60405180910390a3600180546147e090829061545f565b815481106147f0576147f0615542565b9060005260206000209060080201600160036000858152602001908152602001600020548154811061482457614824615542565b60009182526020909120825460089092020190815560018083015481830180546001600160a01b03199081166001600160a01b03938416179091556002808601549085018054909216921691909117905560038084015481840155600480850154908401805461ffff191661ffff9092169190911790556005808501549084015560068085015490840155600780850154908401805460ff90921693909260ff199092169184908111156148da576148da615516565b0217905550600782810154908201805460ff61010093849004169261ff00199091169083600381111561490f5761490f615516565b0217905550600782810154908201805460ff6201000093849004169262ff0000199091169083600481111561494657614946615516565b0217905550505060008281526003602081905260408220546001805491939161497090829061545f565b8154811061498057614980615542565b906000526020600020906008020160000154815260200190815260200160002081905550600360008381526020019081526020016000206000905560018054806149cc576149cc61552c565b6000828152602081206008600019909301928302018181556001810180546001600160a01b031990811690915560028201805490911690556003810182905560048101805461ffff19169055600581018290556006810191909155600701805462ffffff1916905590555050565b600080546001600160a01b038381166001600160a01b0319831681178455604051919092169283917f8be0079c531659141344cd1fd0a4f28419497f9722a3daafe3b4186f6b6457e09190a35050565b614a92614d9f565b600084815260036020526040812054600180549091908110614ab657614ab6615542565b6000918252602091829020604080516101408101825260089093029091018054835260018101546001600160a01b03908116948401949094526002810154909316908201526003808301546060830152600483015461ffff166080830152600583015460a0830152600683015460c0830152600783015491929160e084019160ff90911690811115614b4a57614b4a615516565b6003811115614b5b57614b5b615516565b81526020016007820160019054906101000a900460ff166003811115614b8357614b83615516565b6003811115614b9457614b94615516565b81526020016007820160029054906101000a900460ff166004811115614bbc57614bbc615516565b6004811115614bcd57614bcd615516565b8152505090508060c0015160018585604051602001614bee939291906150ae565b604051602081830303815290604052805190602001201480614c3e57508060c0015184846001604051602001614c269392919061508b565b60405160208183030381529060405280519060200120145b15614c655760e0810160015b90816003811115614c5d57614c5d615516565b905250614d97565b8060c0015160028585604051602001614c80939291906150ae565b604051602081830303815290604052805190602001201480614cd057508060c0015184846002604051602001614cb89392919061508b565b60405160208183030381529060405280519060200120145b15614ce05760e081016002614c4a565b8060c0015160038585604051602001614cfb939291906150ae565b604051602081830303815290604052805190602001201480614d4b57508060c0015184846003604051602001614d339392919061508b565b60405160208183030381529060405280519060200120145b15614d5b5760e081016003614c4a565b60405162461bcd60e51b8152602060048201526011602482015270111958dc9e5c1d1a5bdb8819985a5b1959607a1b6044820152606401610246565b949350505050565b6040805161014081018252600080825260208201819052918101829052606081018290526080810182905260a0810182905260c081018290529060e08201908152602001600081526020016000905290565b80356001600160a01b0381168114614e0857600080fd5b919050565b600060208284031215614e1f57600080fd5b614e2882614df1565b9392505050565b60008060408385031215614e4257600080fd5b614e4b83614df1565b946020939093013593505050565b600060208284031215614e6b57600080fd5b81518015158114614e2857600080fd5b600080600060608486031215614e9057600080fd5b8335925060208401359150604084013561ffff81168114614eb057600080fd5b809150509250925092565b600060208284031215614ecd57600080fd5b5035919050565b600080600060408486031215614ee957600080fd5b83359250602084013567ffffffffffffffff80821115614f0857600080fd5b818601915086601f830112614f1c57600080fd5b813581811115614f2b57600080fd5b876020828501011115614f3d57600080fd5b6020830194508093505050509250925092565b60008060408385031215614f6357600080fd5b82359150602083013560048110614f7957600080fd5b809150509250929050565b600060208284031215614f9657600080fd5b813560ff81168114614e2857600080fd5b60048110614fb757614fb7615516565b9052565b60048110614fcb57614fcb615516565b60f81b9052565b60058110614fb757614fb7615516565b80518252602081015161500060208401826001600160a01b03169052565b50604081015161501b60408401826001600160a01b03169052565b5060608101516060830152608081015161503b608084018261ffff169052565b5060a081015160a083015260c081015160c083015260e081015161506260e0840182614fa7565b506101008082015161507682850182614fa7565b50506101208082015161241b82850182614fd2565b828482376000838201600081526150a28185614fbb565b60010195945050505050565b6150b88185614fbb565b818360018301376000910160010190815292915050565b6001600160a01b03929092168252602082015260400190565b6020808252825182820181905260009190848201906040850190845b818110156151295783516001600160a01b031683529284019291840191600101615104565b50909695505050505050565b6020808252825182820181905260009190848201906040850190845b8181101561512957615164838551614fe2565b928401926101409290920191600101615151565b60208082526017908201527f5468652067616d6573206c69737420697320656d707479000000000000000000604082015260600190565b602080825260139082015272506c617965722031206973206e6f7420796f7560681b604082015260600190565b602080825260139082015272506c617965722032206973206e6f7420796f7560681b604082015260600190565b60208082526018908201527f47616d652068617320616c726561647920737461727465640000000000000000604082015260600190565b60208082526015908201527411d85b59481a185cc81899595b8819195b195d1959605a1b604082015260600190565b6020808252818101527f4f776e61626c653a2063616c6c6572206973206e6f7420746865206f776e6572604082015260600190565b60208082526013908201527211d85b5948191bd95cc81b9bdd08195e1a5cdd606a1b604082015260600190565b61014081016152e08284614fe2565b92915050565b8154815260018201546001600160a01b039081166020830152600283015416604082015260038201546060820152600482015461ffff166080820152600582015460a0820152600682015460c0820152600782015461014082019061535160e0840160ff8316614fa7565b615365610100840160ff8360081c16614fa7565b611438610120840160ff8360101c16614fd2565b8a81526001600160a01b038a81166020830152891660408201526060810188905261ffff8716608082015260a0810186905260c0810185905261014081016153c460e0830186614fa7565b6153d2610100830185614fa7565b6153e0610120830184614fd2565b9b9a5050505050505050505050565b60008219821115615402576154026154ea565b500190565b600060ff821660ff84168060ff03821115615424576154246154ea565b019392505050565b60008261543b5761543b615500565b500490565b600081600019048311821515161561545a5761545a6154ea565b500290565b600082821015615471576154716154ea565b500390565b600060ff821660ff841680821015615490576154906154ea565b90039392505050565b60006000198214156154ad576154ad6154ea565b5060010190565b6000826154c3576154c3615500565b500690565b600060ff8316806154db576154db615500565b8060ff84160691505092915050565b634e487b7160e01b600052601160045260246000fd5b634e487b7160e01b600052601260045260246000fd5b634e487b7160e01b600052602160045260246000fd5b634e487b7160e01b600052603160045260246000fd5b634e487b7160e01b600052603260045260246000fd5b634e487b7160e01b600052604160045260246000fdfe0c8a0eb83f1fa942580c696fa670ec638246f1a368385c788c33d678017e737ba264697066735822122020f4c0c00618f010d65cb787971032fb6cf6283bbcf973eb3e0ca33b917701e164736f6c63430008070033",
  "devdoc": {
    "kind": "dev",
    "methods": {
      "owner()": {
        "details": "Returns the address of the current owner."
      },
      "renounceOwnership()": {
        "details": "Leaves the contract without owner. It will not be possible to call `onlyOwner` functions anymore. Can only be called by the current owner. NOTE: Renouncing ownership will leave the contract without an owner, thereby removing any functionality that is only available to the owner."
      },
      "transferOwnership(address)": {
        "details": "Transfers ownership of the contract to a new account (`newOwner`). Can only be called by the current owner."
      }
    },
    "version": 1
  },
  "userdoc": {
    "kind": "user",
    "methods": {},
    "version": 1
  },
  "storageLayout": {
    "storage": [
      {
        "astId": 7,
        "contract": "contracts/RockPaperScissors.sol:RockPaperScissors",
        "label": "_owner",
        "offset": 0,
        "slot": "0",
        "type": "t_address"
      },
      {
        "astId": 1034,
        "contract": "contracts/RockPaperScissors.sol:RockPaperScissors",
        "label": "games",
        "offset": 0,
        "slot": "1",
        "type": "t_array(t_struct(Game)831_storage)dyn_storage"
      },
      {
        "astId": 1038,
        "contract": "contracts/RockPaperScissors.sol:RockPaperScissors",
        "label": "playerToId",
        "offset": 0,
        "slot": "2",
        "type": "t_mapping(t_address,t_uint256)"
      },
      {
        "astId": 1042,
        "contract": "contracts/RockPaperScissors.sol:RockPaperScissors",
        "label": "_gameIdToIndex",
        "offset": 0,
        "slot": "3",
        "type": "t_mapping(t_uint256,t_uint256)"
      },
      {
        "astId": 1044,
        "contract": "contracts/RockPaperScissors.sol:RockPaperScissors",
        "label": "gamesCreated",
        "offset": 0,
        "slot": "4",
        "type": "t_uint256"
      },
      {
        "astId": 1046,
        "contract": "contracts/RockPaperScissors.sol:RockPaperScissors",
        "label": "totalPlayerIds",
        "offset": 0,
        "slot": "5",
        "type": "t_uint256"
      },
      {
        "astId": 1049,
        "contract": "contracts/RockPaperScissors.sol:RockPaperScissors",
        "label": "rpsPrice",
        "offset": 0,
        "slot": "6",
        "type": "t_uint256"
      },
      {
        "astId": 1052,
        "contract": "contracts/RockPaperScissors.sol:RockPaperScissors",
        "label": "rpsFee",
        "offset": 0,
        "slot": "7",
        "type": "t_uint8"
      }
    ],
    "types": {
      "t_address": {
        "encoding": "inplace",
        "label": "address",
        "numberOfBytes": "20"
      },
      "t_array(t_struct(Game)831_storage)dyn_storage": {
        "base": "t_struct(Game)831_storage",
        "encoding": "dynamic_array",
        "label": "struct IRockPaperScissors.Game[]",
        "numberOfBytes": "32"
      },
      "t_bytes32": {
        "encoding": "inplace",
        "label": "bytes32",
        "numberOfBytes": "32"
      },
      "t_enum(Hand)801": {
        "encoding": "inplace",
        "label": "enum IRockPaperScissors.Hand",
        "numberOfBytes": "1"
      },
      "t_enum(Status)807": {
        "encoding": "inplace",
        "label": "enum IRockPaperScissors.Status",
        "numberOfBytes": "1"
      },
      "t_mapping(t_address,t_uint256)": {
        "encoding": "mapping",
        "key": "t_address",
        "label": "mapping(address => uint256)",
        "numberOfBytes": "32",
        "value": "t_uint256"
      },
      "t_mapping(t_uint256,t_uint256)": {
        "encoding": "mapping",
        "key": "t_uint256",
        "label": "mapping(uint256 => uint256)",
        "numberOfBytes": "32",
        "value": "t_uint256"
      },
      "t_struct(Game)831_storage": {
        "encoding": "inplace",
        "label": "struct IRockPaperScissors.Game",
        "members": [
          {
            "astId": 809,
            "contract": "contracts/RockPaperScissors.sol:RockPaperScissors",
            "label": "id",
            "offset": 0,
            "slot": "0",
            "type": "t_uint256"
          },
          {
            "astId": 811,
            "contract": "contracts/RockPaperScissors.sol:RockPaperScissors",
            "label": "player1",
            "offset": 0,
            "slot": "1",
            "type": "t_address"
          },
          {
            "astId": 813,
            "contract": "contracts/RockPaperScissors.sol:RockPaperScissors",
            "label": "player2",
            "offset": 0,
            "slot": "2",
            "type": "t_address"
          },
          {
            "astId": 815,
            "contract": "contracts/RockPaperScissors.sol:RockPaperScissors",
            "label": "bet",
            "offset": 0,
            "slot": "3",
            "type": "t_uint256"
          },
          {
            "astId": 817,
            "contract": "contracts/RockPaperScissors.sol:RockPaperScissors",
            "label": "duration",
            "offset": 0,
            "slot": "4",
            "type": "t_uint16"
          },
          {
            "astId": 819,
            "contract": "contracts/RockPaperScissors.sol:RockPaperScissors",
            "label": "timestamp",
            "offset": 0,
            "slot": "5",
            "type": "t_uint256"
          },
          {
            "astId": 821,
            "contract": "contracts/RockPaperScissors.sol:RockPaperScissors",
            "label": "encryptedMove",
            "offset": 0,
            "slot": "6",
            "type": "t_bytes32"
          },
          {
            "astId": 824,
            "contract": "contracts/RockPaperScissors.sol:RockPaperScissors",
            "label": "decryptedMove",
            "offset": 0,
            "slot": "7",
            "type": "t_enum(Hand)801"
          },
          {
            "astId": 827,
            "contract": "contracts/RockPaperScissors.sol:RockPaperScissors",
            "label": "move",
            "offset": 1,
            "slot": "7",
            "type": "t_enum(Hand)801"
          },
          {
            "astId": 830,
            "contract": "contracts/RockPaperScissors.sol:RockPaperScissors",
            "label": "status",
            "offset": 2,
            "slot": "7",
            "type": "t_enum(Status)807"
          }
        ],
        "numberOfBytes": "256"
      },
      "t_uint16": {
        "encoding": "inplace",
        "label": "uint16",
        "numberOfBytes": "2"
      },
      "t_uint256": {
        "encoding": "inplace",
        "label": "uint256",
        "numberOfBytes": "32"
      },
      "t_uint8": {
        "encoding": "inplace",
        "label": "uint8",
        "numberOfBytes": "1"
      }
    }
  }
}