{
  "address": "0x33961864Cd000ba788c9BF397505f87E9BB4565E",
  "abi": [
    {
      "anonymous": false,
      "inputs": [
        {
          "indexed": true,
          "internalType": "address",
          "name": "_sender",
          "type": "address"
        },
        {
          "indexed": false,
          "internalType": "uint256",
          "name": "_value",
          "type": "uint256"
        }
      ],
      "name": "EtherReceived",
      "type": "event"
    },
    {
      "anonymous": false,
      "inputs": [
        {
          "indexed": true,
          "internalType": "address",
          "name": "_withdrawer",
          "type": "address"
        },
        {
          "indexed": false,
          "internalType": "uint256",
          "name": "_value",
          "type": "uint256"
        }
      ],
      "name": "EtherWithdrawn",
      "type": "event"
    },
    {
      "anonymous": false,
      "inputs": [
        {
          "indexed": true,
          "internalType": "address",
          "name": "_creator",
          "type": "address"
        },
        {
          "indexed": true,
          "internalType": "uint256",
          "name": "_gameId",
          "type": "uint256"
        },
        {
          "components": [
            {
              "internalType": "uint256",
              "name": "id",
              "type": "uint256"
            },
            {
              "internalType": "address",
              "name": "player1",
              "type": "address"
            },
            {
              "internalType": "address",
              "name": "player2",
              "type": "address"
            },
            {
              "internalType": "uint256",
              "name": "bet",
              "type": "uint256"
            },
            {
              "internalType": "uint16",
              "name": "duration",
              "type": "uint16"
            },
            {
              "internalType": "uint256",
              "name": "timestamp",
              "type": "uint256"
            },
            {
              "internalType": "bytes32",
              "name": "encryptedMove",
              "type": "bytes32"
            },
            {
              "internalType": "enum IRockPaperScissors.Hand",
              "name": "decryptedMove",
              "type": "uint8"
            },
            {
              "internalType": "enum IRockPaperScissors.Hand",
              "name": "move",
              "type": "uint8"
            },
            {
              "internalType": "enum IRockPaperScissors.Status",
              "name": "status",
              "type": "uint8"
            }
          ],
          "indexed": false,
          "internalType": "struct IRockPaperScissors.Game",
          "name": "_game",
          "type": "tuple"
        }
      ],
      "name": "GameCreated",
      "type": "event"
    },
    {
      "anonymous": false,
      "inputs": [
        {
          "indexed": true,
          "internalType": "address",
          "name": "_deleter",
          "type": "address"
        },
        {
          "indexed": true,
          "internalType": "uint256",
          "name": "_gameId",
          "type": "uint256"
        },
        {
          "components": [
            {
              "internalType": "uint256",
              "name": "id",
              "type": "uint256"
            },
            {
              "internalType": "address",
              "name": "player1",
              "type": "address"
            },
            {
              "internalType": "address",
              "name": "player2",
              "type": "address"
            },
            {
              "internalType": "uint256",
              "name": "bet",
              "type": "uint256"
            },
            {
              "internalType": "uint16",
              "name": "duration",
              "type": "uint16"
            },
            {
              "internalType": "uint256",
              "name": "timestamp",
              "type": "uint256"
            },
            {
              "internalType": "bytes32",
              "name": "encryptedMove",
              "type": "bytes32"
            },
            {
              "internalType": "enum IRockPaperScissors.Hand",
              "name": "decryptedMove",
              "type": "uint8"
            },
            {
              "internalType": "enum IRockPaperScissors.Hand",
              "name": "move",
              "type": "uint8"
            },
            {
              "internalType": "enum IRockPaperScissors.Status",
              "name": "status",
              "type": "uint8"
            }
          ],
          "indexed": false,
          "internalType": "struct IRockPaperScissors.Game",
          "name": "_game",
          "type": "tuple"
        }
      ],
      "name": "GameDeleted",
      "type": "event"
    },
    {
      "anonymous": false,
      "inputs": [
        {
          "indexed": true,
          "internalType": "address",
          "name": "_ender",
          "type": "address"
        },
        {
          "indexed": true,
          "internalType": "uint256",
          "name": "_gameId",
          "type": "uint256"
        },
        {
          "components": [
            {
              "internalType": "uint256",
              "name": "id",
              "type": "uint256"
            },
            {
              "internalType": "address",
              "name": "player1",
              "type": "address"
            },
            {
              "internalType": "address",
              "name": "player2",
              "type": "address"
            },
            {
              "internalType": "uint256",
              "name": "bet",
              "type": "uint256"
            },
            {
              "internalType": "uint16",
              "name": "duration",
              "type": "uint16"
            },
            {
              "internalType": "uint256",
              "name": "timestamp",
              "type": "uint256"
            },
            {
              "internalType": "bytes32",
              "name": "encryptedMove",
              "type": "bytes32"
            },
            {
              "internalType": "enum IRockPaperScissors.Hand",
              "name": "decryptedMove",
              "type": "uint8"
            },
            {
              "internalType": "enum IRockPaperScissors.Hand",
              "name": "move",
              "type": "uint8"
            },
            {
              "internalType": "enum IRockPaperScissors.Status",
              "name": "status",
              "type": "uint8"
            }
          ],
          "indexed": false,
          "internalType": "struct IRockPaperScissors.Game",
          "name": "_game",
          "type": "tuple"
        }
      ],
      "name": "GameEnded",
      "type": "event"
    },
    {
      "anonymous": false,
      "inputs": [
        {
          "indexed": true,
          "internalType": "address",
          "name": "_starter",
          "type": "address"
        },
        {
          "indexed": true,
          "internalType": "uint256",
          "name": "_gameId",
          "type": "uint256"
        },
        {
          "components": [
            {
              "internalType": "uint256",
              "name": "id",
              "type": "uint256"
            },
            {
              "internalType": "address",
              "name": "player1",
              "type": "address"
            },
            {
              "internalType": "address",
              "name": "player2",
              "type": "address"
            },
            {
              "internalType": "uint256",
              "name": "bet",
              "type": "uint256"
            },
            {
              "internalType": "uint16",
              "name": "duration",
              "type": "uint16"
            },
            {
              "internalType": "uint256",
              "name": "timestamp",
              "type": "uint256"
            },
            {
              "internalType": "bytes32",
              "name": "encryptedMove",
              "type": "bytes32"
            },
            {
              "internalType": "enum IRockPaperScissors.Hand",
              "name": "decryptedMove",
              "type": "uint8"
            },
            {
              "internalType": "enum IRockPaperScissors.Hand",
              "name": "move",
              "type": "uint8"
            },
            {
              "internalType": "enum IRockPaperScissors.Status",
              "name": "status",
              "type": "uint8"
            }
          ],
          "indexed": false,
          "internalType": "struct IRockPaperScissors.Game",
          "name": "_game",
          "type": "tuple"
        }
      ],
      "name": "GameStarted",
      "type": "event"
    },
    {
      "anonymous": false,
      "inputs": [
        {
          "indexed": true,
          "internalType": "address",
          "name": "previousOwner",
          "type": "address"
        },
        {
          "indexed": true,
          "internalType": "address",
          "name": "newOwner",
          "type": "address"
        }
      ],
      "name": "OwnershipTransferred",
      "type": "event"
    },
    {
      "stateMutability": "payable",
      "type": "fallback"
    },
    {
      "inputs": [
        {
          "internalType": "bytes32",
          "name": "_encryptedMove",
          "type": "bytes32"
        },
        {
          "internalType": "uint16",
          "name": "_duration",
          "type": "uint16"
        }
      ],
      "name": "createGame",
      "outputs": [],
      "stateMutability": "payable",
      "type": "function"
    },
    {
      "inputs": [
        {
          "internalType": "uint256",
          "name": "_gameId",
          "type": "uint256"
        },
        {
          "internalType": "bytes",
          "name": "_seed",
          "type": "bytes"
        }
      ],
      "name": "endGameAsPlayer1",
      "outputs": [],
      "stateMutability": "nonpayable",
      "type": "function"
    },
    {
      "inputs": [
        {
          "internalType": "uint256",
          "name": "_gameId",
          "type": "uint256"
        }
      ],
      "name": "endGameAsPlayer2",
      "outputs": [],
      "stateMutability": "nonpayable",
      "type": "function"
    },
    {
      "inputs": [
        {
          "internalType": "uint256",
          "name": "",
          "type": "uint256"
        }
      ],
      "name": "games",
      "outputs": [
        {
          "internalType": "uint256",
          "name": "id",
          "type": "uint256"
        },
        {
          "internalType": "address",
          "name": "player1",
          "type": "address"
        },
        {
          "internalType": "address",
          "name": "player2",
          "type": "address"
        },
        {
          "internalType": "uint256",
          "name": "bet",
          "type": "uint256"
        },
        {
          "internalType": "uint16",
          "name": "duration",
          "type": "uint16"
        },
        {
          "internalType": "uint256",
          "name": "timestamp",
          "type": "uint256"
        },
        {
          "internalType": "bytes32",
          "name": "encryptedMove",
          "type": "bytes32"
        },
        {
          "internalType": "enum IRockPaperScissors.Hand",
          "name": "decryptedMove",
          "type": "uint8"
        },
        {
          "internalType": "enum IRockPaperScissors.Hand",
          "name": "move",
          "type": "uint8"
        },
        {
          "internalType": "enum IRockPaperScissors.Status",
          "name": "status",
          "type": "uint8"
        }
      ],
      "stateMutability": "view",
      "type": "function"
    },
    {
      "inputs": [],
      "name": "gamesCreated",
      "outputs": [
        {
          "internalType": "uint256",
          "name": "",
          "type": "uint256"
        }
      ],
      "stateMutability": "view",
      "type": "function"
    },
    {
      "inputs": [],
      "name": "getActiveGames",
      "outputs": [
        {
          "components": [
            {
              "internalType": "uint256",
              "name": "id",
              "type": "uint256"
            },
            {
              "internalType": "address",
              "name": "player1",
              "type": "address"
            },
            {
              "internalType": "address",
              "name": "player2",
              "type": "address"
            },
            {
              "internalType": "uint256",
              "name": "bet",
              "type": "uint256"
            },
            {
              "internalType": "uint16",
              "name": "duration",
              "type": "uint16"
            },
            {
              "internalType": "uint256",
              "name": "timestamp",
              "type": "uint256"
            },
            {
              "internalType": "bytes32",
              "name": "encryptedMove",
              "type": "bytes32"
            },
            {
              "internalType": "enum IRockPaperScissors.Hand",
              "name": "decryptedMove",
              "type": "uint8"
            },
            {
              "internalType": "enum IRockPaperScissors.Hand",
              "name": "move",
              "type": "uint8"
            },
            {
              "internalType": "enum IRockPaperScissors.Status",
              "name": "status",
              "type": "uint8"
            }
          ],
          "internalType": "struct IRockPaperScissors.Game[]",
          "name": "",
          "type": "tuple[]"
        }
      ],
      "stateMutability": "view",
      "type": "function"
    },
    {
      "inputs": [
        {
          "internalType": "address",
          "name": "_player",
          "type": "address"
        }
      ],
      "name": "getActiveGamesByPlayer",
      "outputs": [
        {
          "components": [
            {
              "internalType": "uint256",
              "name": "id",
              "type": "uint256"
            },
            {
              "internalType": "address",
              "name": "player1",
              "type": "address"
            },
            {
              "internalType": "address",
              "name": "player2",
              "type": "address"
            },
            {
              "internalType": "uint256",
              "name": "bet",
              "type": "uint256"
            },
            {
              "internalType": "uint16",
              "name": "duration",
              "type": "uint16"
            },
            {
              "internalType": "uint256",
              "name": "timestamp",
              "type": "uint256"
            },
            {
              "internalType": "bytes32",
              "name": "encryptedMove",
              "type": "bytes32"
            },
            {
              "internalType": "enum IRockPaperScissors.Hand",
              "name": "decryptedMove",
              "type": "uint8"
            },
            {
              "internalType": "enum IRockPaperScissors.Hand",
              "name": "move",
              "type": "uint8"
            },
            {
              "internalType": "enum IRockPaperScissors.Status",
              "name": "status",
              "type": "uint8"
            }
          ],
          "internalType": "struct IRockPaperScissors.Game[]",
          "name": "",
          "type": "tuple[]"
        }
      ],
      "stateMutability": "view",
      "type": "function"
    },
    {
      "inputs": [],
      "name": "getActivePlayers",
      "outputs": [
        {
          "internalType": "address[]",
          "name": "",
          "type": "address[]"
        }
      ],
      "stateMutability": "view",
      "type": "function"
    },
    {
      "inputs": [],
      "name": "getAvailableGames",
      "outputs": [
        {
          "components": [
            {
              "internalType": "uint256",
              "name": "id",
              "type": "uint256"
            },
            {
              "internalType": "address",
              "name": "player1",
              "type": "address"
            },
            {
              "internalType": "address",
              "name": "player2",
              "type": "address"
            },
            {
              "internalType": "uint256",
              "name": "bet",
              "type": "uint256"
            },
            {
              "internalType": "uint16",
              "name": "duration",
              "type": "uint16"
            },
            {
              "internalType": "uint256",
              "name": "timestamp",
              "type": "uint256"
            },
            {
              "internalType": "bytes32",
              "name": "encryptedMove",
              "type": "bytes32"
            },
            {
              "internalType": "enum IRockPaperScissors.Hand",
              "name": "decryptedMove",
              "type": "uint8"
            },
            {
              "internalType": "enum IRockPaperScissors.Hand",
              "name": "move",
              "type": "uint8"
            },
            {
              "internalType": "enum IRockPaperScissors.Status",
              "name": "status",
              "type": "uint8"
            }
          ],
          "internalType": "struct IRockPaperScissors.Game[]",
          "name": "",
          "type": "tuple[]"
        }
      ],
      "stateMutability": "view",
      "type": "function"
    },
    {
      "inputs": [
        {
          "internalType": "address",
          "name": "_player",
          "type": "address"
        }
      ],
      "name": "getAvailableGamesByPlayer",
      "outputs": [
        {
          "components": [
            {
              "internalType": "uint256",
              "name": "id",
              "type": "uint256"
            },
            {
              "internalType": "address",
              "name": "player1",
              "type": "address"
            },
            {
              "internalType": "address",
              "name": "player2",
              "type": "address"
            },
            {
              "internalType": "uint256",
              "name": "bet",
              "type": "uint256"
            },
            {
              "internalType": "uint16",
              "name": "duration",
              "type": "uint16"
            },
            {
              "internalType": "uint256",
              "name": "timestamp",
              "type": "uint256"
            },
            {
              "internalType": "bytes32",
              "name": "encryptedMove",
              "type": "bytes32"
            },
            {
              "internalType": "enum IRockPaperScissors.Hand",
              "name": "decryptedMove",
              "type": "uint8"
            },
            {
              "internalType": "enum IRockPaperScissors.Hand",
              "name": "move",
              "type": "uint8"
            },
            {
              "internalType": "enum IRockPaperScissors.Status",
              "name": "status",
              "type": "uint8"
            }
          ],
          "internalType": "struct IRockPaperScissors.Game[]",
          "name": "",
          "type": "tuple[]"
        }
      ],
      "stateMutability": "view",
      "type": "function"
    },
    {
      "inputs": [],
      "name": "getAvailablePlayers",
      "outputs": [
        {
          "internalType": "address[]",
          "name": "",
          "type": "address[]"
        }
      ],
      "stateMutability": "view",
      "type": "function"
    },
    {
      "inputs": [],
      "name": "getEtherBalance",
      "outputs": [
        {
          "internalType": "uint256",
          "name": "",
          "type": "uint256"
        }
      ],
      "stateMutability": "view",
      "type": "function"
    },
    {
      "inputs": [],
      "name": "getGames",
      "outputs": [
        {
          "components": [
            {
              "internalType": "uint256",
              "name": "id",
              "type": "uint256"
            },
            {
              "internalType": "address",
              "name": "player1",
              "type": "address"
            },
            {
              "internalType": "address",
              "name": "player2",
              "type": "address"
            },
            {
              "internalType": "uint256",
              "name": "bet",
              "type": "uint256"
            },
            {
              "internalType": "uint16",
              "name": "duration",
              "type": "uint16"
            },
            {
              "internalType": "uint256",
              "name": "timestamp",
              "type": "uint256"
            },
            {
              "internalType": "bytes32",
              "name": "encryptedMove",
              "type": "bytes32"
            },
            {
              "internalType": "enum IRockPaperScissors.Hand",
              "name": "decryptedMove",
              "type": "uint8"
            },
            {
              "internalType": "enum IRockPaperScissors.Hand",
              "name": "move",
              "type": "uint8"
            },
            {
              "internalType": "enum IRockPaperScissors.Status",
              "name": "status",
              "type": "uint8"
            }
          ],
          "internalType": "struct IRockPaperScissors.Game[]",
          "name": "",
          "type": "tuple[]"
        }
      ],
      "stateMutability": "view",
      "type": "function"
    },
    {
      "inputs": [],
      "name": "owner",
      "outputs": [
        {
          "internalType": "address",
          "name": "",
          "type": "address"
        }
      ],
      "stateMutability": "view",
      "type": "function"
    },
    {
      "inputs": [
        {
          "internalType": "uint256",
          "name": "_gameId",
          "type": "uint256"
        },
        {
          "internalType": "enum IRockPaperScissors.Hand",
          "name": "_move",
          "type": "uint8"
        }
      ],
      "name": "playGame",
      "outputs": [],
      "stateMutability": "payable",
      "type": "function"
    },
    {
      "inputs": [
        {
          "internalType": "address",
          "name": "",
          "type": "address"
        }
      ],
      "name": "playerToId",
      "outputs": [
        {
          "internalType": "uint256",
          "name": "",
          "type": "uint256"
        }
      ],
      "stateMutability": "view",
      "type": "function"
    },
    {
      "inputs": [
        {
          "internalType": "uint256",
          "name": "_gameId",
          "type": "uint256"
        }
      ],
      "name": "quitGame",
      "outputs": [],
      "stateMutability": "nonpayable",
      "type": "function"
    },
    {
      "inputs": [],
      "name": "renounceOwnership",
      "outputs": [],
      "stateMutability": "nonpayable",
      "type": "function"
    },
    {
      "inputs": [],
      "name": "totalPlayerIds",
      "outputs": [
        {
          "internalType": "uint256",
          "name": "",
          "type": "uint256"
        }
      ],
      "stateMutability": "view",
      "type": "function"
    },
    {
      "inputs": [
        {
          "internalType": "address",
          "name": "newOwner",
          "type": "address"
        }
      ],
      "name": "transferOwnership",
      "outputs": [],
      "stateMutability": "nonpayable",
      "type": "function"
    },
    {
      "inputs": [
        {
          "internalType": "uint256",
          "name": "_value",
          "type": "uint256"
        }
      ],
      "name": "withdrawEtherBalance",
      "outputs": [],
      "stateMutability": "nonpayable",
      "type": "function"
    },
    {
      "stateMutability": "payable",
      "type": "receive"
    }
  ],
  "transactionHash": "0x5c163d53fe2da6a286cd0bea72dfca610357a37247cfdb5c5c1d49f90c378ffb",
  "args": [],
  "solcInputHash": "67573237255d2b325c92a3f08f5e01f1",
  "bytecode": "0x60806040523480156200001157600080fd5b506200001d3362000023565b62000073565b600080546001600160a01b038381166001600160a01b0319831681178455604051919092169283917f8be0079c531659141344cd1fd0a4f28419497f9722a3daafe3b4186f6b6457e09190a35050565b614e2880620000836000396000f3fe60806040526004361061012e5760003560e01c8063a3a8becd116100ab578063d52304eb1161006f578063d52304eb14610398578063e46de65e146103ae578063e50e2c2d146103ce578063ea46193e146103e3578063f2fde38b146103f6578063face17d81461041657610171565b8063a3a8becd1461030d578063a904cc531461032d578063b313363a1461034d578063c04c594714610363578063cde85e8d1461037857610171565b806340a9eeff116100f257806340a9eeff1461026d5780634894a0c614610282578063715018a61461029557806380122bcf146102aa5780638da5cb5b146102e557610171565b8063117a5b90146101b757806315431a6a146101f657806316f99211146102095780631b76929c146102295780633c4f5a661461024b57610171565b3661017157341561016f5760405134815233907f1e57e3bb474320be3d2c77138f75b7c3941292d647f5f9634e33a8e94e0e069b9060200160405180910390a25b005b60405162461bcd60e51b815260206004820152601660248201527515dc9bdb99c818d85b1b081d1bc818dbdb9d1c9858dd60521b60448201526064015b60405180910390fd5b3480156101c357600080fd5b506101d76101d2366004614778565b610436565b6040516101ed9a99989796959493929190614c63565b60405180910390f35b61016f61020436600461480d565b6104b3565b34801561021557600080fd5b5061016f610224366004614778565b610c08565b34801561023557600080fd5b5061023e610f88565b6040516101ed91906149b1565b34801561025757600080fd5b50610260611228565b6040516101ed9190614964565b34801561027957600080fd5b5061023e611c2e565b61016f610290366004614741565b611ec9565b3480156102a157600080fd5b5061016f6121f1565b3480156102b657600080fd5b506102d76102c5366004614711565b60026020526000908152604090205481565b6040519081526020016101ed565b3480156102f157600080fd5b506000546040516001600160a01b0390911681526020016101ed565b34801561031957600080fd5b5061016f610328366004614791565b612227565b34801561033957600080fd5b5061016f610348366004614778565b612af8565b34801561035957600080fd5b506102d760055481565b34801561036f57600080fd5b5061023e612c3a565b34801561038457600080fd5b5061023e610393366004614711565b612d98565b3480156103a457600080fd5b506102d760045481565b3480156103ba57600080fd5b5061023e6103c9366004614711565b6130c1565b3480156103da57600080fd5b50610260613500565b3480156103ef57600080fd5b50476102d7565b34801561040257600080fd5b5061016f610411366004614711565b613922565b34801561042257600080fd5b5061016f610431366004614778565b6139bd565b6001818154811061044657600080fd5b6000918252602090912060089091020180546001820154600283015460038401546004850154600586015460068701546007909701549597506001600160a01b03948516969490931694919361ffff909116929160ff80821691610100810482169162010000909104168a565b60015482906000906104d75760405162461bcd60e51b81526004016101ae906149f4565b6000828152600360205260408120546001805490919081106104fb576104fb614da6565b6000918252602091829020604080516101408101825260089093029091018054835260018101546001600160a01b03908116948401949094526002810154909316908201526003808301546060830152600483015461ffff166080830152600583015460a0830152600683015460c0830152600783015491929160e084019160ff9091169081111561058f5761058f614d7a565b60038111156105a0576105a0614d7a565b81526020016007820160019054906101000a900460ff1660038111156105c8576105c8614d7a565b60038111156105d9576105d9614d7a565b81526020016007820160029054906101000a900460ff16600481111561060157610601614d7a565b600481111561061257610612614d7a565b81525050905060045483106106395760405162461bcd60e51b81526004016101ae90614b57565b805183146106595760405162461bcd60e51b81526004016101ae90614abc565b81610699576000816101200151600481111561067757610677614d7a565b146106945760405162461bcd60e51b81526004016101ae90614a85565b61082c565b816001141561079557600181610120015160048111156106bb576106bb614d7a565b146107695760005b81610120015160048111156106da576106da614d7a565b14156107285760405162461bcd60e51b815260206004820152601860248201527f47616d6520686173206e6f74207374617274656420796574000000000000000060448201526064016101ae565b60405162461bcd60e51b815260206004820152601660248201527511d85b59481a185cc8185b1c9958591e48195b99195960521b60448201526064016101ae565b60208101516001600160a01b031633146106945760405162461bcd60e51b81526004016101ae90614a2b565b81600214156107ca5760408101516001600160a01b031633146106945760405162461bcd60e51b81526004016101ae90614a58565b600081610120015160048111156107e3576107e3614d7a565b146108005760405162461bcd60e51b81526004016101ae90614a85565b60208101516001600160a01b0316331461082c5760405162461bcd60e51b81526004016101ae90614a2b565b60008581526003602052604081205460018054909190811061085057610850614da6565b6000918252602091829020604080516101408101825260089093029091018054835260018101546001600160a01b03908116948401949094526002810154909316908201526003808301546060830152600483015461ffff166080830152600583015460a0830152600683015460c0830152600783015491929160e084019160ff909116908111156108e4576108e4614d7a565b60038111156108f5576108f5614d7a565b81526020016007820160019054906101000a900460ff16600381111561091d5761091d614d7a565b600381111561092e5761092e614d7a565b81526020016007820160029054906101000a900460ff16600481111561095657610956614d7a565b600481111561096757610967614d7a565b815250509050348160600151146109b35760405162461bcd60e51b815260206004820152601060248201526f15dc9bdb99c8195d1a195c881cd95b9d60821b60448201526064016101ae565b60008560038111156109c7576109c7614d7a565b1415610a045760405162461bcd60e51b815260206004820152600c60248201526b496e76616c6964206d6f766560a01b60448201526064016101ae565b3360408201524260a08201526101008101856003811115610a2757610a27614d7a565b90816003811115610a3a57610a3a614d7a565b905250600161012082018190526000878152600360205260409020548154839291908110610a6a57610a6a614da6565b6000918252602091829020835160089092020190815590820151600180830180546001600160a01b039384166001600160a01b0319918216179091556040850151600285018054919094169116179091556060830151600380840191909155608084015160048401805461ffff90921661ffff1990921691909117905560a0840151600584015560c0840151600684015560e08401516007840180549193909260ff19909216918490811115610b2257610b22614d7a565b0217905550610100828101516007830180549192909161ff00191690836003811115610b5057610b50614d7a565b021790555061012082015160078201805462ff0000191662010000836004811115610b7d57610b7d614d7a565b021790555090505085336001600160a01b03167fb81ccc3028607aea1921703d7e683d2ada18e8206360192395f810c94cbc006b83604051610bbf9190614bbb565b60405180910390a333600090815260026020526040902054610c0057600560008154610bea90614d27565b9182905550336000908152600260205260409020555b505050505050565b6001548190600390610c2c5760405162461bcd60e51b81526004016101ae906149f4565b600082815260036020526040812054600180549091908110610c5057610c50614da6565b6000918252602091829020604080516101408101825260089093029091018054835260018101546001600160a01b03908116948401949094526002810154909316908201526003808301546060830152600483015461ffff166080830152600583015460a0830152600683015460c0830152600783015491929160e084019160ff90911690811115610ce457610ce4614d7a565b6003811115610cf557610cf5614d7a565b81526020016007820160019054906101000a900460ff166003811115610d1d57610d1d614d7a565b6003811115610d2e57610d2e614d7a565b81526020016007820160029054906101000a900460ff166004811115610d5657610d56614d7a565b6004811115610d6757610d67614d7a565b8152505090506004548310610d8e5760405162461bcd60e51b81526004016101ae90614b57565b80518314610dae5760405162461bcd60e51b81526004016101ae90614abc565b81610dee5760008161012001516004811115610dcc57610dcc614d7a565b14610de95760405162461bcd60e51b81526004016101ae90614a85565b610edf565b8160011415610e485760018161012001516004811115610e1057610e10614d7a565b14610e1c5760006106c3565b60208101516001600160a01b03163314610de95760405162461bcd60e51b81526004016101ae90614a2b565b8160021415610e7d5760408101516001600160a01b03163314610de95760405162461bcd60e51b81526004016101ae90614a58565b60008161012001516004811115610e9657610e96614d7a565b14610eb35760405162461bcd60e51b81526004016101ae90614a85565b60208101516001600160a01b03163314610edf5760405162461bcd60e51b81526004016101ae90614a2b565b600084815260036020526040812054600180549091908110610f0357610f03614da6565b9060005260206000209060080201600301549050610f208561407b565b604051600090339083908381818185875af1925050503d8060008114610f62576040519150601f19603f3d011682016040523d82523d6000602084013e610f67565b606091505b5050905080610c005760405162461bcd60e51b81526004016101ae90614b84565b60606000805b60015481101561100257600060018281548110610fad57610fad614da6565b906000526020600020906008020160070160029054906101000a900460ff166004811115610fdd57610fdd614d7a565b14610ff05781610fec81614d27565b9250505b80610ffa81614d27565b915050610f8e565b5060008167ffffffffffffffff81111561101e5761101e614dbc565b60405190808252806020026020018201604052801561105757816020015b6110446146bf565b81526020019060019003908161103c5790505b5090506000915060005b6001548110156112215760006001828154811061108057611080614da6565b906000526020600020906008020160070160029054906101000a900460ff1660048111156110b0576110b0614d7a565b1461120f57600181815481106110c8576110c8614da6565b6000918252602091829020604080516101408101825260089093029091018054835260018101546001600160a01b03908116948401949094526002810154909316908201526003808301546060830152600483015461ffff166080830152600583015460a0830152600683015460c0830152600783015491929160e084019160ff9091169081111561115c5761115c614d7a565b600381111561116d5761116d614d7a565b81526020016007820160019054906101000a900460ff16600381111561119557611195614d7a565b60038111156111a6576111a6614d7a565b81526020016007820160029054906101000a900460ff1660048111156111ce576111ce614d7a565b60048111156111df576111df614d7a565b815250508284815181106111f5576111f5614da6565b6020026020010181905250828061120b90614d27565b9350505b8061121981614d27565b915050611061565b5092915050565b60606000805b6001548110156112fe57600180828154811061124c5761124c614da6565b906000526020600020906008020160070160029054906101000a900460ff16600481111561127c5761127c614d7a565b14156112945761128d600283614cd9565b91506112ec565b6000600182815481106112a9576112a9614da6565b906000526020600020906008020160070160029054906101000a900460ff1660048111156112d9576112d9614d7a565b146112ec57816112e881614d27565b9250505b806112f681614d27565b91505061122e565b5060008167ffffffffffffffff81111561131a5761131a614dbc565b604051908082528060200260200182016040528015611343578160200160208202803683370190505b509050600091506000806000805b60015481101561179757600180828154811061136f5761136f614da6565b906000526020600020906008020160070160029054906101000a900460ff16600481111561139f5761139f614d7a565b14801561140e5750600181815481106113ba576113ba614da6565b6000918252602090912060026008909202010154600180546001600160a01b0390921691839081106113ee576113ee614da6565b60009182526020909120600160089092020101546001600160a01b031614155b15611626576001818154811061142657611426614da6565b906000526020600020906008020160010160009054906101000a90046001600160a01b031685878151811061145d5761145d614da6565b6001600160a01b03909216602092830291909101909101528561147f81614d27565b9650506001818154811061149557611495614da6565b906000526020600020906008020160020160009054906101000a90046001600160a01b03168587815181106114cc576114cc614da6565b6001600160a01b0390921660209283029190910190910152856114ee81614d27565b96505060005b868110156115ea576001828154811061150f5761150f614da6565b600091825260209091206001600890920201015486516001600160a01b039091169087908390811061154357611543614da6565b60200260200101516001600160a01b0316141561156c578361156481614d27565b9450506115d8565b6001828154811061157f5761157f614da6565b600091825260209091206002600890920201015486516001600160a01b03909116908790839081106115b3576115b3614da6565b60200260200101516001600160a01b031614156115d857826115d481614d27565b9350505b806115e281614d27565b9150506114f4565b50826001141561160257836115fe81614d27565b9450505b8160011415611619578361161581614d27565b9450505b6000925060009150611785565b60006001828154811061163b5761163b614da6565b906000526020600020906008020160070160029054906101000a900460ff16600481111561166b5761166b614d7a565b14611785576001818154811061168357611683614da6565b906000526020600020906008020160020160009054906101000a90046001600160a01b03168587815181106116ba576116ba614da6565b6001600160a01b0390921660209283029190910190910152856116dc81614d27565b96505060005b8681101561176857600182815481106116fd576116fd614da6565b600091825260209091206002600890920201015486516001600160a01b039091169087908390811061173157611731614da6565b60200260200101516001600160a01b03161415611756578261175281614d27565b9350505b8061176081614d27565b9150506116e2565b508160011415611780578361177c81614d27565b9450505b600091505b8061178f81614d27565b915050611351565b5060008367ffffffffffffffff8111156117b3576117b3614dbc565b6040519080825280602002602001820160405280156117dc578160200160208202803683370190505b509050600095506000935060005b600154811015611c2357600180828154811061180857611808614da6565b906000526020600020906008020160070160029054906101000a900460ff16600481111561183857611838614d7a565b1480156118a757506001818154811061185357611853614da6565b6000918252602090912060026008909202010154600180546001600160a01b03909216918390811061188757611887614da6565b60009182526020909120600160089092020101546001600160a01b031614155b15611ab2576118b7600288614cd9565b965060005b878110156119b257600182815481106118d7576118d7614da6565b600091825260209091206001600890920201015487516001600160a01b039091169088908390811061190b5761190b614da6565b60200260200101516001600160a01b03161415611934578461192c81614d27565b9550506119a0565b6001828154811061194757611947614da6565b600091825260209091206002600890920201015487516001600160a01b039091169088908390811061197b5761197b614da6565b60200260200101516001600160a01b031614156119a0578361199c81614d27565b9450505b806119aa81614d27565b9150506118bc565b508360011415611a2c57600181815481106119cf576119cf614da6565b906000526020600020906008020160010160009054906101000a90046001600160a01b0316828681518110611a0657611a06614da6565b6001600160a01b039092166020928302919091019091015284611a2881614d27565b9550505b8260011415611aa55760018181548110611a4857611a48614da6565b906000526020600020906008020160020160009054906101000a90046001600160a01b0316828681518110611a7f57611a7f614da6565b6001600160a01b039092166020928302919091019091015284611aa181614d27565b9550505b6000935060009250611c11565b600060018281548110611ac757611ac7614da6565b906000526020600020906008020160070160029054906101000a900460ff166004811115611af757611af7614d7a565b14611c115786611b0681614d27565b97505060005b87811015611b925760018281548110611b2757611b27614da6565b600091825260209091206002600890920201015487516001600160a01b0390911690889083908110611b5b57611b5b614da6565b60200260200101516001600160a01b03161415611b805783611b7c81614d27565b9450505b80611b8a81614d27565b915050611b0c565b508260011415611c0c5760018181548110611baf57611baf614da6565b906000526020600020906008020160020160009054906101000a90046001600160a01b0316828681518110611be657611be6614da6565b6001600160a01b039092166020928302919091019091015284611c0881614d27565b9550505b600092505b80611c1b81614d27565b9150506117ea565b509695505050505050565b60606000805b600154811015611ca957600060018281548110611c5357611c53614da6565b906000526020600020906008020160070160029054906101000a900460ff166004811115611c8357611c83614d7a565b1415611c975781611c9381614d27565b9250505b80611ca181614d27565b915050611c34565b5060008167ffffffffffffffff811115611cc557611cc5614dbc565b604051908082528060200260200182016040528015611cfe57816020015b611ceb6146bf565b815260200190600190039081611ce35790505b5090506000915060005b60015481101561122157600060018281548110611d2757611d27614da6565b906000526020600020906008020160070160029054906101000a900460ff166004811115611d5757611d57614d7a565b1415611eb75760018181548110611d7057611d70614da6565b6000918252602091829020604080516101408101825260089093029091018054835260018101546001600160a01b03908116948401949094526002810154909316908201526003808301546060830152600483015461ffff166080830152600583015460a0830152600683015460c0830152600783015491929160e084019160ff90911690811115611e0457611e04614d7a565b6003811115611e1557611e15614d7a565b81526020016007820160019054906101000a900460ff166003811115611e3d57611e3d614d7a565b6003811115611e4e57611e4e614d7a565b81526020016007820160029054906101000a900460ff166004811115611e7657611e76614d7a565b6004811115611e8757611e87614d7a565b81525050828481518110611e9d57611e9d614da6565b60200260200101819052508280611eb390614d27565b9350505b80611ec181614d27565b915050611d08565b6001600160ff1b03341115611f155760405162461bcd60e51b81526020600482015260126024820152715468652062657420697320746f6f2062696760701b60448201526064016101ae565b611f1d6146bf565b60048054906000611f2d83614d27565b90915550808252336020808401918252346060850190815261ffff8681166080870190815260c087018981526001805460009889526003968790526040808a2082905581830183559882905289517fb10e2d527612073b26eecdfd717e6a320cf44b4afac2b0732d9fcbe2b7fa0cf6600890920291820190815597517fb10e2d527612073b26eecdfd717e6a320cf44b4afac2b0732d9fcbe2b7fa0cf7820180546001600160a01b03199081166001600160a01b0393841617909155998b01517fb10e2d527612073b26eecdfd717e6a320cf44b4afac2b0732d9fcbe2b7fa0cf883018054909b1691161790985593517fb10e2d527612073b26eecdfd717e6a320cf44b4afac2b0732d9fcbe2b7fa0cf988015590517fb10e2d527612073b26eecdfd717e6a320cf44b4afac2b0732d9fcbe2b7fa0cfa8701805461ffff1916919093161790915560a08601517fb10e2d527612073b26eecdfd717e6a320cf44b4afac2b0732d9fcbe2b7fa0cfb860155517fb10e2d527612073b26eecdfd717e6a320cf44b4afac2b0732d9fcbe2b7fa0cfc85015560e08501517fb10e2d527612073b26eecdfd717e6a320cf44b4afac2b0732d9fcbe2b7fa0cfd9094018054869593919260ff1990911691849081111561210b5761210b614d7a565b0217905550610100828101516007830180549192909161ff0019169083600381111561213957612139614d7a565b021790555061012082015160078201805462ff000019166201000083600481111561216657612166614d7a565b021790555050508060000151336001600160a01b03167ff3d4e32e9e2cf3e4d2a4a7b0a24cd138ede4ff48011d38d9e01d603e566dd5bf836040516121ab9190614bbb565b60405180910390a3336000908152600260205260409020546121ec576005600081546121d690614d27565b9182905550336000908152600260205260409020555b505050565b6000546001600160a01b0316331461221b5760405162461bcd60e51b81526004016101ae90614b22565b612225600061435a565b565b6001805484919061224a5760405162461bcd60e51b81526004016101ae906149f4565b60008281526003602052604081205460018054909190811061226e5761226e614da6565b6000918252602091829020604080516101408101825260089093029091018054835260018101546001600160a01b03908116948401949094526002810154909316908201526003808301546060830152600483015461ffff166080830152600583015460a0830152600683015460c0830152600783015491929160e084019160ff9091169081111561230257612302614d7a565b600381111561231357612313614d7a565b81526020016007820160019054906101000a900460ff16600381111561233b5761233b614d7a565b600381111561234c5761234c614d7a565b81526020016007820160029054906101000a900460ff16600481111561237457612374614d7a565b600481111561238557612385614d7a565b81525050905060045483106123ac5760405162461bcd60e51b81526004016101ae90614b57565b805183146123cc5760405162461bcd60e51b81526004016101ae90614abc565b8161240c57600081610120015160048111156123ea576123ea614d7a565b146124075760405162461bcd60e51b81526004016101ae90614a85565b6124fd565b8160011415612466576001816101200151600481111561242e5761242e614d7a565b1461243a5760006106c3565b60208101516001600160a01b031633146124075760405162461bcd60e51b81526004016101ae90614a2b565b816002141561249b5760408101516001600160a01b031633146124075760405162461bcd60e51b81526004016101ae90614a58565b600081610120015160048111156124b4576124b4614d7a565b146124d15760405162461bcd60e51b81526004016101ae90614a85565b60208101516001600160a01b031633146124fd5760405162461bcd60e51b81526004016101ae90614a2b565b600061250a8787876143aa565b9050806101000151600381111561252357612523614d7a565b8160e00151600381111561253957612539614d7a565b141561272757600461012082015260008781526003602052604090205460018054839290811061256b5761256b614da6565b6000918252602091829020835160089092020190815590820151600180830180546001600160a01b039384166001600160a01b0319918216179091556040850151600285018054919094169116179091556060830151600380840191909155608084015160048401805461ffff90921661ffff1990921691909117905560a0840151600584015560c0840151600684015560e08401516007840180549193909260ff1990921691849081111561262357612623614d7a565b0217905550610100828101516007830180549192909161ff0019169083600381111561265157612651614d7a565b021790555061012082015160078201805462ff000019166201000083600481111561267e5761267e614d7a565b021790555090505086336001600160a01b0316600080516020614dd3833981519152836040516126ae9190614bbb565b60405180910390a3606081015160405160009133918381818185875af1925050503d80600081146126fb576040519150601f19603f3d011682016040523d82523d6000602084013e612700565b606091505b50509050806127215760405162461bcd60e51b81526004016101ae90614b84565b50612aef565b6003816101000151600381111561274057612740614d7a565b8260e00151600381111561275657612756614d7a565b612761906003614cd9565b61276b9190614d10565b6127759190614d42565b600114156129745760026101208201526000878152600360205260409020546001805483929081106127a9576127a9614da6565b6000918252602091829020835160089092020190815590820151600180830180546001600160a01b039384166001600160a01b0319918216179091556040850151600285018054919094169116179091556060830151600380840191909155608084015160048401805461ffff90921661ffff1990921691909117905560a0840151600584015560c0840151600684015560e08401516007840180549193909260ff1990921691849081111561286157612861614d7a565b0217905550610100828101516007830180549192909161ff0019169083600381111561288f5761288f614d7a565b021790555061012082015160078201805462ff00001916620100008360048111156128bc576128bc614d7a565b021790555090505086336001600160a01b0316600080516020614dd3833981519152836040516128ec9190614bbb565b60405180910390a36128fd8761407b565b60608101516000903390612912906002614cf1565b604051600081818185875af1925050503d806000811461294e576040519150601f19603f3d011682016040523d82523d6000602084013e612953565b606091505b50509050806127215760405162461bcd60e51b81526004016101ae90614aeb565b60036101208201819052506000878152600360205260409020546001805483929081106129a3576129a3614da6565b6000918252602091829020835160089092020190815590820151600180830180546001600160a01b039384166001600160a01b0319918216179091556040850151600285018054919094169116179091556060830151600380840191909155608084015160048401805461ffff90921661ffff1990921691909117905560a0840151600584015560c0840151600684015560e08401516007840180549193909260ff19909216918490811115612a5b57612a5b614d7a565b0217905550610100828101516007830180549192909161ff00191690836003811115612a8957612a89614d7a565b021790555061012082015160078201805462ff0000191662010000836004811115612ab657612ab6614d7a565b021790555090505086336001600160a01b0316600080516020614dd383398151915283604051612ae69190614bbb565b60405180910390a35b50505050505050565b6000546001600160a01b03163314612b225760405162461bcd60e51b81526004016101ae90614b22565b80471015612b725760405162461bcd60e51b815260206004820152601d60248201527f496e73756666696369656e7420657468657220696e2062616c616e636500000060448201526064016101ae565b604051600090339083908381818185875af1925050503d8060008114612bb4576040519150601f19603f3d011682016040523d82523d6000602084013e612bb9565b606091505b5050905080612c015760405162461bcd60e51b81526020600482015260146024820152732330b4b632b2103a379039b2b7321032ba3432b960611b60448201526064016101ae565b60405182815233907f06097061aeda806b5e9cb4133d9899f332ff0913956567fc0f7ea15e3d19947c9060200160405180910390a25050565b60606001805480602002602001604051908101604052809291908181526020016000905b82821015612d8f5760008481526020908190206040805161014081018252600886029092018054835260018101546001600160a01b03908116948401949094526002810154909316908201526003808301546060830152600483015461ffff166080830152600583015460a0830152600683015460c0830152600783015491929160e084019160ff90911690811115612cf957612cf9614d7a565b6003811115612d0a57612d0a614d7a565b81526020016007820160019054906101000a900460ff166003811115612d3257612d32614d7a565b6003811115612d4357612d43614d7a565b81526020016007820160029054906101000a900460ff166004811115612d6b57612d6b614d7a565b6004811115612d7c57612d7c614d7a565b8152505081526020019060010190612c5e565b50505050905090565b60606000805b600154811015612e5657600060018281548110612dbd57612dbd614da6565b906000526020600020906008020160070160029054906101000a900460ff166004811115612ded57612ded614d7a565b148015612e315750836001600160a01b031660018281548110612e1257612e12614da6565b60009182526020909120600160089092020101546001600160a01b0316145b15612e445781612e4081614d27565b9250505b80612e4e81614d27565b915050612d9e565b5060008167ffffffffffffffff811115612e7257612e72614dbc565b604051908082528060200260200182016040528015612eab57816020015b612e986146bf565b815260200190600190039081612e905790505b5090506000915060005b6001548110156130b957600060018281548110612ed457612ed4614da6565b906000526020600020906008020160070160029054906101000a900460ff166004811115612f0457612f04614d7a565b148015612f485750846001600160a01b031660018281548110612f2957612f29614da6565b60009182526020909120600160089092020101546001600160a01b0316145b156130a75760018181548110612f6057612f60614da6565b6000918252602091829020604080516101408101825260089093029091018054835260018101546001600160a01b03908116948401949094526002810154909316908201526003808301546060830152600483015461ffff166080830152600583015460a0830152600683015460c0830152600783015491929160e084019160ff90911690811115612ff457612ff4614d7a565b600381111561300557613005614d7a565b81526020016007820160019054906101000a900460ff16600381111561302d5761302d614d7a565b600381111561303e5761303e614d7a565b81526020016007820160029054906101000a900460ff16600481111561306657613066614d7a565b600481111561307757613077614d7a565b8152505082848151811061308d5761308d614da6565b602002602001018190525082806130a390614d27565b9350505b806130b181614d27565b915050612eb5565b509392505050565b60606000805b60015481101561320e5760018082815481106130e5576130e5614da6565b906000526020600020906008020160070160029054906101000a900460ff16600481111561311557613115614d7a565b1480156131595750836001600160a01b03166001828154811061313a5761313a614da6565b60009182526020909120600160089092020101546001600160a01b0316145b806131e9575060006001828154811061317457613174614da6565b906000526020600020906008020160070160029054906101000a900460ff1660048111156131a4576131a4614d7a565b141580156131e95750836001600160a01b0316600182815481106131ca576131ca614da6565b60009182526020909120600260089092020101546001600160a01b0316145b156131fc57816131f881614d27565b9250505b8061320681614d27565b9150506130c7565b5060008167ffffffffffffffff81111561322a5761322a614dbc565b60405190808252806020026020018201604052801561326357816020015b6132506146bf565b8152602001906001900390816132485790505b5090506000915060005b6001548110156130b957600180828154811061328b5761328b614da6565b906000526020600020906008020160070160029054906101000a900460ff1660048111156132bb576132bb614d7a565b1480156132ff5750846001600160a01b0316600182815481106132e0576132e0614da6565b60009182526020909120600160089092020101546001600160a01b0316145b8061338f575060006001828154811061331a5761331a614da6565b906000526020600020906008020160070160029054906101000a900460ff16600481111561334a5761334a614d7a565b1415801561338f5750846001600160a01b03166001828154811061337057613370614da6565b60009182526020909120600260089092020101546001600160a01b0316145b156134ee57600181815481106133a7576133a7614da6565b6000918252602091829020604080516101408101825260089093029091018054835260018101546001600160a01b03908116948401949094526002810154909316908201526003808301546060830152600483015461ffff166080830152600583015460a0830152600683015460c0830152600783015491929160e084019160ff9091169081111561343b5761343b614d7a565b600381111561344c5761344c614d7a565b81526020016007820160019054906101000a900460ff16600381111561347457613474614d7a565b600381111561348557613485614d7a565b81526020016007820160029054906101000a900460ff1660048111156134ad576134ad614d7a565b60048111156134be576134be614d7a565b815250508284815181106134d4576134d4614da6565b602002602001018190525082806134ea90614d27565b9350505b806134f881614d27565b91505061326d565b60606000805b60015481101561357b5760006001828154811061352557613525614da6565b906000526020600020906008020160070160029054906101000a900460ff16600481111561355557613555614d7a565b1415613569578161356581614d27565b9250505b8061357381614d27565b915050613506565b5060008167ffffffffffffffff81111561359757613597614dbc565b6040519080825280602002602001820160405280156135c0578160200160208202803683370190505b5090506000915060008060005b600154811015613749576000600182815481106135ec576135ec614da6565b906000526020600020906008020160070160029054906101000a900460ff16600481111561361c5761361c614d7a565b1415613737576001818154811061363557613635614da6565b906000526020600020906008020160010160009054906101000a90046001600160a01b031684868151811061366c5761366c614da6565b6001600160a01b03909216602092830291909101909101528461368e81614d27565b95505060005b8581101561371a57600182815481106136af576136af614da6565b600091825260209091206001600890920201015485516001600160a01b03909116908690839081106136e3576136e3614da6565b60200260200101516001600160a01b03161415613708578261370481614d27565b9350505b8061371281614d27565b915050613694565b508160011415613732578261372e81614d27565b9350505b600091505b8061374181614d27565b9150506135cd565b5060008267ffffffffffffffff81111561376557613765614dbc565b60405190808252806020026020018201604052801561378e578160200160208202803683370190505b509050600094506000925060005b600154811015613918576000600182815481106137bb576137bb614da6565b906000526020600020906008020160070160029054906101000a900460ff1660048111156137eb576137eb614d7a565b141561390657856137fb81614d27565b96505060005b86811015613887576001828154811061381c5761381c614da6565b600091825260209091206001600890920201015486516001600160a01b039091169087908390811061385057613850614da6565b60200260200101516001600160a01b03161415613875578361387181614d27565b9450505b8061387f81614d27565b915050613801565b50826001141561390157600181815481106138a4576138a4614da6565b906000526020600020906008020160010160009054906101000a90046001600160a01b03168285815181106138db576138db614da6565b6001600160a01b0390921660209283029190910190910152836138fd81614d27565b9450505b600092505b8061391081614d27565b91505061379c565b5095945050505050565b6000546001600160a01b0316331461394c5760405162461bcd60e51b81526004016101ae90614b22565b6001600160a01b0381166139b15760405162461bcd60e51b815260206004820152602660248201527f4f776e61626c653a206e6577206f776e657220697320746865207a65726f206160448201526564647265737360d01b60648201526084016101ae565b6139ba8161435a565b50565b60015481906002906139e15760405162461bcd60e51b81526004016101ae906149f4565b600082815260036020526040812054600180549091908110613a0557613a05614da6565b6000918252602091829020604080516101408101825260089093029091018054835260018101546001600160a01b03908116948401949094526002810154909316908201526003808301546060830152600483015461ffff166080830152600583015460a0830152600683015460c0830152600783015491929160e084019160ff90911690811115613a9957613a99614d7a565b6003811115613aaa57613aaa614d7a565b81526020016007820160019054906101000a900460ff166003811115613ad257613ad2614d7a565b6003811115613ae357613ae3614d7a565b81526020016007820160029054906101000a900460ff166004811115613b0b57613b0b614d7a565b6004811115613b1c57613b1c614d7a565b8152505090506004548310613b435760405162461bcd60e51b81526004016101ae90614b57565b80518314613b635760405162461bcd60e51b81526004016101ae90614abc565b81613ba35760008161012001516004811115613b8157613b81614d7a565b14613b9e5760405162461bcd60e51b81526004016101ae90614a85565b613c94565b8160011415613bfd5760018161012001516004811115613bc557613bc5614d7a565b14613bd15760006106c3565b60208101516001600160a01b03163314613b9e5760405162461bcd60e51b81526004016101ae90614a2b565b8160021415613c325760408101516001600160a01b03163314613b9e5760405162461bcd60e51b81526004016101ae90614a58565b60008161012001516004811115613c4b57613c4b614d7a565b14613c685760405162461bcd60e51b81526004016101ae90614a85565b60208101516001600160a01b03163314613c945760405162461bcd60e51b81526004016101ae90614a2b565b600084815260036020526040812054600180549091908110613cb857613cb8614da6565b9060005260206000209060080201905060006001600360008881526020019081526020016000205481548110613cf057613cf0614da6565b6000918252602091829020604080516101408101825260089093029091018054835260018101546001600160a01b03908116948401949094526002810154909316908201526003808301546060830152600483015461ffff166080830152600583015460a0830152600683015460c0830152600783015491929160e084019160ff90911690811115613d8457613d84614d7a565b6003811115613d9557613d95614d7a565b81526020016007820160019054906101000a900460ff166003811115613dbd57613dbd614d7a565b6003811115613dce57613dce614d7a565b81526020016007820160029054906101000a900460ff166004811115613df657613df6614d7a565b6004811115613e0757613e07614d7a565b905250905060048161012001516004811115613e2557613e25614d7a565b1415613ea557613e348661407b565b606081015160405160009133918381818185875af1925050503d8060008114613e79576040519150601f19603f3d011682016040523d82523d6000602084013e613e7e565b606091505b5050905080613e9f5760405162461bcd60e51b81526004016101ae90614b84565b50610c00565b60018161012001516004811115613ebe57613ebe614d7a565b1415613ffb57806080015161ffff168160a00151613edc9190614cd9565b421015613f3e5760405162461bcd60e51b815260206004820152602a60248201527f506c617965722031207374696c6c206861732074696d6520746f2072657665616044820152696c20686973206d6f766560b01b60648201526084016101ae565b60078201805462ff000019166203000017905560405186903390600080516020614dd383398151915290613f73908690614bd0565b60405180910390a3613f848661407b565b60608101516000903390613f99906002614cf1565b604051600081818185875af1925050503d8060008114613fd5576040519150601f19603f3d011682016040523d82523d6000602084013e613fda565b606091505b5050905080613e9f5760405162461bcd60e51b81526004016101ae90614aeb565b6140048661407b565b60608101516000903390614019906002614cf1565b604051600081818185875af1925050503d8060008114614055576040519150601f19603f3d011682016040523d82523d6000602084013e61405a565b606091505b5050905080612aef5760405162461bcd60e51b81526004016101ae90614aeb565b60008181526003602052604081205460018054909190811061409f5761409f614da6565b9060005260206000209060080201905081336001600160a01b03167f81cf2674e2557b44d18f70b50c2b4d34408780e31ec724ee6ed65b749273167b836040516140e99190614bd0565b60405180910390a360018054614100908290614d10565b8154811061411057614110614da6565b9060005260206000209060080201600160036000858152602001908152602001600020548154811061414457614144614da6565b60009182526020909120825460089092020190815560018083015481830180546001600160a01b03199081166001600160a01b03938416179091556002808601549085018054909216921691909117905560038084015481840155600480850154908401805461ffff191661ffff9092169190911790556005808501549084015560068085015490840155600780850154908401805460ff90921693909260ff199092169184908111156141fa576141fa614d7a565b0217905550600782810154908201805460ff61010093849004169261ff00199091169083600381111561422f5761422f614d7a565b0217905550600782810154908201805460ff6201000093849004169262ff0000199091169083600481111561426657614266614d7a565b02179055505050600082815260036020819052604082205460018054919391614290908290614d10565b815481106142a0576142a0614da6565b906000526020600020906008020160000154815260200190815260200160002081905550600360008381526020019081526020016000206000905560018054806142ec576142ec614d90565b6000828152602081206008600019909301928302018181556001810180546001600160a01b031990811690915560028201805490911690556003810182905560048101805461ffff19169055600581018290556006810191909155600701805462ffffff1916905590555050565b600080546001600160a01b038381166001600160a01b0319831681178455604051919092169283917f8be0079c531659141344cd1fd0a4f28419497f9722a3daafe3b4186f6b6457e09190a35050565b6143b26146bf565b6000848152600360205260408120546001805490919081106143d6576143d6614da6565b6000918252602091829020604080516101408101825260089093029091018054835260018101546001600160a01b03908116948401949094526002810154909316908201526003808301546060830152600483015461ffff166080830152600583015460a0830152600683015460c0830152600783015491929160e084019160ff9091169081111561446a5761446a614d7a565b600381111561447b5761447b614d7a565b81526020016007820160019054906101000a900460ff1660038111156144a3576144a3614d7a565b60038111156144b4576144b4614d7a565b81526020016007820160029054906101000a900460ff1660048111156144dc576144dc614d7a565b60048111156144ed576144ed614d7a565b8152505090508060c001516001858560405160200161450e93929190614943565b60405160208183030381529060405280519060200120148061455e57508060c001518484600160405160200161454693929190614920565b60405160208183030381529060405280519060200120145b156145855760e0810160015b9081600381111561457d5761457d614d7a565b9052506146b7565b8060c00151600285856040516020016145a093929190614943565b6040516020818303038152906040528051906020012014806145f057508060c00151848460026040516020016145d893929190614920565b60405160208183030381529060405280519060200120145b156146005760e08101600261456a565b8060c001516003858560405160200161461b93929190614943565b60405160208183030381529060405280519060200120148061466b57508060c001518484600360405160200161465393929190614920565b60405160208183030381529060405280519060200120145b1561467b5760e08101600361456a565b60405162461bcd60e51b8152602060048201526011602482015270111958dc9e5c1d1a5bdb8819985a5b1959607a1b60448201526064016101ae565b949350505050565b6040805161014081018252600080825260208201819052918101829052606081018290526080810182905260a0810182905260c081018290529060e08201908152602001600081526020016000905290565b60006020828403121561472357600080fd5b81356001600160a01b038116811461473a57600080fd5b9392505050565b6000806040838503121561475457600080fd5b82359150602083013561ffff8116811461476d57600080fd5b809150509250929050565b60006020828403121561478a57600080fd5b5035919050565b6000806000604084860312156147a657600080fd5b83359250602084013567ffffffffffffffff808211156147c557600080fd5b818601915086601f8301126147d957600080fd5b8135818111156147e857600080fd5b8760208285010111156147fa57600080fd5b6020830194508093505050509250925092565b6000806040838503121561482057600080fd5b8235915060208301356004811061476d57600080fd5b6004811061484657614846614d7a565b9052565b6004811061485a5761485a614d7a565b60f81b9052565b6005811061484657614846614d7a565b80518252602081015161488f60208401826001600160a01b03169052565b5060408101516148aa60408401826001600160a01b03169052565b506060810151606083015260808101516148ca608084018261ffff169052565b5060a081015160a083015260c081015160c083015260e08101516148f160e0840182614836565b506101008082015161490582850182614836565b50506101208082015161491a82850182614861565b50505050565b82848237600083820160008152614937818561484a565b60010195945050505050565b61494d818561484a565b818360018301376000910160010190815292915050565b6020808252825182820181905260009190848201906040850190845b818110156149a55783516001600160a01b031683529284019291840191600101614980565b50909695505050505050565b6020808252825182820181905260009190848201906040850190845b818110156149a5576149e0838551614871565b9284019261014092909201916001016149cd565b60208082526017908201527f5468652067616d6573206c69737420697320656d707479000000000000000000604082015260600190565b602080825260139082015272506c617965722031206973206e6f7420796f7560681b604082015260600190565b602080825260139082015272506c617965722032206973206e6f7420796f7560681b604082015260600190565b60208082526018908201527f47616d652068617320616c726561647920737461727465640000000000000000604082015260600190565b60208082526015908201527411d85b59481a185cc81899595b8819195b195d1959605a1b604082015260600190565b60208082526019908201527f4661696c656420746f2073656e64207468652072657761726400000000000000604082015260600190565b6020808252818101527f4f776e61626c653a2063616c6c6572206973206e6f7420746865206f776e6572604082015260600190565b60208082526013908201527211d85b5948191bd95cc81b9bdd08195e1a5cdd606a1b604082015260600190565b6020808252601b908201527f4661696c656420746f2073656e642074686520626574206261636b0000000000604082015260600190565b6101408101614bca8284614871565b92915050565b8154815260018201546001600160a01b039081166020830152600283015416604082015260038201546060820152600482015461ffff166080820152600582015460a0820152600682015460c08201526007820154610140820190614c3b60e0840160ff8316614836565b614c4f610100840160ff8360081c16614836565b611221610120840160ff8360101c16614861565b8a81526001600160a01b038a81166020830152891660408201526060810188905261ffff8716608082015260a0810186905260c081018590526101408101614cae60e0830186614836565b614cbc610100830185614836565b614cca610120830184614861565b9b9a5050505050505050505050565b60008219821115614cec57614cec614d64565b500190565b6000816000190483118215151615614d0b57614d0b614d64565b500290565b600082821015614d2257614d22614d64565b500390565b6000600019821415614d3b57614d3b614d64565b5060010190565b600082614d5f57634e487b7160e01b600052601260045260246000fd5b500690565b634e487b7160e01b600052601160045260246000fd5b634e487b7160e01b600052602160045260246000fd5b634e487b7160e01b600052603160045260246000fd5b634e487b7160e01b600052603260045260246000fd5b634e487b7160e01b600052604160045260246000fdfe0c8a0eb83f1fa942580c696fa670ec638246f1a368385c788c33d678017e737ba2646970667358221220fc2327743a9b37ab2afe2d4fd037cba27547c8d1d187637cf979118499bf104664736f6c63430008070033",
  "devdoc": {
    "kind": "dev",
    "methods": {
      "owner()": {
        "details": "Returns the address of the current owner."
      },
      "renounceOwnership()": {
        "details": "Leaves the contract without owner. It will not be possible to call `onlyOwner` functions anymore. Can only be called by the current owner. NOTE: Renouncing ownership will leave the contract without an owner, thereby removing any functionality that is only available to the owner."
      },
      "transferOwnership(address)": {
        "details": "Transfers ownership of the contract to a new account (`newOwner`). Can only be called by the current owner."
      }
    },
    "version": 1
  },
  "userdoc": {
    "kind": "user",
    "methods": {},
    "version": 1
  },
  "storageLayout": {
    "storage": [
      {
        "astId": 7,
        "contract": "contracts/RockPaperScissors.sol:RockPaperScissors",
        "label": "_owner",
        "offset": 0,
        "slot": "0",
        "type": "t_address"
      },
      {
        "astId": 342,
        "contract": "contracts/RockPaperScissors.sol:RockPaperScissors",
        "label": "games",
        "offset": 0,
        "slot": "1",
        "type": "t_array(t_struct(Game)240_storage)dyn_storage"
      },
      {
        "astId": 346,
        "contract": "contracts/RockPaperScissors.sol:RockPaperScissors",
        "label": "playerToId",
        "offset": 0,
        "slot": "2",
        "type": "t_mapping(t_address,t_uint256)"
      },
      {
        "astId": 350,
        "contract": "contracts/RockPaperScissors.sol:RockPaperScissors",
        "label": "_gameIdToIndex",
        "offset": 0,
        "slot": "3",
        "type": "t_mapping(t_uint256,t_uint256)"
      },
      {
        "astId": 352,
        "contract": "contracts/RockPaperScissors.sol:RockPaperScissors",
        "label": "gamesCreated",
        "offset": 0,
        "slot": "4",
        "type": "t_uint256"
      },
      {
        "astId": 354,
        "contract": "contracts/RockPaperScissors.sol:RockPaperScissors",
        "label": "totalPlayerIds",
        "offset": 0,
        "slot": "5",
        "type": "t_uint256"
      }
    ],
    "types": {
      "t_address": {
        "encoding": "inplace",
        "label": "address",
        "numberOfBytes": "20"
      },
      "t_array(t_struct(Game)240_storage)dyn_storage": {
        "base": "t_struct(Game)240_storage",
        "encoding": "dynamic_array",
        "label": "struct IRockPaperScissors.Game[]",
        "numberOfBytes": "32"
      },
      "t_bytes32": {
        "encoding": "inplace",
        "label": "bytes32",
        "numberOfBytes": "32"
      },
      "t_enum(Hand)210": {
        "encoding": "inplace",
        "label": "enum IRockPaperScissors.Hand",
        "numberOfBytes": "1"
      },
      "t_enum(Status)216": {
        "encoding": "inplace",
        "label": "enum IRockPaperScissors.Status",
        "numberOfBytes": "1"
      },
      "t_mapping(t_address,t_uint256)": {
        "encoding": "mapping",
        "key": "t_address",
        "label": "mapping(address => uint256)",
        "numberOfBytes": "32",
        "value": "t_uint256"
      },
      "t_mapping(t_uint256,t_uint256)": {
        "encoding": "mapping",
        "key": "t_uint256",
        "label": "mapping(uint256 => uint256)",
        "numberOfBytes": "32",
        "value": "t_uint256"
      },
      "t_struct(Game)240_storage": {
        "encoding": "inplace",
        "label": "struct IRockPaperScissors.Game",
        "members": [
          {
            "astId": 218,
            "contract": "contracts/RockPaperScissors.sol:RockPaperScissors",
            "label": "id",
            "offset": 0,
            "slot": "0",
            "type": "t_uint256"
          },
          {
            "astId": 220,
            "contract": "contracts/RockPaperScissors.sol:RockPaperScissors",
            "label": "player1",
            "offset": 0,
            "slot": "1",
            "type": "t_address"
          },
          {
            "astId": 222,
            "contract": "contracts/RockPaperScissors.sol:RockPaperScissors",
            "label": "player2",
            "offset": 0,
            "slot": "2",
            "type": "t_address"
          },
          {
            "astId": 224,
            "contract": "contracts/RockPaperScissors.sol:RockPaperScissors",
            "label": "bet",
            "offset": 0,
            "slot": "3",
            "type": "t_uint256"
          },
          {
            "astId": 226,
            "contract": "contracts/RockPaperScissors.sol:RockPaperScissors",
            "label": "duration",
            "offset": 0,
            "slot": "4",
            "type": "t_uint16"
          },
          {
            "astId": 228,
            "contract": "contracts/RockPaperScissors.sol:RockPaperScissors",
            "label": "timestamp",
            "offset": 0,
            "slot": "5",
            "type": "t_uint256"
          },
          {
            "astId": 230,
            "contract": "contracts/RockPaperScissors.sol:RockPaperScissors",
            "label": "encryptedMove",
            "offset": 0,
            "slot": "6",
            "type": "t_bytes32"
          },
          {
            "astId": 233,
            "contract": "contracts/RockPaperScissors.sol:RockPaperScissors",
            "label": "decryptedMove",
            "offset": 0,
            "slot": "7",
            "type": "t_enum(Hand)210"
          },
          {
            "astId": 236,
            "contract": "contracts/RockPaperScissors.sol:RockPaperScissors",
            "label": "move",
            "offset": 1,
            "slot": "7",
            "type": "t_enum(Hand)210"
          },
          {
            "astId": 239,
            "contract": "contracts/RockPaperScissors.sol:RockPaperScissors",
            "label": "status",
            "offset": 2,
            "slot": "7",
            "type": "t_enum(Status)216"
          }
        ],
        "numberOfBytes": "256"
      },
      "t_uint16": {
        "encoding": "inplace",
        "label": "uint16",
        "numberOfBytes": "2"
      },
      "t_uint256": {
        "encoding": "inplace",
        "label": "uint256",
        "numberOfBytes": "32"
      }
    }
  }
}